{
  "abi": [
    {
      "inputs": [],
      "stateMutability": "payable",
      "type": "constructor"
    },
    {
      "inputs": [
        {
          "internalType": "address",
          "name": "",
          "type": "address"
        }
      ],
      "name": "accumulated_earnings",
      "outputs": [
        {
          "internalType": "uint256",
          "name": "",
          "type": "uint256"
        }
      ],
      "stateMutability": "view",
      "type": "function"
    },
    {
      "inputs": [
        {
          "internalType": "uint256",
          "name": "amount",
          "type": "uint256"
        }
      ],
      "name": "borrow",
      "outputs": [],
      "stateMutability": "nonpayable",
      "type": "function"
    },
    {
      "inputs": [
        {
          "internalType": "address",
          "name": "",
          "type": "address"
        }
      ],
      "name": "borrowers",
      "outputs": [
        {
          "internalType": "uint256",
          "name": "amount_borrowed",
          "type": "uint256"
        },
        {
          "internalType": "uint256",
          "name": "weight",
          "type": "uint256"
        },
        {
          "internalType": "uint256",
          "name": "loan_count",
          "type": "uint256"
        }
      ],
      "stateMutability": "view",
      "type": "function"
    },
    {
      "inputs": [
        {
          "internalType": "uint256",
          "name": "amount",
          "type": "uint256"
        }
      ],
      "name": "deposit",
      "outputs": [],
      "stateMutability": "payable",
      "type": "function"
    },
    {
      "inputs": [
        {
          "internalType": "address",
          "name": "",
          "type": "address"
        },
        {
          "internalType": "uint256",
          "name": "",
          "type": "uint256"
        }
      ],
      "name": "deposits",
      "outputs": [
        {
          "internalType": "uint256",
          "name": "amount_borrowed",
          "type": "uint256"
        },
        {
          "internalType": "uint256",
          "name": "amount_lent",
          "type": "uint256"
        },
        {
          "internalType": "uint256",
          "name": "timestamp",
          "type": "uint256"
        }
      ],
      "stateMutability": "view",
      "type": "function"
    },
    {
      "inputs": [],
      "name": "get_accumulated_earnings",
      "outputs": [
        {
          "internalType": "uint256",
          "name": "",
          "type": "uint256"
        }
      ],
      "stateMutability": "view",
      "type": "function"
    },
    {
      "inputs": [],
      "name": "get_borrowed_amount",
      "outputs": [
        {
          "internalType": "uint256",
          "name": "",
          "type": "uint256"
        }
      ],
      "stateMutability": "view",
      "type": "function"
    },
    {
      "inputs": [
        {
          "internalType": "uint256",
          "name": "loan_id",
          "type": "uint256"
        }
      ],
      "name": "get_fee_accumulated_on_loan",
      "outputs": [
        {
          "internalType": "uint256",
          "name": "",
          "type": "uint256"
        }
      ],
      "stateMutability": "view",
      "type": "function"
    },
    {
      "inputs": [],
      "name": "get_lender_weight",
      "outputs": [
        {
          "internalType": "uint256",
          "name": "",
          "type": "uint256"
        }
      ],
      "stateMutability": "view",
      "type": "function"
    },
    {
      "inputs": [],
      "name": "get_lent_amount",
      "outputs": [
        {
          "internalType": "uint256",
          "name": "",
          "type": "uint256"
        }
      ],
      "stateMutability": "view",
      "type": "function"
    },
    {
      "inputs": [
        {
          "internalType": "uint256",
          "name": "loan_id",
          "type": "uint256"
        }
      ],
      "name": "get_loan_amount",
      "outputs": [
        {
          "internalType": "uint256",
          "name": "",
          "type": "uint256"
        }
      ],
      "stateMutability": "view",
      "type": "function"
    },
    {
      "inputs": [
        {
          "internalType": "uint256",
          "name": "loan_id",
          "type": "uint256"
        }
      ],
      "name": "get_loan_timestamp",
      "outputs": [
        {
          "internalType": "uint256",
          "name": "",
          "type": "uint256"
        }
      ],
      "stateMutability": "view",
      "type": "function"
    },
    {
      "inputs": [],
      "name": "get_loans_count",
      "outputs": [
        {
          "internalType": "uint256",
          "name": "",
          "type": "uint256"
        }
      ],
      "stateMutability": "view",
      "type": "function"
    },
    {
      "inputs": [],
      "name": "get_total_supply",
      "outputs": [
        {
          "internalType": "uint256",
          "name": "",
          "type": "uint256"
        }
      ],
      "stateMutability": "view",
      "type": "function"
    },
    {
      "inputs": [
        {
          "internalType": "address",
          "name": "",
          "type": "address"
        }
      ],
      "name": "lenders",
      "outputs": [
        {
          "internalType": "uint256",
          "name": "amount_lent",
          "type": "uint256"
        },
        {
          "internalType": "uint256",
          "name": "last_weight",
          "type": "uint256"
        }
      ],
      "stateMutability": "view",
      "type": "function"
    },
    {
      "inputs": [
        {
          "internalType": "uint256",
          "name": "",
          "type": "uint256"
        }
      ],
      "name": "lenders_",
      "outputs": [
        {
          "internalType": "address",
          "name": "",
          "type": "address"
        }
      ],
      "stateMutability": "view",
      "type": "function"
    },
    {
      "inputs": [
        {
          "internalType": "address",
          "name": "",
          "type": "address"
        },
        {
          "internalType": "uint256",
          "name": "",
          "type": "uint256"
        }
      ],
      "name": "loans",
      "outputs": [
        {
          "internalType": "uint256",
          "name": "amount_borrowed",
          "type": "uint256"
        },
        {
          "internalType": "uint256",
          "name": "amount_lent",
          "type": "uint256"
        },
        {
          "internalType": "uint256",
          "name": "timestamp",
          "type": "uint256"
        }
      ],
      "stateMutability": "view",
      "type": "function"
    },
    {
      "inputs": [
        {
          "internalType": "uint256",
          "name": "numerator",
          "type": "uint256"
        },
        {
          "internalType": "uint256",
          "name": "denominator",
          "type": "uint256"
        },
        {
          "internalType": "uint256",
          "name": "precision",
          "type": "uint256"
        }
      ],
      "name": "percent",
      "outputs": [
        {
          "internalType": "uint256",
          "name": "quotient",
          "type": "uint256"
        }
      ],
      "stateMutability": "view",
      "type": "function"
    },
    {
      "inputs": [
        {
          "internalType": "uint256",
          "name": "loan_idx",
          "type": "uint256"
        }
      ],
      "name": "repay_full_loan",
      "outputs": [],
      "stateMutability": "payable",
      "type": "function"
    },
    {
      "inputs": [
        {
          "internalType": "address",
          "name": "",
          "type": "address"
        }
      ],
      "name": "rewards_at_deposit",
      "outputs": [
        {
          "internalType": "uint256",
          "name": "",
          "type": "uint256"
        }
      ],
      "stateMutability": "view",
      "type": "function"
    },
    {
      "inputs": [],
      "name": "rewards_pool",
      "outputs": [
        {
          "internalType": "uint256",
          "name": "",
          "type": "uint256"
        }
      ],
      "stateMutability": "view",
      "type": "function"
    },
    {
      "inputs": [],
      "name": "total_supply",
      "outputs": [
        {
          "internalType": "uint256",
          "name": "",
          "type": "uint256"
        }
      ],
      "stateMutability": "view",
      "type": "function"
    },
    {
      "inputs": [
        {
          "internalType": "uint256",
          "name": "amount",
          "type": "uint256"
        }
      ],
      "name": "withdraw",
      "outputs": [],
      "stateMutability": "nonpayable",
      "type": "function"
    },
    {
      "inputs": [],
      "name": "withdraw_fees",
      "outputs": [],
      "stateMutability": "nonpayable",
      "type": "function"
    },
    {
      "stateMutability": "payable",
      "type": "receive"
    }
  ],
  "bytecode": "6080604052600c6009556402540be400600a556000600855610ba9806100266000396000f3fe60806040526004361061014e5760003560e01c80639f868051116100b6578063c7d8d9991161006f578063c7d8d99914610453578063d274c3f514610486578063d59ff82d1461049b578063d6d68177146104c5578063d9d585b2146104fe578063f923058c1461051357610155565b80639f8680511461037d578063a60f4e3a1461039a578063b48cc422146103c4578063b6b55f25146103d9578063bf5d50c4146103f6578063c5ebeaec1461042957610155565b806343e4b3f41161010857806343e4b3f41461025957806359e1016f1461026e5780636231e72b14610298578063685e57e0146102ad578063689f7c96146102e057806398c61c371461032657610155565b80622c1a9e1461015a5780630f8953e7146101a257806312eef87c146101b757806328fd10d7146101cc5780632e1a7d4d146102185780633940e9ee1461024457610155565b3661015557005b600080fd5b34801561016657600080fd5b506101906004803603606081101561017d57600080fd5b5080359060208101359060400135610528565b60408051918252519081900360200190f35b3480156101ae57600080fd5b50610190610559565b3480156101c357600080fd5b5061019061055f565b3480156101d857600080fd5b506101ff600480360360208110156101ef57600080fd5b50356001600160a01b0316610572565b6040805192835260208301919091528051918290030190f35b34801561022457600080fd5b506102426004803603602081101561023b57600080fd5b503561058b565b005b34801561025057600080fd5b50610190610600565b34801561026557600080fd5b50610190610606565b34801561027a57600080fd5b506101906004803603602081101561029157600080fd5b5035610619565b3480156102a457600080fd5b5061019061064d565b3480156102b957600080fd5b50610190600480360360208110156102d057600080fd5b50356001600160a01b0316610664565b3480156102ec57600080fd5b5061030a6004803603602081101561030357600080fd5b5035610676565b604080516001600160a01b039092168252519081900360200190f35b34801561033257600080fd5b5061035f6004803603604081101561034957600080fd5b506001600160a01b03813516906020013561069d565b60408051938452602084019290925282820152519081900360600190f35b6102426004803603602081101561039357600080fd5b50356106dc565b3480156103a657600080fd5b50610190600480360360208110156103bd57600080fd5b50356107ab565b3480156103d057600080fd5b506101906107df565b610242600480360360208110156103ef57600080fd5b5035610803565b34801561040257600080fd5b5061035f6004803603602081101561041957600080fd5b50356001600160a01b0316610888565b34801561043557600080fd5b506102426004803603602081101561044c57600080fd5b50356108a9565b34801561045f57600080fd5b506101906004803603602081101561047657600080fd5b50356001600160a01b0316610913565b34801561049257600080fd5b50610242610925565b3480156104a757600080fd5b50610190600480360360208110156104be57600080fd5b5035610961565b3480156104d157600080fd5b5061035f600480360360408110156104e857600080fd5b506001600160a01b0381351690602001356109de565b34801561050a57600080fd5b506101906109f7565b34801561051f57600080fd5b50610190610a0d565b60008082600101600a0a850290506000600a85838161054357fe5b046005018161054e57fe5b049695505050505050565b60085481565b3360009081526001602052604090205490565b6001602081905260009182526040909120805491015482565b8047101561059857600080fd5b336000908152600160205260409020548111156105b457600080fd5b33600081815260016020526040808220805485900390556007805485900390555183156108fc0291849190818181858888f193505050501580156105fc573d6000803e3d6000fd5b5050565b60075481565b3360009081526020819052604090205490565b33600090815260036020526040812080548390811061063457fe5b9060005260206000209060030201600001549050919050565b336000908152600160208190526040909120015490565b60026020526000908152604090205481565b6006818154811061068357fe5b6000918252602090912001546001600160a01b0316905081565b600360205281600052604060002081815481106106b657fe5b600091825260209091206003909102018054600182015460029092015490935090915083565b336000908152602081905260409020546106f557600080fd5b600061070082610961565b336000908152600360205260408120805492935090918391908590811061072357fe5b9060005260206000209060030201600001540190508034101561074557600080fd5b8034111561079057336000818152602081905260408082208290555134849003929183156108fc02918491818181858888f1935050505015801561078d573d6000803e3d6000fd5b50505b6000821161079d57600080fd5b6107a682610a13565b505050565b3360009081526003602052604081208054839081106107c657fe5b9060005260206000209060030201600201549050919050565b33600090815260016020908152604080832054600590925290912054600854030290565b3331811115610851576040805162461bcd60e51b815260206004820152601560248201527424b739bab33334b1b4b2b73a103130b630b731b29760591b604482015290519081900360640190fd5b610859610b52565b506040805160608101825282815260006020820152429181019190915260078054830190556105fc3383610a4b565b60006020819052908152604090208054600182015460029092015490919083565b804710156108b657600080fd5b6108be610b52565b6040518060600160405280838152602001600081526020014281525090506108e68183610a7d565b604051339083156108fc029084906000818181858888f193505050501580156107a6573d6000803e3d6000fd5b60056020526000908152604090205481565b336000818152600160209081526040808320546005835281842054600854600290945291909320910382029081905590916105fc908290610ad9565b33600090815260036020526040812080548291908490811061097f57fe5b600091825260208083206003928302016002015433845291905260408220805491935090859081106109ad57fe5b9060005260206000209060030201600001549050600082116109ce57600080fd5b50600a5442919091030292915050565b600460205281600052604060002081815481106106b657fe5b3360009081526020819052604090206002015490565b60075490565b60008111610a2057600080fd5b600060075411610a2f57600080fd5b610a3e81600754600954610528565b6008540160088190555050565b6001600160a01b0390911660009081526001602090815260408083208054909401909355600854600590915291902055565b336000908152602081815260408083206002808201805460019081019091558254909601909155600380845282852080548088018255908652948490208751959091020193845591850151938301939093559290910151910155565b6001600160a01b038116600090815260026020526040902054610afb57600080fd5b6001600160a01b0381166000818152600260205260408120556009546108fc90600a0a8481610b2657fe5b049081150290604051600060405180830381858888f193505050501580156107a6573d6000803e3d6000fd5b6040518060600160405280600081526020016000815260200160008152509056fea26469706673582212205f50f2cdb0687b5ad82bfd9edd8447f0ad6d204e0bb0aed7dac8d8f8c77eb02964736f6c634300060c0033",
  "bytecodeSha1": "63e092069f2c904333d42ff1f359ab2adcbb5725",
  "compiler": {
    "evm_version": "istanbul",
    "optimizer": {
      "enabled": true,
      "runs": 200
    },
    "version": "0.6.12+commit.27d51765"
  },
  "contractName": "Bank",
  "language": "Solidity",
  "natspec": {
    "details": "borrow and loan money",
    "kind": "dev",
    "methods": {},
    "title": "loan",
    "version": 1
  },
  "opcodes": "PUSH1 0x80 PUSH1 0x40 MSTORE PUSH1 0x4 CALLDATASIZE LT PUSH2 0x14E JUMPI PUSH1 0x0 CALLDATALOAD PUSH1 0xE0 SHR DUP1 PUSH4 0x9F868051 GT PUSH2 0xB6 JUMPI DUP1 PUSH4 0xC7D8D999 GT PUSH2 0x6F JUMPI DUP1 PUSH4 0xC7D8D999 EQ PUSH2 0x453 JUMPI DUP1 PUSH4 0xD274C3F5 EQ PUSH2 0x486 JUMPI DUP1 PUSH4 0xD59FF82D EQ PUSH2 0x49B JUMPI DUP1 PUSH4 0xD6D68177 EQ PUSH2 0x4C5 JUMPI DUP1 PUSH4 0xD9D585B2 EQ PUSH2 0x4FE JUMPI DUP1 PUSH4 0xF923058C EQ PUSH2 0x513 JUMPI PUSH2 0x155 JUMP JUMPDEST DUP1 PUSH4 0x9F868051 EQ PUSH2 0x37D JUMPI DUP1 PUSH4 0xA60F4E3A EQ PUSH2 0x39A JUMPI DUP1 PUSH4 0xB48CC422 EQ PUSH2 0x3C4 JUMPI DUP1 PUSH4 0xB6B55F25 EQ PUSH2 0x3D9 JUMPI DUP1 PUSH4 0xBF5D50C4 EQ PUSH2 0x3F6 JUMPI DUP1 PUSH4 0xC5EBEAEC EQ PUSH2 0x429 JUMPI PUSH2 0x155 JUMP JUMPDEST DUP1 PUSH4 0x43E4B3F4 GT PUSH2 0x108 JUMPI DUP1 PUSH4 0x43E4B3F4 EQ PUSH2 0x259 JUMPI DUP1 PUSH4 0x59E1016F EQ PUSH2 0x26E JUMPI DUP1 PUSH4 0x6231E72B EQ PUSH2 0x298 JUMPI DUP1 PUSH4 0x685E57E0 EQ PUSH2 0x2AD JUMPI DUP1 PUSH4 0x689F7C96 EQ PUSH2 0x2E0 JUMPI DUP1 PUSH4 0x98C61C37 EQ PUSH2 0x326 JUMPI PUSH2 0x155 JUMP JUMPDEST DUP1 PUSH3 0x2C1A9E EQ PUSH2 0x15A JUMPI DUP1 PUSH4 0xF8953E7 EQ PUSH2 0x1A2 JUMPI DUP1 PUSH4 0x12EEF87C EQ PUSH2 0x1B7 JUMPI DUP1 PUSH4 0x28FD10D7 EQ PUSH2 0x1CC JUMPI DUP1 PUSH4 0x2E1A7D4D EQ PUSH2 0x218 JUMPI DUP1 PUSH4 0x3940E9EE EQ PUSH2 0x244 JUMPI PUSH2 0x155 JUMP JUMPDEST CALLDATASIZE PUSH2 0x155 JUMPI STOP JUMPDEST PUSH1 0x0 DUP1 REVERT JUMPDEST CALLVALUE DUP1 ISZERO PUSH2 0x166 JUMPI PUSH1 0x0 DUP1 REVERT JUMPDEST POP PUSH2 0x190 PUSH1 0x4 DUP1 CALLDATASIZE SUB PUSH1 0x60 DUP2 LT ISZERO PUSH2 0x17D JUMPI PUSH1 0x0 DUP1 REVERT JUMPDEST POP DUP1 CALLDATALOAD SWAP1 PUSH1 0x20 DUP2 ADD CALLDATALOAD SWAP1 PUSH1 0x40 ADD CALLDATALOAD PUSH2 0x528 JUMP JUMPDEST PUSH1 0x40 DUP1 MLOAD SWAP2 DUP3 MSTORE MLOAD SWAP1 DUP2 SWAP1 SUB PUSH1 0x20 ADD SWAP1 RETURN JUMPDEST CALLVALUE DUP1 ISZERO PUSH2 0x1AE JUMPI PUSH1 0x0 DUP1 REVERT JUMPDEST POP PUSH2 0x190 PUSH2 0x559 JUMP JUMPDEST CALLVALUE DUP1 ISZERO PUSH2 0x1C3 JUMPI PUSH1 0x0 DUP1 REVERT JUMPDEST POP PUSH2 0x190 PUSH2 0x55F JUMP JUMPDEST CALLVALUE DUP1 ISZERO PUSH2 0x1D8 JUMPI PUSH1 0x0 DUP1 REVERT JUMPDEST POP PUSH2 0x1FF PUSH1 0x4 DUP1 CALLDATASIZE SUB PUSH1 0x20 DUP2 LT ISZERO PUSH2 0x1EF JUMPI PUSH1 0x0 DUP1 REVERT JUMPDEST POP CALLDATALOAD PUSH1 0x1 PUSH1 0x1 PUSH1 0xA0 SHL SUB AND PUSH2 0x572 JUMP JUMPDEST PUSH1 0x40 DUP1 MLOAD SWAP3 DUP4 MSTORE PUSH1 0x20 DUP4 ADD SWAP2 SWAP1 SWAP2 MSTORE DUP1 MLOAD SWAP2 DUP3 SWAP1 SUB ADD SWAP1 RETURN JUMPDEST CALLVALUE DUP1 ISZERO PUSH2 0x224 JUMPI PUSH1 0x0 DUP1 REVERT JUMPDEST POP PUSH2 0x242 PUSH1 0x4 DUP1 CALLDATASIZE SUB PUSH1 0x20 DUP2 LT ISZERO PUSH2 0x23B JUMPI PUSH1 0x0 DUP1 REVERT JUMPDEST POP CALLDATALOAD PUSH2 0x58B JUMP JUMPDEST STOP JUMPDEST CALLVALUE DUP1 ISZERO PUSH2 0x250 JUMPI PUSH1 0x0 DUP1 REVERT JUMPDEST POP PUSH2 0x190 PUSH2 0x600 JUMP JUMPDEST CALLVALUE DUP1 ISZERO PUSH2 0x265 JUMPI PUSH1 0x0 DUP1 REVERT JUMPDEST POP PUSH2 0x190 PUSH2 0x606 JUMP JUMPDEST CALLVALUE DUP1 ISZERO PUSH2 0x27A JUMPI PUSH1 0x0 DUP1 REVERT JUMPDEST POP PUSH2 0x190 PUSH1 0x4 DUP1 CALLDATASIZE SUB PUSH1 0x20 DUP2 LT ISZERO PUSH2 0x291 JUMPI PUSH1 0x0 DUP1 REVERT JUMPDEST POP CALLDATALOAD PUSH2 0x619 JUMP JUMPDEST CALLVALUE DUP1 ISZERO PUSH2 0x2A4 JUMPI PUSH1 0x0 DUP1 REVERT JUMPDEST POP PUSH2 0x190 PUSH2 0x64D JUMP JUMPDEST CALLVALUE DUP1 ISZERO PUSH2 0x2B9 JUMPI PUSH1 0x0 DUP1 REVERT JUMPDEST POP PUSH2 0x190 PUSH1 0x4 DUP1 CALLDATASIZE SUB PUSH1 0x20 DUP2 LT ISZERO PUSH2 0x2D0 JUMPI PUSH1 0x0 DUP1 REVERT JUMPDEST POP CALLDATALOAD PUSH1 0x1 PUSH1 0x1 PUSH1 0xA0 SHL SUB AND PUSH2 0x664 JUMP JUMPDEST CALLVALUE DUP1 ISZERO PUSH2 0x2EC JUMPI PUSH1 0x0 DUP1 REVERT JUMPDEST POP PUSH2 0x30A PUSH1 0x4 DUP1 CALLDATASIZE SUB PUSH1 0x20 DUP2 LT ISZERO PUSH2 0x303 JUMPI PUSH1 0x0 DUP1 REVERT JUMPDEST POP CALLDATALOAD PUSH2 0x676 JUMP JUMPDEST PUSH1 0x40 DUP1 MLOAD PUSH1 0x1 PUSH1 0x1 PUSH1 0xA0 SHL SUB SWAP1 SWAP3 AND DUP3 MSTORE MLOAD SWAP1 DUP2 SWAP1 SUB PUSH1 0x20 ADD SWAP1 RETURN JUMPDEST CALLVALUE DUP1 ISZERO PUSH2 0x332 JUMPI PUSH1 0x0 DUP1 REVERT JUMPDEST POP PUSH2 0x35F PUSH1 0x4 DUP1 CALLDATASIZE SUB PUSH1 0x40 DUP2 LT ISZERO PUSH2 0x349 JUMPI PUSH1 0x0 DUP1 REVERT JUMPDEST POP PUSH1 0x1 PUSH1 0x1 PUSH1 0xA0 SHL SUB DUP2 CALLDATALOAD AND SWAP1 PUSH1 0x20 ADD CALLDATALOAD PUSH2 0x69D JUMP JUMPDEST PUSH1 0x40 DUP1 MLOAD SWAP4 DUP5 MSTORE PUSH1 0x20 DUP5 ADD SWAP3 SWAP1 SWAP3 MSTORE DUP3 DUP3 ADD MSTORE MLOAD SWAP1 DUP2 SWAP1 SUB PUSH1 0x60 ADD SWAP1 RETURN JUMPDEST PUSH2 0x242 PUSH1 0x4 DUP1 CALLDATASIZE SUB PUSH1 0x20 DUP2 LT ISZERO PUSH2 0x393 JUMPI PUSH1 0x0 DUP1 REVERT JUMPDEST POP CALLDATALOAD PUSH2 0x6DC JUMP JUMPDEST CALLVALUE DUP1 ISZERO PUSH2 0x3A6 JUMPI PUSH1 0x0 DUP1 REVERT JUMPDEST POP PUSH2 0x190 PUSH1 0x4 DUP1 CALLDATASIZE SUB PUSH1 0x20 DUP2 LT ISZERO PUSH2 0x3BD JUMPI PUSH1 0x0 DUP1 REVERT JUMPDEST POP CALLDATALOAD PUSH2 0x7AB JUMP JUMPDEST CALLVALUE DUP1 ISZERO PUSH2 0x3D0 JUMPI PUSH1 0x0 DUP1 REVERT JUMPDEST POP PUSH2 0x190 PUSH2 0x7DF JUMP JUMPDEST PUSH2 0x242 PUSH1 0x4 DUP1 CALLDATASIZE SUB PUSH1 0x20 DUP2 LT ISZERO PUSH2 0x3EF JUMPI PUSH1 0x0 DUP1 REVERT JUMPDEST POP CALLDATALOAD PUSH2 0x803 JUMP JUMPDEST CALLVALUE DUP1 ISZERO PUSH2 0x402 JUMPI PUSH1 0x0 DUP1 REVERT JUMPDEST POP PUSH2 0x35F PUSH1 0x4 DUP1 CALLDATASIZE SUB PUSH1 0x20 DUP2 LT ISZERO PUSH2 0x419 JUMPI PUSH1 0x0 DUP1 REVERT JUMPDEST POP CALLDATALOAD PUSH1 0x1 PUSH1 0x1 PUSH1 0xA0 SHL SUB AND PUSH2 0x888 JUMP JUMPDEST CALLVALUE DUP1 ISZERO PUSH2 0x435 JUMPI PUSH1 0x0 DUP1 REVERT JUMPDEST POP PUSH2 0x242 PUSH1 0x4 DUP1 CALLDATASIZE SUB PUSH1 0x20 DUP2 LT ISZERO PUSH2 0x44C JUMPI PUSH1 0x0 DUP1 REVERT JUMPDEST POP CALLDATALOAD PUSH2 0x8A9 JUMP JUMPDEST CALLVALUE DUP1 ISZERO PUSH2 0x45F JUMPI PUSH1 0x0 DUP1 REVERT JUMPDEST POP PUSH2 0x190 PUSH1 0x4 DUP1 CALLDATASIZE SUB PUSH1 0x20 DUP2 LT ISZERO PUSH2 0x476 JUMPI PUSH1 0x0 DUP1 REVERT JUMPDEST POP CALLDATALOAD PUSH1 0x1 PUSH1 0x1 PUSH1 0xA0 SHL SUB AND PUSH2 0x913 JUMP JUMPDEST CALLVALUE DUP1 ISZERO PUSH2 0x492 JUMPI PUSH1 0x0 DUP1 REVERT JUMPDEST POP PUSH2 0x242 PUSH2 0x925 JUMP JUMPDEST CALLVALUE DUP1 ISZERO PUSH2 0x4A7 JUMPI PUSH1 0x0 DUP1 REVERT JUMPDEST POP PUSH2 0x190 PUSH1 0x4 DUP1 CALLDATASIZE SUB PUSH1 0x20 DUP2 LT ISZERO PUSH2 0x4BE JUMPI PUSH1 0x0 DUP1 REVERT JUMPDEST POP CALLDATALOAD PUSH2 0x961 JUMP JUMPDEST CALLVALUE DUP1 ISZERO PUSH2 0x4D1 JUMPI PUSH1 0x0 DUP1 REVERT JUMPDEST POP PUSH2 0x35F PUSH1 0x4 DUP1 CALLDATASIZE SUB PUSH1 0x40 DUP2 LT ISZERO PUSH2 0x4E8 JUMPI PUSH1 0x0 DUP1 REVERT JUMPDEST POP PUSH1 0x1 PUSH1 0x1 PUSH1 0xA0 SHL SUB DUP2 CALLDATALOAD AND SWAP1 PUSH1 0x20 ADD CALLDATALOAD PUSH2 0x9DE JUMP JUMPDEST CALLVALUE DUP1 ISZERO PUSH2 0x50A JUMPI PUSH1 0x0 DUP1 REVERT JUMPDEST POP PUSH2 0x190 PUSH2 0x9F7 JUMP JUMPDEST CALLVALUE DUP1 ISZERO PUSH2 0x51F JUMPI PUSH1 0x0 DUP1 REVERT JUMPDEST POP PUSH2 0x190 PUSH2 0xA0D JUMP JUMPDEST PUSH1 0x0 DUP1 DUP3 PUSH1 0x1 ADD PUSH1 0xA EXP DUP6 MUL SWAP1 POP PUSH1 0x0 PUSH1 0xA DUP6 DUP4 DUP2 PUSH2 0x543 JUMPI INVALID JUMPDEST DIV PUSH1 0x5 ADD DUP2 PUSH2 0x54E JUMPI INVALID JUMPDEST DIV SWAP7 SWAP6 POP POP POP POP POP POP JUMP JUMPDEST PUSH1 0x8 SLOAD DUP2 JUMP JUMPDEST CALLER PUSH1 0x0 SWAP1 DUP2 MSTORE PUSH1 0x1 PUSH1 0x20 MSTORE PUSH1 0x40 SWAP1 KECCAK256 SLOAD SWAP1 JUMP JUMPDEST PUSH1 0x1 PUSH1 0x20 DUP2 SWAP1 MSTORE PUSH1 0x0 SWAP2 DUP3 MSTORE PUSH1 0x40 SWAP1 SWAP2 KECCAK256 DUP1 SLOAD SWAP2 ADD SLOAD DUP3 JUMP JUMPDEST DUP1 SELFBALANCE LT ISZERO PUSH2 0x598 JUMPI PUSH1 0x0 DUP1 REVERT JUMPDEST CALLER PUSH1 0x0 SWAP1 DUP2 MSTORE PUSH1 0x1 PUSH1 0x20 MSTORE PUSH1 0x40 SWAP1 KECCAK256 SLOAD DUP2 GT ISZERO PUSH2 0x5B4 JUMPI PUSH1 0x0 DUP1 REVERT JUMPDEST CALLER PUSH1 0x0 DUP2 DUP2 MSTORE PUSH1 0x1 PUSH1 0x20 MSTORE PUSH1 0x40 DUP1 DUP3 KECCAK256 DUP1 SLOAD DUP6 SWAP1 SUB SWAP1 SSTORE PUSH1 0x7 DUP1 SLOAD DUP6 SWAP1 SUB SWAP1 SSTORE MLOAD DUP4 ISZERO PUSH2 0x8FC MUL SWAP2 DUP5 SWAP2 SWAP1 DUP2 DUP2 DUP2 DUP6 DUP9 DUP9 CALL SWAP4 POP POP POP POP ISZERO DUP1 ISZERO PUSH2 0x5FC JUMPI RETURNDATASIZE PUSH1 0x0 DUP1 RETURNDATACOPY RETURNDATASIZE PUSH1 0x0 REVERT JUMPDEST POP POP JUMP JUMPDEST PUSH1 0x7 SLOAD DUP2 JUMP JUMPDEST CALLER PUSH1 0x0 SWAP1 DUP2 MSTORE PUSH1 0x20 DUP2 SWAP1 MSTORE PUSH1 0x40 SWAP1 KECCAK256 SLOAD SWAP1 JUMP JUMPDEST CALLER PUSH1 0x0 SWAP1 DUP2 MSTORE PUSH1 0x3 PUSH1 0x20 MSTORE PUSH1 0x40 DUP2 KECCAK256 DUP1 SLOAD DUP4 SWAP1 DUP2 LT PUSH2 0x634 JUMPI INVALID JUMPDEST SWAP1 PUSH1 0x0 MSTORE PUSH1 0x20 PUSH1 0x0 KECCAK256 SWAP1 PUSH1 0x3 MUL ADD PUSH1 0x0 ADD SLOAD SWAP1 POP SWAP2 SWAP1 POP JUMP JUMPDEST CALLER PUSH1 0x0 SWAP1 DUP2 MSTORE PUSH1 0x1 PUSH1 0x20 DUP2 SWAP1 MSTORE PUSH1 0x40 SWAP1 SWAP2 KECCAK256 ADD SLOAD SWAP1 JUMP JUMPDEST PUSH1 0x2 PUSH1 0x20 MSTORE PUSH1 0x0 SWAP1 DUP2 MSTORE PUSH1 0x40 SWAP1 KECCAK256 SLOAD DUP2 JUMP JUMPDEST PUSH1 0x6 DUP2 DUP2 SLOAD DUP2 LT PUSH2 0x683 JUMPI INVALID JUMPDEST PUSH1 0x0 SWAP2 DUP3 MSTORE PUSH1 0x20 SWAP1 SWAP2 KECCAK256 ADD SLOAD PUSH1 0x1 PUSH1 0x1 PUSH1 0xA0 SHL SUB AND SWAP1 POP DUP2 JUMP JUMPDEST PUSH1 0x3 PUSH1 0x20 MSTORE DUP2 PUSH1 0x0 MSTORE PUSH1 0x40 PUSH1 0x0 KECCAK256 DUP2 DUP2 SLOAD DUP2 LT PUSH2 0x6B6 JUMPI INVALID JUMPDEST PUSH1 0x0 SWAP2 DUP3 MSTORE PUSH1 0x20 SWAP1 SWAP2 KECCAK256 PUSH1 0x3 SWAP1 SWAP2 MUL ADD DUP1 SLOAD PUSH1 0x1 DUP3 ADD SLOAD PUSH1 0x2 SWAP1 SWAP3 ADD SLOAD SWAP1 SWAP4 POP SWAP1 SWAP2 POP DUP4 JUMP JUMPDEST CALLER PUSH1 0x0 SWAP1 DUP2 MSTORE PUSH1 0x20 DUP2 SWAP1 MSTORE PUSH1 0x40 SWAP1 KECCAK256 SLOAD PUSH2 0x6F5 JUMPI PUSH1 0x0 DUP1 REVERT JUMPDEST PUSH1 0x0 PUSH2 0x700 DUP3 PUSH2 0x961 JUMP JUMPDEST CALLER PUSH1 0x0 SWAP1 DUP2 MSTORE PUSH1 0x3 PUSH1 0x20 MSTORE PUSH1 0x40 DUP2 KECCAK256 DUP1 SLOAD SWAP3 SWAP4 POP SWAP1 SWAP2 DUP4 SWAP2 SWAP1 DUP6 SWAP1 DUP2 LT PUSH2 0x723 JUMPI INVALID JUMPDEST SWAP1 PUSH1 0x0 MSTORE PUSH1 0x20 PUSH1 0x0 KECCAK256 SWAP1 PUSH1 0x3 MUL ADD PUSH1 0x0 ADD SLOAD ADD SWAP1 POP DUP1 CALLVALUE LT ISZERO PUSH2 0x745 JUMPI PUSH1 0x0 DUP1 REVERT JUMPDEST DUP1 CALLVALUE GT ISZERO PUSH2 0x790 JUMPI CALLER PUSH1 0x0 DUP2 DUP2 MSTORE PUSH1 0x20 DUP2 SWAP1 MSTORE PUSH1 0x40 DUP1 DUP3 KECCAK256 DUP3 SWAP1 SSTORE MLOAD CALLVALUE DUP5 SWAP1 SUB SWAP3 SWAP2 DUP4 ISZERO PUSH2 0x8FC MUL SWAP2 DUP5 SWAP2 DUP2 DUP2 DUP2 DUP6 DUP9 DUP9 CALL SWAP4 POP POP POP POP ISZERO DUP1 ISZERO PUSH2 0x78D JUMPI RETURNDATASIZE PUSH1 0x0 DUP1 RETURNDATACOPY RETURNDATASIZE PUSH1 0x0 REVERT JUMPDEST POP POP JUMPDEST PUSH1 0x0 DUP3 GT PUSH2 0x79D JUMPI PUSH1 0x0 DUP1 REVERT JUMPDEST PUSH2 0x7A6 DUP3 PUSH2 0xA13 JUMP JUMPDEST POP POP POP JUMP JUMPDEST CALLER PUSH1 0x0 SWAP1 DUP2 MSTORE PUSH1 0x3 PUSH1 0x20 MSTORE PUSH1 0x40 DUP2 KECCAK256 DUP1 SLOAD DUP4 SWAP1 DUP2 LT PUSH2 0x7C6 JUMPI INVALID JUMPDEST SWAP1 PUSH1 0x0 MSTORE PUSH1 0x20 PUSH1 0x0 KECCAK256 SWAP1 PUSH1 0x3 MUL ADD PUSH1 0x2 ADD SLOAD SWAP1 POP SWAP2 SWAP1 POP JUMP JUMPDEST CALLER PUSH1 0x0 SWAP1 DUP2 MSTORE PUSH1 0x1 PUSH1 0x20 SWAP1 DUP2 MSTORE PUSH1 0x40 DUP1 DUP4 KECCAK256 SLOAD PUSH1 0x5 SWAP1 SWAP3 MSTORE SWAP1 SWAP2 KECCAK256 SLOAD PUSH1 0x8 SLOAD SUB MUL SWAP1 JUMP JUMPDEST CALLER BALANCE DUP2 GT ISZERO PUSH2 0x851 JUMPI PUSH1 0x40 DUP1 MLOAD PUSH3 0x461BCD PUSH1 0xE5 SHL DUP2 MSTORE PUSH1 0x20 PUSH1 0x4 DUP3 ADD MSTORE PUSH1 0x15 PUSH1 0x24 DUP3 ADD MSTORE PUSH21 0x24B739BAB33334B1B4B2B73A103130B630B731B297 PUSH1 0x59 SHL PUSH1 0x44 DUP3 ADD MSTORE SWAP1 MLOAD SWAP1 DUP2 SWAP1 SUB PUSH1 0x64 ADD SWAP1 REVERT JUMPDEST PUSH2 0x859 PUSH2 0xB52 JUMP JUMPDEST POP PUSH1 0x40 DUP1 MLOAD PUSH1 0x60 DUP2 ADD DUP3 MSTORE DUP3 DUP2 MSTORE PUSH1 0x0 PUSH1 0x20 DUP3 ADD MSTORE TIMESTAMP SWAP2 DUP2 ADD SWAP2 SWAP1 SWAP2 MSTORE PUSH1 0x7 DUP1 SLOAD DUP4 ADD SWAP1 SSTORE PUSH2 0x5FC CALLER DUP4 PUSH2 0xA4B JUMP JUMPDEST PUSH1 0x0 PUSH1 0x20 DUP2 SWAP1 MSTORE SWAP1 DUP2 MSTORE PUSH1 0x40 SWAP1 KECCAK256 DUP1 SLOAD PUSH1 0x1 DUP3 ADD SLOAD PUSH1 0x2 SWAP1 SWAP3 ADD SLOAD SWAP1 SWAP2 SWAP1 DUP4 JUMP JUMPDEST DUP1 SELFBALANCE LT ISZERO PUSH2 0x8B6 JUMPI PUSH1 0x0 DUP1 REVERT JUMPDEST PUSH2 0x8BE PUSH2 0xB52 JUMP JUMPDEST PUSH1 0x40 MLOAD DUP1 PUSH1 0x60 ADD PUSH1 0x40 MSTORE DUP1 DUP4 DUP2 MSTORE PUSH1 0x20 ADD PUSH1 0x0 DUP2 MSTORE PUSH1 0x20 ADD TIMESTAMP DUP2 MSTORE POP SWAP1 POP PUSH2 0x8E6 DUP2 DUP4 PUSH2 0xA7D JUMP JUMPDEST PUSH1 0x40 MLOAD CALLER SWAP1 DUP4 ISZERO PUSH2 0x8FC MUL SWAP1 DUP5 SWAP1 PUSH1 0x0 DUP2 DUP2 DUP2 DUP6 DUP9 DUP9 CALL SWAP4 POP POP POP POP ISZERO DUP1 ISZERO PUSH2 0x7A6 JUMPI RETURNDATASIZE PUSH1 0x0 DUP1 RETURNDATACOPY RETURNDATASIZE PUSH1 0x0 REVERT JUMPDEST PUSH1 0x5 PUSH1 0x20 MSTORE PUSH1 0x0 SWAP1 DUP2 MSTORE PUSH1 0x40 SWAP1 KECCAK256 SLOAD DUP2 JUMP JUMPDEST CALLER PUSH1 0x0 DUP2 DUP2 MSTORE PUSH1 0x1 PUSH1 0x20 SWAP1 DUP2 MSTORE PUSH1 0x40 DUP1 DUP4 KECCAK256 SLOAD PUSH1 0x5 DUP4 MSTORE DUP2 DUP5 KECCAK256 SLOAD PUSH1 0x8 SLOAD PUSH1 0x2 SWAP1 SWAP5 MSTORE SWAP2 SWAP1 SWAP4 KECCAK256 SWAP2 SUB DUP3 MUL SWAP1 DUP2 SWAP1 SSTORE SWAP1 SWAP2 PUSH2 0x5FC SWAP1 DUP3 SWAP1 PUSH2 0xAD9 JUMP JUMPDEST CALLER PUSH1 0x0 SWAP1 DUP2 MSTORE PUSH1 0x3 PUSH1 0x20 MSTORE PUSH1 0x40 DUP2 KECCAK256 DUP1 SLOAD DUP3 SWAP2 SWAP1 DUP5 SWAP1 DUP2 LT PUSH2 0x97F JUMPI INVALID JUMPDEST PUSH1 0x0 SWAP2 DUP3 MSTORE PUSH1 0x20 DUP1 DUP4 KECCAK256 PUSH1 0x3 SWAP3 DUP4 MUL ADD PUSH1 0x2 ADD SLOAD CALLER DUP5 MSTORE SWAP2 SWAP1 MSTORE PUSH1 0x40 DUP3 KECCAK256 DUP1 SLOAD SWAP2 SWAP4 POP SWAP1 DUP6 SWAP1 DUP2 LT PUSH2 0x9AD JUMPI INVALID JUMPDEST SWAP1 PUSH1 0x0 MSTORE PUSH1 0x20 PUSH1 0x0 KECCAK256 SWAP1 PUSH1 0x3 MUL ADD PUSH1 0x0 ADD SLOAD SWAP1 POP PUSH1 0x0 DUP3 GT PUSH2 0x9CE JUMPI PUSH1 0x0 DUP1 REVERT JUMPDEST POP PUSH1 0xA SLOAD TIMESTAMP SWAP2 SWAP1 SWAP2 SUB MUL SWAP3 SWAP2 POP POP JUMP JUMPDEST PUSH1 0x4 PUSH1 0x20 MSTORE DUP2 PUSH1 0x0 MSTORE PUSH1 0x40 PUSH1 0x0 KECCAK256 DUP2 DUP2 SLOAD DUP2 LT PUSH2 0x6B6 JUMPI INVALID JUMPDEST CALLER PUSH1 0x0 SWAP1 DUP2 MSTORE PUSH1 0x20 DUP2 SWAP1 MSTORE PUSH1 0x40 SWAP1 KECCAK256 PUSH1 0x2 ADD SLOAD SWAP1 JUMP JUMPDEST PUSH1 0x7 SLOAD SWAP1 JUMP JUMPDEST PUSH1 0x0 DUP2 GT PUSH2 0xA20 JUMPI PUSH1 0x0 DUP1 REVERT JUMPDEST PUSH1 0x0 PUSH1 0x7 SLOAD GT PUSH2 0xA2F JUMPI PUSH1 0x0 DUP1 REVERT JUMPDEST PUSH2 0xA3E DUP2 PUSH1 0x7 SLOAD PUSH1 0x9 SLOAD PUSH2 0x528 JUMP JUMPDEST PUSH1 0x8 SLOAD ADD PUSH1 0x8 DUP2 SWAP1 SSTORE POP POP JUMP JUMPDEST PUSH1 0x1 PUSH1 0x1 PUSH1 0xA0 SHL SUB SWAP1 SWAP2 AND PUSH1 0x0 SWAP1 DUP2 MSTORE PUSH1 0x1 PUSH1 0x20 SWAP1 DUP2 MSTORE PUSH1 0x40 DUP1 DUP4 KECCAK256 DUP1 SLOAD SWAP1 SWAP5 ADD SWAP1 SWAP4 SSTORE PUSH1 0x8 SLOAD PUSH1 0x5 SWAP1 SWAP2 MSTORE SWAP2 SWAP1 KECCAK256 SSTORE JUMP JUMPDEST CALLER PUSH1 0x0 SWAP1 DUP2 MSTORE PUSH1 0x20 DUP2 DUP2 MSTORE PUSH1 0x40 DUP1 DUP4 KECCAK256 PUSH1 0x2 DUP1 DUP3 ADD DUP1 SLOAD PUSH1 0x1 SWAP1 DUP2 ADD SWAP1 SWAP2 SSTORE DUP3 SLOAD SWAP1 SWAP7 ADD SWAP1 SWAP2 SSTORE PUSH1 0x3 DUP1 DUP5 MSTORE DUP3 DUP6 KECCAK256 DUP1 SLOAD DUP1 DUP9 ADD DUP3 SSTORE SWAP1 DUP7 MSTORE SWAP5 DUP5 SWAP1 KECCAK256 DUP8 MLOAD SWAP6 SWAP1 SWAP2 MUL ADD SWAP4 DUP5 SSTORE SWAP2 DUP6 ADD MLOAD SWAP4 DUP4 ADD SWAP4 SWAP1 SWAP4 SSTORE SWAP3 SWAP1 SWAP2 ADD MLOAD SWAP2 ADD SSTORE JUMP JUMPDEST PUSH1 0x1 PUSH1 0x1 PUSH1 0xA0 SHL SUB DUP2 AND PUSH1 0x0 SWAP1 DUP2 MSTORE PUSH1 0x2 PUSH1 0x20 MSTORE PUSH1 0x40 SWAP1 KECCAK256 SLOAD PUSH2 0xAFB JUMPI PUSH1 0x0 DUP1 REVERT JUMPDEST PUSH1 0x1 PUSH1 0x1 PUSH1 0xA0 SHL SUB DUP2 AND PUSH1 0x0 DUP2 DUP2 MSTORE PUSH1 0x2 PUSH1 0x20 MSTORE PUSH1 0x40 DUP2 KECCAK256 SSTORE PUSH1 0x9 SLOAD PUSH2 0x8FC SWAP1 PUSH1 0xA EXP DUP5 DUP2 PUSH2 0xB26 JUMPI INVALID JUMPDEST DIV SWAP1 DUP2 ISZERO MUL SWAP1 PUSH1 0x40 MLOAD PUSH1 0x0 PUSH1 0x40 MLOAD DUP1 DUP4 SUB DUP2 DUP6 DUP9 DUP9 CALL SWAP4 POP POP POP POP ISZERO DUP1 ISZERO PUSH2 0x7A6 JUMPI RETURNDATASIZE PUSH1 0x0 DUP1 RETURNDATACOPY RETURNDATASIZE PUSH1 0x0 REVERT JUMPDEST PUSH1 0x40 MLOAD DUP1 PUSH1 0x60 ADD PUSH1 0x40 MSTORE DUP1 PUSH1 0x0 DUP2 MSTORE PUSH1 0x20 ADD PUSH1 0x0 DUP2 MSTORE PUSH1 0x20 ADD PUSH1 0x0 DUP2 MSTORE POP SWAP1 JUMP INVALID LOG2 PUSH5 0x6970667358 0x22 SLT KECCAK256 0x5F POP CALLCODE 0xCD 0xB0 PUSH9 0x7B5AD82BFD9EDD8447 CREATE 0xAD PUSH14 0x204E0BB0AED7DAC8D8F8C77EB029 PUSH5 0x736F6C6343 STOP MOD 0xC STOP CALLER ",
  "sha1": "688863af43a7379b9822a9386e6ec9aaeb8276b9",
  "source": "// SPDX-License-Identifier: GPL-3.0\n\npragma solidity ^0.6.6;\n\nimport \"./SafeMath.sol\";\nimport \"./ABDKMath64x64.sol\";\n/**\n * @title loan\n * @dev borrow and loan money\n */\n\ncontract Bank {\n\n    struct Borrower {\n        uint256 amount_borrowed;\n        uint256 weight;\n        uint256 loan_count;\n        //bool isValue;\n    }\n\n    struct Lender {\n        uint256 amount_lent;\n        uint256 last_weight;\n        /* bool isValue; */\n    }\n\n    struct Loan {\n        uint256 amount_borrowed;\n        uint256 amount_lent;\n        uint256 timestamp;\n    }\n\n    mapping(address => Borrower) public borrowers;\n    mapping(address => Lender) public lenders;\n    mapping(address => uint256) public accumulated_earnings;\n    mapping(address => Loan[]) public loans;\n    mapping(address => Loan[]) public deposits;\n    mapping(address => uint256) public rewards_at_deposit;\n\n    address[] public lenders_;\n    uint256 public total_supply;\n    uint256 public rewards_pool;\n    uint256 precision = 12;\n\n    //fee per second\n    uint256 internal FEE =  10000000000 wei;\n\n    constructor() payable public {\n      rewards_pool = 0;\n    }\n\n\n    function deposit(uint256 amount) external payable {\n        require(msg.sender.balance >= amount, \"Insufficient balance.\");\n        Loan memory new_loan = Loan(amount,0, block.timestamp);\n        total_supply += amount;\n        _update_lenders(msg.sender, amount);\n    }\n\n\n    function borrow(uint256 amount) external {\n        require(address(this).balance >= amount);// dev: Insufficient balance in Contract\n        Loan memory new_loan = Loan(amount,0, block.timestamp);\n        _update_borrowers(new_loan, amount);\n        msg.sender.transfer(amount);\n    }\n\n    function _update_borrowers(Loan memory new_loan, uint256 amount) internal {\n        Borrower storage borrower = borrowers[msg.sender];\n         borrower.loan_count = borrower.loan_count + 1;\n         borrower.amount_borrowed += amount;\n         loans[msg.sender].push(new_loan);\n    }\n\n    function _update_lenders(address _lender_address, uint256 amount) internal {\n        Lender storage lender = lenders[_lender_address];\n        lender.amount_lent += amount;\n        rewards_at_deposit[_lender_address] = rewards_pool;\n    }\n\n    function withdraw(uint256 amount) external {\n        require(address(this).balance >= amount);\n        require(lenders[msg.sender].amount_lent >= amount);\n        lenders[msg.sender].amount_lent -= amount;\n        total_supply -= amount;\n        msg.sender.transfer(amount);\n    }\n\n    function withdraw_fees() external {\n          uint256 deposited = lenders[msg.sender].amount_lent;\n          uint256 reward = deposited * (rewards_pool - rewards_at_deposit[msg.sender]);\n          accumulated_earnings[msg.sender] = reward;\n          withdraw_fees_(accumulated_earnings[msg.sender], msg.sender);\n    }\n\n    function withdraw_fees_(uint256 to_pay, address addr_to_pay) private {\n          require(accumulated_earnings[addr_to_pay]>0);\n          accumulated_earnings[addr_to_pay] = 0;\n          payable(addr_to_pay).transfer(to_pay/(10**precision));\n    }\n\n    function repay_full_loan(uint256 loan_idx) external payable {\n        require(borrowers[msg.sender].amount_borrowed > 0);\n        uint256 total_fee = get_fee_accumulated_on_loan(loan_idx);\n        uint256 total_to_repay = loans[msg.sender][loan_idx].amount_borrowed + total_fee;\n        require(msg.value >= total_to_repay);\n        if(msg.value > total_to_repay){\n          uint256 change = msg.value - total_to_repay;\n          borrowers[msg.sender].amount_borrowed = 0;\n          msg.sender.transfer(change);\n        }\n        require(total_fee>0);\n        send_fees_to_pool(total_fee);\n    }\n\n    function percent(uint256 numerator, uint256 denominator, uint256 precision) public view returns(uint quotient) {\n             // caution, check safe-to-multiply here\n            uint256 _numerator  = numerator * 10 ** (precision+1);\n            // with rounding of last digit\n            uint256 _quotient =  ((_numerator / denominator) + 5) / 10;\n            return ( _quotient);\n    }\n\n    function send_fees_to_pool(uint256 fees_received) private {\n      require(fees_received>0);\n      require(total_supply>0);\n      rewards_pool = rewards_pool + percent(fees_received,total_supply,precision);\n    }\n\n    function get_loans_count() external view returns (uint256){\n      return borrowers[msg.sender].loan_count;\n    }\n\n    function get_borrowed_amount() external view returns (uint256){\n      return borrowers[msg.sender].amount_borrowed;\n    }\n\n    function get_loan_amount(uint256 loan_id) external view returns (uint256){\n      return loans[msg.sender][loan_id].amount_borrowed;\n    }\n\n    function get_loan_timestamp(uint256 loan_id) external view returns (uint256){\n      return loans[msg.sender][loan_id].timestamp;\n    }\n\n    function get_fee_accumulated_on_loan(uint256 loan_id) public view returns (uint256){\n      uint256 start_time =  loans[msg.sender][loan_id].timestamp;\n      uint256 amount_borrowed =  loans[msg.sender][loan_id].amount_borrowed;\n      require(start_time>0);\n      uint256 total_fee = (block.timestamp - start_time) * FEE;\n      //uint256 total_to_repay = loans[msg.sender][loan_id].amount_borrowed + total_fee;\n      return total_fee;\n    }\n\n    function get_lender_weight() external view returns (uint256){\n      return lenders[msg.sender].last_weight;\n    }\n\n    function get_lent_amount() external view returns (uint256){\n      return lenders[msg.sender].amount_lent;\n    }\n\n    function get_accumulated_earnings() external view returns (uint256){\n      uint256 deposited = lenders[msg.sender].amount_lent;\n      uint256 reward = deposited * (rewards_pool - rewards_at_deposit[msg.sender]);\n      return reward;\n    }\n\n    function get_total_supply() external view returns (uint256){\n      return total_supply;\n    }\n\n    receive() external payable { }\n\n}\n",
  "sourcePath": "contracts/Bank.sol",
  "type": "contract"
}