{
  "abi": [
    {
      "inputs": [],
      "stateMutability": "payable",
      "type": "constructor"
    },
    {
      "inputs": [
        {
          "internalType": "uint256",
          "name": "amount",
          "type": "uint256"
        }
      ],
      "name": "borrow",
      "outputs": [],
      "stateMutability": "nonpayable",
      "type": "function"
    },
    {
      "inputs": [
        {
          "internalType": "address",
          "name": "",
          "type": "address"
        }
      ],
      "name": "borrowers",
      "outputs": [
        {
          "internalType": "uint256",
          "name": "amount_borrowed",
          "type": "uint256"
        },
        {
          "internalType": "uint256",
          "name": "weight",
          "type": "uint256"
        },
        {
          "internalType": "uint256",
          "name": "loan_count",
          "type": "uint256"
        }
      ],
      "stateMutability": "view",
      "type": "function"
    },
    {
      "inputs": [
        {
          "internalType": "address",
          "name": "_lender_address",
          "type": "address"
        }
      ],
      "name": "calculate_weight",
      "outputs": [
        {
          "internalType": "uint256",
          "name": "",
          "type": "uint256"
        }
      ],
      "stateMutability": "view",
      "type": "function"
    },
    {
      "inputs": [
        {
          "internalType": "uint256",
          "name": "amount",
          "type": "uint256"
        }
      ],
      "name": "deposit",
      "outputs": [],
      "stateMutability": "payable",
      "type": "function"
    },
    {
      "inputs": [],
      "name": "get_borrowed_amount",
      "outputs": [
        {
          "internalType": "uint256",
          "name": "",
          "type": "uint256"
        }
      ],
      "stateMutability": "view",
      "type": "function"
    },
    {
      "inputs": [
        {
          "internalType": "uint256",
          "name": "loan_id",
          "type": "uint256"
        }
      ],
      "name": "get_fee_accumulated_on_loan",
      "outputs": [
        {
          "internalType": "uint256",
          "name": "",
          "type": "uint256"
        }
      ],
      "stateMutability": "view",
      "type": "function"
    },
    {
      "inputs": [
        {
          "internalType": "uint256",
          "name": "i",
          "type": "uint256"
        }
      ],
      "name": "get_lender_address",
      "outputs": [
        {
          "internalType": "address",
          "name": "",
          "type": "address"
        }
      ],
      "stateMutability": "view",
      "type": "function"
    },
    {
      "inputs": [],
      "name": "get_lender_weight",
      "outputs": [
        {
          "internalType": "uint256",
          "name": "",
          "type": "uint256"
        }
      ],
      "stateMutability": "view",
      "type": "function"
    },
    {
      "inputs": [],
      "name": "get_lent_amount",
      "outputs": [
        {
          "internalType": "uint256",
          "name": "",
          "type": "uint256"
        }
      ],
      "stateMutability": "view",
      "type": "function"
    },
    {
      "inputs": [
        {
          "internalType": "uint256",
          "name": "loan_id",
          "type": "uint256"
        }
      ],
      "name": "get_loan_amount",
      "outputs": [
        {
          "internalType": "uint256",
          "name": "",
          "type": "uint256"
        }
      ],
      "stateMutability": "view",
      "type": "function"
    },
    {
      "inputs": [
        {
          "internalType": "uint256",
          "name": "loan_id",
          "type": "uint256"
        }
      ],
      "name": "get_loan_timestamp",
      "outputs": [
        {
          "internalType": "uint256",
          "name": "",
          "type": "uint256"
        }
      ],
      "stateMutability": "view",
      "type": "function"
    },
    {
      "inputs": [],
      "name": "get_loans_count",
      "outputs": [
        {
          "internalType": "uint256",
          "name": "",
          "type": "uint256"
        }
      ],
      "stateMutability": "view",
      "type": "function"
    },
    {
      "inputs": [],
      "name": "get_number_of_lenders",
      "outputs": [
        {
          "internalType": "uint256",
          "name": "",
          "type": "uint256"
        }
      ],
      "stateMutability": "view",
      "type": "function"
    },
    {
      "inputs": [
        {
          "internalType": "address",
          "name": "",
          "type": "address"
        }
      ],
      "name": "lenders",
      "outputs": [
        {
          "internalType": "uint256",
          "name": "amount_lent",
          "type": "uint256"
        },
        {
          "internalType": "uint256",
          "name": "last_weight",
          "type": "uint256"
        }
      ],
      "stateMutability": "view",
      "type": "function"
    },
    {
      "inputs": [
        {
          "internalType": "uint256",
          "name": "",
          "type": "uint256"
        }
      ],
      "name": "lenders_",
      "outputs": [
        {
          "internalType": "address",
          "name": "",
          "type": "address"
        }
      ],
      "stateMutability": "view",
      "type": "function"
    },
    {
      "inputs": [
        {
          "internalType": "uint256",
          "name": "loan_idx",
          "type": "uint256"
        }
      ],
      "name": "repay_full_loan",
      "outputs": [],
      "stateMutability": "payable",
      "type": "function"
    },
    {
      "inputs": [],
      "name": "total_available_to_borrow",
      "outputs": [
        {
          "internalType": "uint256",
          "name": "",
          "type": "uint256"
        }
      ],
      "stateMutability": "view",
      "type": "function"
    },
    {
      "inputs": [
        {
          "internalType": "uint256",
          "name": "amount",
          "type": "uint256"
        }
      ],
      "name": "withdraw",
      "outputs": [],
      "stateMutability": "nonpayable",
      "type": "function"
    },
    {
      "stateMutability": "payable",
      "type": "receive"
    }
  ],
  "bytecode": "6080604052633b9aca00600655610a048061001b6000396000f3fe60806040526004361061010d5760003560e01c80639f86805111610095578063bf5d50c411610064578063bf5d50c414610328578063c5ebeaec14610379578063d59ff82d146103a3578063d9d585b2146103cd578063f8a903c6146103e257610114565b80639f86805114610291578063a60f4e3a146102ae578063b6b55f25146102d8578063b909e4ee146102f557610114565b80632e1a7d4d116100dc5780632e1a7d4d146101e757806343e4b3f41461021357806359e1016f146102285780636231e72b14610252578063689f7c961461026757610114565b806305291a0114610119578063060096bf1461015f57806312eef87c1461018657806328fd10d71461019b57610114565b3661011457005b600080fd5b34801561012557600080fd5b506101436004803603602081101561013c57600080fd5b50356103f7565b604080516001600160a01b039092168252519081900360200190f35b34801561016b57600080fd5b50610174610421565b60408051918252519081900360200190f35b34801561019257600080fd5b50610174610425565b3480156101a757600080fd5b506101ce600480360360208110156101be57600080fd5b50356001600160a01b0316610438565b6040805192835260208301919091528051918290030190f35b3480156101f357600080fd5b506102116004803603602081101561020a57600080fd5b5035610451565b005b34801561021f57600080fd5b506101746104c6565b34801561023457600080fd5b506101746004803603602081101561024b57600080fd5b50356104d9565b34801561025e57600080fd5b5061017461050d565b34801561027357600080fd5b506101436004803603602081101561028a57600080fd5b5035610524565b610211600480360360208110156102a757600080fd5b503561054b565b3480156102ba57600080fd5b50610174600480360360208110156102d157600080fd5b503561060d565b610211600480360360208110156102ee57600080fd5b5035610641565b34801561030157600080fd5b506101746004803603602081101561031857600080fd5b50356001600160a01b03166106c6565b34801561033457600080fd5b5061035b6004803603602081101561034b57600080fd5b50356001600160a01b03166106f5565b60408051938452602084019290925282820152519081900360600190f35b34801561038557600080fd5b506102116004803603602081101561039c57600080fd5b5035610716565b3480156103af57600080fd5b50610174600480360360208110156103c657600080fd5b5035610780565b3480156103d957600080fd5b506101746107ce565b3480156103ee57600080fd5b506101746107e4565b60006004828154811061040657fe5b6000918252602090912001546001600160a01b031692915050565b4790565b3360009081526001602052604090205490565b6001602081905260009182526040909120805491015482565b8047101561045e57600080fd5b3360009081526001602052604090205481111561047a57600080fd5b33600081815260016020526040808220805485900390556005805485900390555183156108fc0291849190818181858888f193505050501580156104c2573d6000803e3d6000fd5b5050565b3360009081526020819052604090205490565b3360009081526002602052604081208054839081106104f457fe5b9060005260206000209060030201600001549050919050565b336000908152600160208190526040909120015490565b6004818154811061053157fe5b6000918252602090912001546001600160a01b0316905081565b3360009081526020819052604090205461056457600080fd5b600061056f82610780565b336000908152600260205260408120805492935090918391908590811061059257fe5b906000526020600020906003020160000154019050803410156105b457600080fd5b803411156105ff57336000818152602081905260408082208290555134849003929183156108fc02918491818181858888f193505050501580156105fc573d6000803e3d6000fd5b50505b610608826107ea565b505050565b33600090815260026020526040812080548390811061062857fe5b9060005260206000209060030201600201549050919050565b333181111561068f576040805162461bcd60e51b815260206004820152601560248201527424b739bab33334b1b4b2b73a103130b630b731b29760591b604482015290519081900360640190fd5b6106976109ad565b506040805160608101825282815260006020820152429181019190915260058054830190556104c233836108f1565b6005546001600160a01b03821660009081526001602052604081205490918291816106ed57fe5b049392505050565b60006020819052908152604090208054600182015460029092015490919083565b8047101561072357600080fd5b61072b6109ad565b6040518060600160405280838152602001600081526020014281525090506107538183610952565b604051339083156108fc029084906000818181858888f19350505050158015610608573d6000803e3d6000fd5b33600090815260026020526040812080548291908490811061079e57fe5b9060005260206000209060030201600201549050600081116107bf57600080fd5b60065442919091030292915050565b3360009081526020819052604090206002015490565b60045490565b60005b60045460ff821610156104c25760006001600060048460ff168154811061081057fe5b60009182526020808320909101546001600160a01b0316835282019290925260400190205411156108e957600060048260ff168154811061084d57fe5b60009182526020822001546001600160a01b0316915061086c826106c6565b9050806001600060048660ff168154811061088357fe5b60009182526020808320909101546001600160a01b0390811684529083019390935260409182018120600101939093555191958302919084169082156108fc0290839088818181858888f193505050501580156108e4573d6000803e3d6000fd5b505050505b6001016107ed565b6004805460018181019092557f8a35acfbc15ff81a39ae7d344fd709f28e8600b4aa8c65c6b64bfe7fe36bd19b0180546001600160a01b039094166001600160a01b0319909416841790556000928352602052604090912080549091019055565b3360009081526020818152604080832060028082018054600190810190915582549096019091558083528184208054808701825590855293839020865160039095020193845591850151938301939093559290910151910155565b6040518060600160405280600081526020016000815260200160008152509056fea2646970667358221220b919903e009d80ccb60b6282aaa7f5780e3031a5bd52518c3174b5dc7f4583e564736f6c634300060c0033",
  "bytecodeSha1": "5e73898488ca80a5e4e1544afbba947dcfaca327",
  "compiler": {
    "evm_version": "istanbul",
    "optimizer": {
      "enabled": true,
      "runs": 200
    },
    "version": "0.6.12+commit.27d51765"
  },
  "contractName": "Bank",
  "language": "Solidity",
  "natspec": {
    "details": "borrow and loan money",
    "kind": "dev",
    "methods": {},
    "title": "loan",
    "version": 1
  },
  "opcodes": "PUSH1 0x80 PUSH1 0x40 MSTORE PUSH1 0x4 CALLDATASIZE LT PUSH2 0x10D JUMPI PUSH1 0x0 CALLDATALOAD PUSH1 0xE0 SHR DUP1 PUSH4 0x9F868051 GT PUSH2 0x95 JUMPI DUP1 PUSH4 0xBF5D50C4 GT PUSH2 0x64 JUMPI DUP1 PUSH4 0xBF5D50C4 EQ PUSH2 0x328 JUMPI DUP1 PUSH4 0xC5EBEAEC EQ PUSH2 0x379 JUMPI DUP1 PUSH4 0xD59FF82D EQ PUSH2 0x3A3 JUMPI DUP1 PUSH4 0xD9D585B2 EQ PUSH2 0x3CD JUMPI DUP1 PUSH4 0xF8A903C6 EQ PUSH2 0x3E2 JUMPI PUSH2 0x114 JUMP JUMPDEST DUP1 PUSH4 0x9F868051 EQ PUSH2 0x291 JUMPI DUP1 PUSH4 0xA60F4E3A EQ PUSH2 0x2AE JUMPI DUP1 PUSH4 0xB6B55F25 EQ PUSH2 0x2D8 JUMPI DUP1 PUSH4 0xB909E4EE EQ PUSH2 0x2F5 JUMPI PUSH2 0x114 JUMP JUMPDEST DUP1 PUSH4 0x2E1A7D4D GT PUSH2 0xDC JUMPI DUP1 PUSH4 0x2E1A7D4D EQ PUSH2 0x1E7 JUMPI DUP1 PUSH4 0x43E4B3F4 EQ PUSH2 0x213 JUMPI DUP1 PUSH4 0x59E1016F EQ PUSH2 0x228 JUMPI DUP1 PUSH4 0x6231E72B EQ PUSH2 0x252 JUMPI DUP1 PUSH4 0x689F7C96 EQ PUSH2 0x267 JUMPI PUSH2 0x114 JUMP JUMPDEST DUP1 PUSH4 0x5291A01 EQ PUSH2 0x119 JUMPI DUP1 PUSH4 0x60096BF EQ PUSH2 0x15F JUMPI DUP1 PUSH4 0x12EEF87C EQ PUSH2 0x186 JUMPI DUP1 PUSH4 0x28FD10D7 EQ PUSH2 0x19B JUMPI PUSH2 0x114 JUMP JUMPDEST CALLDATASIZE PUSH2 0x114 JUMPI STOP JUMPDEST PUSH1 0x0 DUP1 REVERT JUMPDEST CALLVALUE DUP1 ISZERO PUSH2 0x125 JUMPI PUSH1 0x0 DUP1 REVERT JUMPDEST POP PUSH2 0x143 PUSH1 0x4 DUP1 CALLDATASIZE SUB PUSH1 0x20 DUP2 LT ISZERO PUSH2 0x13C JUMPI PUSH1 0x0 DUP1 REVERT JUMPDEST POP CALLDATALOAD PUSH2 0x3F7 JUMP JUMPDEST PUSH1 0x40 DUP1 MLOAD PUSH1 0x1 PUSH1 0x1 PUSH1 0xA0 SHL SUB SWAP1 SWAP3 AND DUP3 MSTORE MLOAD SWAP1 DUP2 SWAP1 SUB PUSH1 0x20 ADD SWAP1 RETURN JUMPDEST CALLVALUE DUP1 ISZERO PUSH2 0x16B JUMPI PUSH1 0x0 DUP1 REVERT JUMPDEST POP PUSH2 0x174 PUSH2 0x421 JUMP JUMPDEST PUSH1 0x40 DUP1 MLOAD SWAP2 DUP3 MSTORE MLOAD SWAP1 DUP2 SWAP1 SUB PUSH1 0x20 ADD SWAP1 RETURN JUMPDEST CALLVALUE DUP1 ISZERO PUSH2 0x192 JUMPI PUSH1 0x0 DUP1 REVERT JUMPDEST POP PUSH2 0x174 PUSH2 0x425 JUMP JUMPDEST CALLVALUE DUP1 ISZERO PUSH2 0x1A7 JUMPI PUSH1 0x0 DUP1 REVERT JUMPDEST POP PUSH2 0x1CE PUSH1 0x4 DUP1 CALLDATASIZE SUB PUSH1 0x20 DUP2 LT ISZERO PUSH2 0x1BE JUMPI PUSH1 0x0 DUP1 REVERT JUMPDEST POP CALLDATALOAD PUSH1 0x1 PUSH1 0x1 PUSH1 0xA0 SHL SUB AND PUSH2 0x438 JUMP JUMPDEST PUSH1 0x40 DUP1 MLOAD SWAP3 DUP4 MSTORE PUSH1 0x20 DUP4 ADD SWAP2 SWAP1 SWAP2 MSTORE DUP1 MLOAD SWAP2 DUP3 SWAP1 SUB ADD SWAP1 RETURN JUMPDEST CALLVALUE DUP1 ISZERO PUSH2 0x1F3 JUMPI PUSH1 0x0 DUP1 REVERT JUMPDEST POP PUSH2 0x211 PUSH1 0x4 DUP1 CALLDATASIZE SUB PUSH1 0x20 DUP2 LT ISZERO PUSH2 0x20A JUMPI PUSH1 0x0 DUP1 REVERT JUMPDEST POP CALLDATALOAD PUSH2 0x451 JUMP JUMPDEST STOP JUMPDEST CALLVALUE DUP1 ISZERO PUSH2 0x21F JUMPI PUSH1 0x0 DUP1 REVERT JUMPDEST POP PUSH2 0x174 PUSH2 0x4C6 JUMP JUMPDEST CALLVALUE DUP1 ISZERO PUSH2 0x234 JUMPI PUSH1 0x0 DUP1 REVERT JUMPDEST POP PUSH2 0x174 PUSH1 0x4 DUP1 CALLDATASIZE SUB PUSH1 0x20 DUP2 LT ISZERO PUSH2 0x24B JUMPI PUSH1 0x0 DUP1 REVERT JUMPDEST POP CALLDATALOAD PUSH2 0x4D9 JUMP JUMPDEST CALLVALUE DUP1 ISZERO PUSH2 0x25E JUMPI PUSH1 0x0 DUP1 REVERT JUMPDEST POP PUSH2 0x174 PUSH2 0x50D JUMP JUMPDEST CALLVALUE DUP1 ISZERO PUSH2 0x273 JUMPI PUSH1 0x0 DUP1 REVERT JUMPDEST POP PUSH2 0x143 PUSH1 0x4 DUP1 CALLDATASIZE SUB PUSH1 0x20 DUP2 LT ISZERO PUSH2 0x28A JUMPI PUSH1 0x0 DUP1 REVERT JUMPDEST POP CALLDATALOAD PUSH2 0x524 JUMP JUMPDEST PUSH2 0x211 PUSH1 0x4 DUP1 CALLDATASIZE SUB PUSH1 0x20 DUP2 LT ISZERO PUSH2 0x2A7 JUMPI PUSH1 0x0 DUP1 REVERT JUMPDEST POP CALLDATALOAD PUSH2 0x54B JUMP JUMPDEST CALLVALUE DUP1 ISZERO PUSH2 0x2BA JUMPI PUSH1 0x0 DUP1 REVERT JUMPDEST POP PUSH2 0x174 PUSH1 0x4 DUP1 CALLDATASIZE SUB PUSH1 0x20 DUP2 LT ISZERO PUSH2 0x2D1 JUMPI PUSH1 0x0 DUP1 REVERT JUMPDEST POP CALLDATALOAD PUSH2 0x60D JUMP JUMPDEST PUSH2 0x211 PUSH1 0x4 DUP1 CALLDATASIZE SUB PUSH1 0x20 DUP2 LT ISZERO PUSH2 0x2EE JUMPI PUSH1 0x0 DUP1 REVERT JUMPDEST POP CALLDATALOAD PUSH2 0x641 JUMP JUMPDEST CALLVALUE DUP1 ISZERO PUSH2 0x301 JUMPI PUSH1 0x0 DUP1 REVERT JUMPDEST POP PUSH2 0x174 PUSH1 0x4 DUP1 CALLDATASIZE SUB PUSH1 0x20 DUP2 LT ISZERO PUSH2 0x318 JUMPI PUSH1 0x0 DUP1 REVERT JUMPDEST POP CALLDATALOAD PUSH1 0x1 PUSH1 0x1 PUSH1 0xA0 SHL SUB AND PUSH2 0x6C6 JUMP JUMPDEST CALLVALUE DUP1 ISZERO PUSH2 0x334 JUMPI PUSH1 0x0 DUP1 REVERT JUMPDEST POP PUSH2 0x35B PUSH1 0x4 DUP1 CALLDATASIZE SUB PUSH1 0x20 DUP2 LT ISZERO PUSH2 0x34B JUMPI PUSH1 0x0 DUP1 REVERT JUMPDEST POP CALLDATALOAD PUSH1 0x1 PUSH1 0x1 PUSH1 0xA0 SHL SUB AND PUSH2 0x6F5 JUMP JUMPDEST PUSH1 0x40 DUP1 MLOAD SWAP4 DUP5 MSTORE PUSH1 0x20 DUP5 ADD SWAP3 SWAP1 SWAP3 MSTORE DUP3 DUP3 ADD MSTORE MLOAD SWAP1 DUP2 SWAP1 SUB PUSH1 0x60 ADD SWAP1 RETURN JUMPDEST CALLVALUE DUP1 ISZERO PUSH2 0x385 JUMPI PUSH1 0x0 DUP1 REVERT JUMPDEST POP PUSH2 0x211 PUSH1 0x4 DUP1 CALLDATASIZE SUB PUSH1 0x20 DUP2 LT ISZERO PUSH2 0x39C JUMPI PUSH1 0x0 DUP1 REVERT JUMPDEST POP CALLDATALOAD PUSH2 0x716 JUMP JUMPDEST CALLVALUE DUP1 ISZERO PUSH2 0x3AF JUMPI PUSH1 0x0 DUP1 REVERT JUMPDEST POP PUSH2 0x174 PUSH1 0x4 DUP1 CALLDATASIZE SUB PUSH1 0x20 DUP2 LT ISZERO PUSH2 0x3C6 JUMPI PUSH1 0x0 DUP1 REVERT JUMPDEST POP CALLDATALOAD PUSH2 0x780 JUMP JUMPDEST CALLVALUE DUP1 ISZERO PUSH2 0x3D9 JUMPI PUSH1 0x0 DUP1 REVERT JUMPDEST POP PUSH2 0x174 PUSH2 0x7CE JUMP JUMPDEST CALLVALUE DUP1 ISZERO PUSH2 0x3EE JUMPI PUSH1 0x0 DUP1 REVERT JUMPDEST POP PUSH2 0x174 PUSH2 0x7E4 JUMP JUMPDEST PUSH1 0x0 PUSH1 0x4 DUP3 DUP2 SLOAD DUP2 LT PUSH2 0x406 JUMPI INVALID JUMPDEST PUSH1 0x0 SWAP2 DUP3 MSTORE PUSH1 0x20 SWAP1 SWAP2 KECCAK256 ADD SLOAD PUSH1 0x1 PUSH1 0x1 PUSH1 0xA0 SHL SUB AND SWAP3 SWAP2 POP POP JUMP JUMPDEST SELFBALANCE SWAP1 JUMP JUMPDEST CALLER PUSH1 0x0 SWAP1 DUP2 MSTORE PUSH1 0x1 PUSH1 0x20 MSTORE PUSH1 0x40 SWAP1 KECCAK256 SLOAD SWAP1 JUMP JUMPDEST PUSH1 0x1 PUSH1 0x20 DUP2 SWAP1 MSTORE PUSH1 0x0 SWAP2 DUP3 MSTORE PUSH1 0x40 SWAP1 SWAP2 KECCAK256 DUP1 SLOAD SWAP2 ADD SLOAD DUP3 JUMP JUMPDEST DUP1 SELFBALANCE LT ISZERO PUSH2 0x45E JUMPI PUSH1 0x0 DUP1 REVERT JUMPDEST CALLER PUSH1 0x0 SWAP1 DUP2 MSTORE PUSH1 0x1 PUSH1 0x20 MSTORE PUSH1 0x40 SWAP1 KECCAK256 SLOAD DUP2 GT ISZERO PUSH2 0x47A JUMPI PUSH1 0x0 DUP1 REVERT JUMPDEST CALLER PUSH1 0x0 DUP2 DUP2 MSTORE PUSH1 0x1 PUSH1 0x20 MSTORE PUSH1 0x40 DUP1 DUP3 KECCAK256 DUP1 SLOAD DUP6 SWAP1 SUB SWAP1 SSTORE PUSH1 0x5 DUP1 SLOAD DUP6 SWAP1 SUB SWAP1 SSTORE MLOAD DUP4 ISZERO PUSH2 0x8FC MUL SWAP2 DUP5 SWAP2 SWAP1 DUP2 DUP2 DUP2 DUP6 DUP9 DUP9 CALL SWAP4 POP POP POP POP ISZERO DUP1 ISZERO PUSH2 0x4C2 JUMPI RETURNDATASIZE PUSH1 0x0 DUP1 RETURNDATACOPY RETURNDATASIZE PUSH1 0x0 REVERT JUMPDEST POP POP JUMP JUMPDEST CALLER PUSH1 0x0 SWAP1 DUP2 MSTORE PUSH1 0x20 DUP2 SWAP1 MSTORE PUSH1 0x40 SWAP1 KECCAK256 SLOAD SWAP1 JUMP JUMPDEST CALLER PUSH1 0x0 SWAP1 DUP2 MSTORE PUSH1 0x2 PUSH1 0x20 MSTORE PUSH1 0x40 DUP2 KECCAK256 DUP1 SLOAD DUP4 SWAP1 DUP2 LT PUSH2 0x4F4 JUMPI INVALID JUMPDEST SWAP1 PUSH1 0x0 MSTORE PUSH1 0x20 PUSH1 0x0 KECCAK256 SWAP1 PUSH1 0x3 MUL ADD PUSH1 0x0 ADD SLOAD SWAP1 POP SWAP2 SWAP1 POP JUMP JUMPDEST CALLER PUSH1 0x0 SWAP1 DUP2 MSTORE PUSH1 0x1 PUSH1 0x20 DUP2 SWAP1 MSTORE PUSH1 0x40 SWAP1 SWAP2 KECCAK256 ADD SLOAD SWAP1 JUMP JUMPDEST PUSH1 0x4 DUP2 DUP2 SLOAD DUP2 LT PUSH2 0x531 JUMPI INVALID JUMPDEST PUSH1 0x0 SWAP2 DUP3 MSTORE PUSH1 0x20 SWAP1 SWAP2 KECCAK256 ADD SLOAD PUSH1 0x1 PUSH1 0x1 PUSH1 0xA0 SHL SUB AND SWAP1 POP DUP2 JUMP JUMPDEST CALLER PUSH1 0x0 SWAP1 DUP2 MSTORE PUSH1 0x20 DUP2 SWAP1 MSTORE PUSH1 0x40 SWAP1 KECCAK256 SLOAD PUSH2 0x564 JUMPI PUSH1 0x0 DUP1 REVERT JUMPDEST PUSH1 0x0 PUSH2 0x56F DUP3 PUSH2 0x780 JUMP JUMPDEST CALLER PUSH1 0x0 SWAP1 DUP2 MSTORE PUSH1 0x2 PUSH1 0x20 MSTORE PUSH1 0x40 DUP2 KECCAK256 DUP1 SLOAD SWAP3 SWAP4 POP SWAP1 SWAP2 DUP4 SWAP2 SWAP1 DUP6 SWAP1 DUP2 LT PUSH2 0x592 JUMPI INVALID JUMPDEST SWAP1 PUSH1 0x0 MSTORE PUSH1 0x20 PUSH1 0x0 KECCAK256 SWAP1 PUSH1 0x3 MUL ADD PUSH1 0x0 ADD SLOAD ADD SWAP1 POP DUP1 CALLVALUE LT ISZERO PUSH2 0x5B4 JUMPI PUSH1 0x0 DUP1 REVERT JUMPDEST DUP1 CALLVALUE GT ISZERO PUSH2 0x5FF JUMPI CALLER PUSH1 0x0 DUP2 DUP2 MSTORE PUSH1 0x20 DUP2 SWAP1 MSTORE PUSH1 0x40 DUP1 DUP3 KECCAK256 DUP3 SWAP1 SSTORE MLOAD CALLVALUE DUP5 SWAP1 SUB SWAP3 SWAP2 DUP4 ISZERO PUSH2 0x8FC MUL SWAP2 DUP5 SWAP2 DUP2 DUP2 DUP2 DUP6 DUP9 DUP9 CALL SWAP4 POP POP POP POP ISZERO DUP1 ISZERO PUSH2 0x5FC JUMPI RETURNDATASIZE PUSH1 0x0 DUP1 RETURNDATACOPY RETURNDATASIZE PUSH1 0x0 REVERT JUMPDEST POP POP JUMPDEST PUSH2 0x608 DUP3 PUSH2 0x7EA JUMP JUMPDEST POP POP POP JUMP JUMPDEST CALLER PUSH1 0x0 SWAP1 DUP2 MSTORE PUSH1 0x2 PUSH1 0x20 MSTORE PUSH1 0x40 DUP2 KECCAK256 DUP1 SLOAD DUP4 SWAP1 DUP2 LT PUSH2 0x628 JUMPI INVALID JUMPDEST SWAP1 PUSH1 0x0 MSTORE PUSH1 0x20 PUSH1 0x0 KECCAK256 SWAP1 PUSH1 0x3 MUL ADD PUSH1 0x2 ADD SLOAD SWAP1 POP SWAP2 SWAP1 POP JUMP JUMPDEST CALLER BALANCE DUP2 GT ISZERO PUSH2 0x68F JUMPI PUSH1 0x40 DUP1 MLOAD PUSH3 0x461BCD PUSH1 0xE5 SHL DUP2 MSTORE PUSH1 0x20 PUSH1 0x4 DUP3 ADD MSTORE PUSH1 0x15 PUSH1 0x24 DUP3 ADD MSTORE PUSH21 0x24B739BAB33334B1B4B2B73A103130B630B731B297 PUSH1 0x59 SHL PUSH1 0x44 DUP3 ADD MSTORE SWAP1 MLOAD SWAP1 DUP2 SWAP1 SUB PUSH1 0x64 ADD SWAP1 REVERT JUMPDEST PUSH2 0x697 PUSH2 0x9AD JUMP JUMPDEST POP PUSH1 0x40 DUP1 MLOAD PUSH1 0x60 DUP2 ADD DUP3 MSTORE DUP3 DUP2 MSTORE PUSH1 0x0 PUSH1 0x20 DUP3 ADD MSTORE TIMESTAMP SWAP2 DUP2 ADD SWAP2 SWAP1 SWAP2 MSTORE PUSH1 0x5 DUP1 SLOAD DUP4 ADD SWAP1 SSTORE PUSH2 0x4C2 CALLER DUP4 PUSH2 0x8F1 JUMP JUMPDEST PUSH1 0x5 SLOAD PUSH1 0x1 PUSH1 0x1 PUSH1 0xA0 SHL SUB DUP3 AND PUSH1 0x0 SWAP1 DUP2 MSTORE PUSH1 0x1 PUSH1 0x20 MSTORE PUSH1 0x40 DUP2 KECCAK256 SLOAD SWAP1 SWAP2 DUP3 SWAP2 DUP2 PUSH2 0x6ED JUMPI INVALID JUMPDEST DIV SWAP4 SWAP3 POP POP POP JUMP JUMPDEST PUSH1 0x0 PUSH1 0x20 DUP2 SWAP1 MSTORE SWAP1 DUP2 MSTORE PUSH1 0x40 SWAP1 KECCAK256 DUP1 SLOAD PUSH1 0x1 DUP3 ADD SLOAD PUSH1 0x2 SWAP1 SWAP3 ADD SLOAD SWAP1 SWAP2 SWAP1 DUP4 JUMP JUMPDEST DUP1 SELFBALANCE LT ISZERO PUSH2 0x723 JUMPI PUSH1 0x0 DUP1 REVERT JUMPDEST PUSH2 0x72B PUSH2 0x9AD JUMP JUMPDEST PUSH1 0x40 MLOAD DUP1 PUSH1 0x60 ADD PUSH1 0x40 MSTORE DUP1 DUP4 DUP2 MSTORE PUSH1 0x20 ADD PUSH1 0x0 DUP2 MSTORE PUSH1 0x20 ADD TIMESTAMP DUP2 MSTORE POP SWAP1 POP PUSH2 0x753 DUP2 DUP4 PUSH2 0x952 JUMP JUMPDEST PUSH1 0x40 MLOAD CALLER SWAP1 DUP4 ISZERO PUSH2 0x8FC MUL SWAP1 DUP5 SWAP1 PUSH1 0x0 DUP2 DUP2 DUP2 DUP6 DUP9 DUP9 CALL SWAP4 POP POP POP POP ISZERO DUP1 ISZERO PUSH2 0x608 JUMPI RETURNDATASIZE PUSH1 0x0 DUP1 RETURNDATACOPY RETURNDATASIZE PUSH1 0x0 REVERT JUMPDEST CALLER PUSH1 0x0 SWAP1 DUP2 MSTORE PUSH1 0x2 PUSH1 0x20 MSTORE PUSH1 0x40 DUP2 KECCAK256 DUP1 SLOAD DUP3 SWAP2 SWAP1 DUP5 SWAP1 DUP2 LT PUSH2 0x79E JUMPI INVALID JUMPDEST SWAP1 PUSH1 0x0 MSTORE PUSH1 0x20 PUSH1 0x0 KECCAK256 SWAP1 PUSH1 0x3 MUL ADD PUSH1 0x2 ADD SLOAD SWAP1 POP PUSH1 0x0 DUP2 GT PUSH2 0x7BF JUMPI PUSH1 0x0 DUP1 REVERT JUMPDEST PUSH1 0x6 SLOAD TIMESTAMP SWAP2 SWAP1 SWAP2 SUB MUL SWAP3 SWAP2 POP POP JUMP JUMPDEST CALLER PUSH1 0x0 SWAP1 DUP2 MSTORE PUSH1 0x20 DUP2 SWAP1 MSTORE PUSH1 0x40 SWAP1 KECCAK256 PUSH1 0x2 ADD SLOAD SWAP1 JUMP JUMPDEST PUSH1 0x4 SLOAD SWAP1 JUMP JUMPDEST PUSH1 0x0 JUMPDEST PUSH1 0x4 SLOAD PUSH1 0xFF DUP3 AND LT ISZERO PUSH2 0x4C2 JUMPI PUSH1 0x0 PUSH1 0x1 PUSH1 0x0 PUSH1 0x4 DUP5 PUSH1 0xFF AND DUP2 SLOAD DUP2 LT PUSH2 0x810 JUMPI INVALID JUMPDEST PUSH1 0x0 SWAP2 DUP3 MSTORE PUSH1 0x20 DUP1 DUP4 KECCAK256 SWAP1 SWAP2 ADD SLOAD PUSH1 0x1 PUSH1 0x1 PUSH1 0xA0 SHL SUB AND DUP4 MSTORE DUP3 ADD SWAP3 SWAP1 SWAP3 MSTORE PUSH1 0x40 ADD SWAP1 KECCAK256 SLOAD GT ISZERO PUSH2 0x8E9 JUMPI PUSH1 0x0 PUSH1 0x4 DUP3 PUSH1 0xFF AND DUP2 SLOAD DUP2 LT PUSH2 0x84D JUMPI INVALID JUMPDEST PUSH1 0x0 SWAP2 DUP3 MSTORE PUSH1 0x20 DUP3 KECCAK256 ADD SLOAD PUSH1 0x1 PUSH1 0x1 PUSH1 0xA0 SHL SUB AND SWAP2 POP PUSH2 0x86C DUP3 PUSH2 0x6C6 JUMP JUMPDEST SWAP1 POP DUP1 PUSH1 0x1 PUSH1 0x0 PUSH1 0x4 DUP7 PUSH1 0xFF AND DUP2 SLOAD DUP2 LT PUSH2 0x883 JUMPI INVALID JUMPDEST PUSH1 0x0 SWAP2 DUP3 MSTORE PUSH1 0x20 DUP1 DUP4 KECCAK256 SWAP1 SWAP2 ADD SLOAD PUSH1 0x1 PUSH1 0x1 PUSH1 0xA0 SHL SUB SWAP1 DUP2 AND DUP5 MSTORE SWAP1 DUP4 ADD SWAP4 SWAP1 SWAP4 MSTORE PUSH1 0x40 SWAP2 DUP3 ADD DUP2 KECCAK256 PUSH1 0x1 ADD SWAP4 SWAP1 SWAP4 SSTORE MLOAD SWAP2 SWAP6 DUP4 MUL SWAP2 SWAP1 DUP5 AND SWAP1 DUP3 ISZERO PUSH2 0x8FC MUL SWAP1 DUP4 SWAP1 DUP9 DUP2 DUP2 DUP2 DUP6 DUP9 DUP9 CALL SWAP4 POP POP POP POP ISZERO DUP1 ISZERO PUSH2 0x8E4 JUMPI RETURNDATASIZE PUSH1 0x0 DUP1 RETURNDATACOPY RETURNDATASIZE PUSH1 0x0 REVERT JUMPDEST POP POP POP POP JUMPDEST PUSH1 0x1 ADD PUSH2 0x7ED JUMP JUMPDEST PUSH1 0x4 DUP1 SLOAD PUSH1 0x1 DUP2 DUP2 ADD SWAP1 SWAP3 SSTORE PUSH32 0x8A35ACFBC15FF81A39AE7D344FD709F28E8600B4AA8C65C6B64BFE7FE36BD19B ADD DUP1 SLOAD PUSH1 0x1 PUSH1 0x1 PUSH1 0xA0 SHL SUB SWAP1 SWAP5 AND PUSH1 0x1 PUSH1 0x1 PUSH1 0xA0 SHL SUB NOT SWAP1 SWAP5 AND DUP5 OR SWAP1 SSTORE PUSH1 0x0 SWAP3 DUP4 MSTORE PUSH1 0x20 MSTORE PUSH1 0x40 SWAP1 SWAP2 KECCAK256 DUP1 SLOAD SWAP1 SWAP2 ADD SWAP1 SSTORE JUMP JUMPDEST CALLER PUSH1 0x0 SWAP1 DUP2 MSTORE PUSH1 0x20 DUP2 DUP2 MSTORE PUSH1 0x40 DUP1 DUP4 KECCAK256 PUSH1 0x2 DUP1 DUP3 ADD DUP1 SLOAD PUSH1 0x1 SWAP1 DUP2 ADD SWAP1 SWAP2 SSTORE DUP3 SLOAD SWAP1 SWAP7 ADD SWAP1 SWAP2 SSTORE DUP1 DUP4 MSTORE DUP2 DUP5 KECCAK256 DUP1 SLOAD DUP1 DUP8 ADD DUP3 SSTORE SWAP1 DUP6 MSTORE SWAP4 DUP4 SWAP1 KECCAK256 DUP7 MLOAD PUSH1 0x3 SWAP1 SWAP6 MUL ADD SWAP4 DUP5 SSTORE SWAP2 DUP6 ADD MLOAD SWAP4 DUP4 ADD SWAP4 SWAP1 SWAP4 SSTORE SWAP3 SWAP1 SWAP2 ADD MLOAD SWAP2 ADD SSTORE JUMP JUMPDEST PUSH1 0x40 MLOAD DUP1 PUSH1 0x60 ADD PUSH1 0x40 MSTORE DUP1 PUSH1 0x0 DUP2 MSTORE PUSH1 0x20 ADD PUSH1 0x0 DUP2 MSTORE PUSH1 0x20 ADD PUSH1 0x0 DUP2 MSTORE POP SWAP1 JUMP INVALID LOG2 PUSH5 0x6970667358 0x22 SLT KECCAK256 0xB9 NOT SWAP1 RETURNDATACOPY STOP SWAP14 DUP1 0xCC 0xB6 SIGNEXTEND PUSH3 0x82AAA7 CREATE2 PUSH25 0xE3031A5BD52518C3174B5DC7F4583E564736F6C634300060C STOP CALLER ",
  "sha1": "ca50e39c100fcdac7d681de3c3c42a7d79dc6162",
  "source": "// SPDX-License-Identifier: GPL-3.0\n\npragma solidity ^0.6.6;\n\n/**\n * @title loan\n * @dev borrow and loan money\n */\n\ncontract Bank {\n\n    struct Borrower {\n        uint amount_borrowed;\n        uint weight;\n        uint loan_count;\n        //bool isValue;\n    }\n\n    struct Lender {\n        uint amount_lent;\n        uint last_weight;\n        /* bool isValue; */\n    }\n\n    struct Loan {\n        uint amount_borrowed;\n        uint amount_lent;\n        uint timestamp;\n    }\n\n    mapping(address => Borrower) public borrowers;\n    mapping(address => Lender) public lenders;\n    mapping(address => Loan[]) loans;\n    mapping(address => Loan[]) deposits;\n\n    address[] public lenders_;\n    uint total_supply;\n\n    //fee per second\n    uint FEE =  1 gwei;\n\n    constructor() payable public {\n    }\n\n\n    function deposit(uint256 amount) public payable {\n        require(msg.sender.balance >= amount, \"Insufficient balance.\");\n        Loan memory new_loan = Loan(amount,0, block.timestamp);\n        total_supply += amount;\n        _update_lenders(msg.sender, amount);\n     }\n\n\n    function borrow(uint256 amount) public {\n        require(address(this).balance >= amount);\n        Loan memory new_loan = Loan(amount,0, block.timestamp);\n        _update_borrowers(new_loan, amount);\n        msg.sender.transfer(amount);\n     }\n\n     function _update_borrowers(Loan memory new_loan, uint256 amount) internal {\n        Borrower storage borrower = borrowers[msg.sender];\n         borrower.loan_count = borrower.loan_count + 1;\n         borrower.amount_borrowed += amount;\n         loans[msg.sender].push(new_loan);\n      }\n\n      function _update_lenders(address _lender_address, uint256 amount) internal {\n        lenders_.push(_lender_address);\n        Lender storage lender = lenders[_lender_address];\n        lender.amount_lent += amount;\n        /* lender.weight = calculate_weight(_lender_address, amount); */\n        /* lender.weight = lenders[_lender_address].amount_lent / (address(this).balance + amount ); */\n\n       }\n\n    function withdraw(uint256 amount) public {\n        require(address(this).balance >= amount);\n        require(lenders[msg.sender].amount_lent >= amount);\n        lenders[msg.sender].amount_lent -= amount;\n        total_supply -= amount;\n        msg.sender.transfer(amount);\n     }\n\n    function repay_full_loan(uint loan_idx) public payable {\n        require(borrowers[msg.sender].amount_borrowed > 0);\n        uint total_fee = get_fee_accumulated_on_loan(loan_idx);\n        uint total_to_repay = loans[msg.sender][loan_idx].amount_borrowed + total_fee;\n        require(msg.value >= total_to_repay);\n        if(msg.value > total_to_repay){\n          uint change = msg.value - total_to_repay;\n          borrowers[msg.sender].amount_borrowed = 0;\n          msg.sender.transfer(change);\n        }\n        distribute_fees(total_fee);\n     }\n\n     function calculate_weight(address _lender_address) public view returns (uint256) {\n        uint weight = lenders[_lender_address].amount_lent / total_supply;\n        return weight;\n     }\n\n    function total_available_to_borrow() public view returns (uint256) {\n        return address(this).balance;\n     }\n\n    function distribute_fees(uint fees_received) internal {\n      /* payable(lenders_[0]).transfer(fees_paid); */\n        for(uint8 i=0; i< lenders_.length; i++){\n            if (lenders[lenders_[i]].amount_lent>0) {\n                address addr   = lenders_[i];\n                uint256 weight = calculate_weight(addr);\n                lenders[lenders_[i]].last_weight = weight;\n                uint256 fee_share = fees_received * weight;\n                fees_received = 0;\n                payable(addr).transfer(fee_share);\n            }\n        }\n\n    }\n\n    function get_loans_count() public view returns (uint256){\n      return borrowers[msg.sender].loan_count;\n    }\n\n    function get_borrowed_amount() public view returns (uint256){\n      return borrowers[msg.sender].amount_borrowed;\n    }\n\n    function get_loan_amount(uint loan_id) public view returns (uint){\n      return loans[msg.sender][loan_id].amount_borrowed;\n    }\n\n    function get_loan_timestamp(uint loan_id) public view returns (uint){\n      return loans[msg.sender][loan_id].timestamp;\n    }\n\n    function get_fee_accumulated_on_loan(uint loan_id) public view returns (uint){\n      uint start_time =  loans[msg.sender][loan_id].timestamp;\n      require(start_time>0);\n      uint total_fee = (block.timestamp - start_time) * FEE;\n      //uint total_to_repay = loans[msg.sender][loan_id].amount_borrowed + total_fee;\n      return total_fee;\n    }\n\n    function get_number_of_lenders() public view returns (uint){\n      return lenders_.length;\n    }\n\n    function get_lender_address(uint i) public view returns (address){\n      return lenders_[i];\n    }\n\n    function get_lender_weight() public view returns (uint){\n      return lenders[msg.sender].last_weight;\n    }\n\n    function get_lent_amount() public view returns (uint){\n      return lenders[msg.sender].amount_lent;\n    }\n\n    receive() external payable { }\n\n}\n",
  "sourcePath": "contracts/Bank.sol",
  "type": "contract"
}