{
  "abi": [
    {
      "inputs": [],
      "stateMutability": "payable",
      "type": "constructor"
    },
    {
      "inputs": [
        {
          "internalType": "uint256",
          "name": "amount",
          "type": "uint256"
        }
      ],
      "name": "borrow",
      "outputs": [
        {
          "internalType": "uint256",
          "name": "",
          "type": "uint256"
        }
      ],
      "stateMutability": "nonpayable",
      "type": "function"
    },
    {
      "inputs": [
        {
          "internalType": "address",
          "name": "_user_address",
          "type": "address"
        }
      ],
      "name": "calculate_weight",
      "outputs": [
        {
          "internalType": "uint256",
          "name": "",
          "type": "uint256"
        }
      ],
      "stateMutability": "view",
      "type": "function"
    },
    {
      "inputs": [
        {
          "internalType": "uint256",
          "name": "amount",
          "type": "uint256"
        }
      ],
      "name": "deposit",
      "outputs": [],
      "stateMutability": "payable",
      "type": "function"
    },
    {
      "inputs": [
        {
          "internalType": "uint256",
          "name": "",
          "type": "uint256"
        }
      ],
      "name": "lenders_",
      "outputs": [
        {
          "internalType": "address",
          "name": "",
          "type": "address"
        }
      ],
      "stateMutability": "view",
      "type": "function"
    },
    {
      "inputs": [
        {
          "internalType": "uint256",
          "name": "loan_idx",
          "type": "uint256"
        }
      ],
      "name": "repay_full_loan",
      "outputs": [],
      "stateMutability": "payable",
      "type": "function"
    },
    {
      "inputs": [],
      "name": "total_available_to_borrow",
      "outputs": [
        {
          "internalType": "uint256",
          "name": "",
          "type": "uint256"
        }
      ],
      "stateMutability": "view",
      "type": "function"
    },
    {
      "inputs": [
        {
          "internalType": "uint256",
          "name": "amount",
          "type": "uint256"
        }
      ],
      "name": "withdraw",
      "outputs": [],
      "stateMutability": "nonpayable",
      "type": "function"
    },
    {
      "stateMutability": "payable",
      "type": "receive"
    }
  ],
  "bytecode": "6080604052633b9aca006004556105258061001b6000396000f3fe6080604052600436106100745760003560e01c80639f8680511161004e5780639f86805114610119578063b6b55f2514610136578063b909e4ee14610153578063c5ebeaec146101865761007b565b8063060096bf146100805780632e1a7d4d146100a7578063689f7c96146100d35761007b565b3661007b57005b600080fd5b34801561008c57600080fd5b506100956101b0565b60408051918252519081900360200190f35b3480156100b357600080fd5b506100d1600480360360208110156100ca57600080fd5b50356101b4565b005b3480156100df57600080fd5b506100fd600480360360208110156100f657600080fd5b5035610220565b604080516001600160a01b039092168252519081900360200190f35b6100d16004803603602081101561012f57600080fd5b5035610247565b6100d16004803603602081101561014c57600080fd5b50356102c9565b34801561015f57600080fd5b506100956004803603602081101561017657600080fd5b50356001600160a01b031661036e565b34801561019257600080fd5b50610095600480360360208110156101a957600080fd5b503561039a565b4790565b804710156101c157600080fd5b336000908152600260205260409020548111156101dd57600080fd5b33600081815260026020526040808220805485900390555183156108fc0291849190818181858888f1935050505015801561021c573d6000803e3d6000fd5b5050565b6003818154811061022d57fe5b6000918252602090912001546001600160a01b0316905081565b3360009081526001602052604090205461026057600080fd5b6004543360008181526001602081815260408084208785526003810183529084206002015493859052919052544291909103909202620151800291820190318111156102ab57600080fd5b336000908152600160205260408120556102c482610444565b505050565b3331811115610317576040805162461bcd60e51b815260206004820152601560248201527424b739bab33334b1b4b2b73a103130b630b731b29760591b604482015290519081900360640190fd5b60038054600181019091557fc2575a0e9e593c00f959f8c92f12db2869c3395a3b0502d05e2516446f71f85b0180546001600160a01b03191633908117909155600090815260026020526040902080549091019055565b6001600160a01b038116600090815260026020526040812054819047908161039257fe5b049392505050565b6000814710156103a957600080fd5b6103b16104ce565b5060408051606081018252838152600060208083018281524284860190815233808552600180855287862060028082015483018089526003830188528a89208a5181559651878501559451950194909455818652909352815488019091559351929392909186156108fc02918791818181858888f1935050505015801561043c573d6000803e3d6000fd5b509392505050565b60005b60035460ff82161161021c5760006002600060038460ff168154811061046957fe5b60009182526020808320909101546001600160a01b0316835282019290925260400190205411156104c657600060038260ff16815481106104a657fe5b60009182526020808320909101546001600160a01b031690915260029052505b600101610447565b6040518060600160405280600081526020016000815260200160008152509056fea26469706673582212200b443b49910415175277bc8019829408eaf6b8284bcb4f682ff8c23b6ef5ddbe64736f6c634300060c0033",
  "bytecodeSha1": "5cecaddd97161b4437659b3bfc58aa3a11687b69",
  "compiler": {
    "evm_version": "istanbul",
    "optimizer": {
      "enabled": true,
      "runs": 200
    },
    "version": "0.6.12+commit.27d51765"
  },
  "contractName": "Bank",
  "language": "Solidity",
  "natspec": {
    "details": "borrow and loan money",
    "kind": "dev",
    "methods": {},
    "title": "loan",
    "version": 1
  },
  "opcodes": "PUSH1 0x80 PUSH1 0x40 MSTORE PUSH1 0x4 CALLDATASIZE LT PUSH2 0x74 JUMPI PUSH1 0x0 CALLDATALOAD PUSH1 0xE0 SHR DUP1 PUSH4 0x9F868051 GT PUSH2 0x4E JUMPI DUP1 PUSH4 0x9F868051 EQ PUSH2 0x119 JUMPI DUP1 PUSH4 0xB6B55F25 EQ PUSH2 0x136 JUMPI DUP1 PUSH4 0xB909E4EE EQ PUSH2 0x153 JUMPI DUP1 PUSH4 0xC5EBEAEC EQ PUSH2 0x186 JUMPI PUSH2 0x7B JUMP JUMPDEST DUP1 PUSH4 0x60096BF EQ PUSH2 0x80 JUMPI DUP1 PUSH4 0x2E1A7D4D EQ PUSH2 0xA7 JUMPI DUP1 PUSH4 0x689F7C96 EQ PUSH2 0xD3 JUMPI PUSH2 0x7B JUMP JUMPDEST CALLDATASIZE PUSH2 0x7B JUMPI STOP JUMPDEST PUSH1 0x0 DUP1 REVERT JUMPDEST CALLVALUE DUP1 ISZERO PUSH2 0x8C JUMPI PUSH1 0x0 DUP1 REVERT JUMPDEST POP PUSH2 0x95 PUSH2 0x1B0 JUMP JUMPDEST PUSH1 0x40 DUP1 MLOAD SWAP2 DUP3 MSTORE MLOAD SWAP1 DUP2 SWAP1 SUB PUSH1 0x20 ADD SWAP1 RETURN JUMPDEST CALLVALUE DUP1 ISZERO PUSH2 0xB3 JUMPI PUSH1 0x0 DUP1 REVERT JUMPDEST POP PUSH2 0xD1 PUSH1 0x4 DUP1 CALLDATASIZE SUB PUSH1 0x20 DUP2 LT ISZERO PUSH2 0xCA JUMPI PUSH1 0x0 DUP1 REVERT JUMPDEST POP CALLDATALOAD PUSH2 0x1B4 JUMP JUMPDEST STOP JUMPDEST CALLVALUE DUP1 ISZERO PUSH2 0xDF JUMPI PUSH1 0x0 DUP1 REVERT JUMPDEST POP PUSH2 0xFD PUSH1 0x4 DUP1 CALLDATASIZE SUB PUSH1 0x20 DUP2 LT ISZERO PUSH2 0xF6 JUMPI PUSH1 0x0 DUP1 REVERT JUMPDEST POP CALLDATALOAD PUSH2 0x220 JUMP JUMPDEST PUSH1 0x40 DUP1 MLOAD PUSH1 0x1 PUSH1 0x1 PUSH1 0xA0 SHL SUB SWAP1 SWAP3 AND DUP3 MSTORE MLOAD SWAP1 DUP2 SWAP1 SUB PUSH1 0x20 ADD SWAP1 RETURN JUMPDEST PUSH2 0xD1 PUSH1 0x4 DUP1 CALLDATASIZE SUB PUSH1 0x20 DUP2 LT ISZERO PUSH2 0x12F JUMPI PUSH1 0x0 DUP1 REVERT JUMPDEST POP CALLDATALOAD PUSH2 0x247 JUMP JUMPDEST PUSH2 0xD1 PUSH1 0x4 DUP1 CALLDATASIZE SUB PUSH1 0x20 DUP2 LT ISZERO PUSH2 0x14C JUMPI PUSH1 0x0 DUP1 REVERT JUMPDEST POP CALLDATALOAD PUSH2 0x2C9 JUMP JUMPDEST CALLVALUE DUP1 ISZERO PUSH2 0x15F JUMPI PUSH1 0x0 DUP1 REVERT JUMPDEST POP PUSH2 0x95 PUSH1 0x4 DUP1 CALLDATASIZE SUB PUSH1 0x20 DUP2 LT ISZERO PUSH2 0x176 JUMPI PUSH1 0x0 DUP1 REVERT JUMPDEST POP CALLDATALOAD PUSH1 0x1 PUSH1 0x1 PUSH1 0xA0 SHL SUB AND PUSH2 0x36E JUMP JUMPDEST CALLVALUE DUP1 ISZERO PUSH2 0x192 JUMPI PUSH1 0x0 DUP1 REVERT JUMPDEST POP PUSH2 0x95 PUSH1 0x4 DUP1 CALLDATASIZE SUB PUSH1 0x20 DUP2 LT ISZERO PUSH2 0x1A9 JUMPI PUSH1 0x0 DUP1 REVERT JUMPDEST POP CALLDATALOAD PUSH2 0x39A JUMP JUMPDEST SELFBALANCE SWAP1 JUMP JUMPDEST DUP1 SELFBALANCE LT ISZERO PUSH2 0x1C1 JUMPI PUSH1 0x0 DUP1 REVERT JUMPDEST CALLER PUSH1 0x0 SWAP1 DUP2 MSTORE PUSH1 0x2 PUSH1 0x20 MSTORE PUSH1 0x40 SWAP1 KECCAK256 SLOAD DUP2 GT ISZERO PUSH2 0x1DD JUMPI PUSH1 0x0 DUP1 REVERT JUMPDEST CALLER PUSH1 0x0 DUP2 DUP2 MSTORE PUSH1 0x2 PUSH1 0x20 MSTORE PUSH1 0x40 DUP1 DUP3 KECCAK256 DUP1 SLOAD DUP6 SWAP1 SUB SWAP1 SSTORE MLOAD DUP4 ISZERO PUSH2 0x8FC MUL SWAP2 DUP5 SWAP2 SWAP1 DUP2 DUP2 DUP2 DUP6 DUP9 DUP9 CALL SWAP4 POP POP POP POP ISZERO DUP1 ISZERO PUSH2 0x21C JUMPI RETURNDATASIZE PUSH1 0x0 DUP1 RETURNDATACOPY RETURNDATASIZE PUSH1 0x0 REVERT JUMPDEST POP POP JUMP JUMPDEST PUSH1 0x3 DUP2 DUP2 SLOAD DUP2 LT PUSH2 0x22D JUMPI INVALID JUMPDEST PUSH1 0x0 SWAP2 DUP3 MSTORE PUSH1 0x20 SWAP1 SWAP2 KECCAK256 ADD SLOAD PUSH1 0x1 PUSH1 0x1 PUSH1 0xA0 SHL SUB AND SWAP1 POP DUP2 JUMP JUMPDEST CALLER PUSH1 0x0 SWAP1 DUP2 MSTORE PUSH1 0x1 PUSH1 0x20 MSTORE PUSH1 0x40 SWAP1 KECCAK256 SLOAD PUSH2 0x260 JUMPI PUSH1 0x0 DUP1 REVERT JUMPDEST PUSH1 0x4 SLOAD CALLER PUSH1 0x0 DUP2 DUP2 MSTORE PUSH1 0x1 PUSH1 0x20 DUP2 DUP2 MSTORE PUSH1 0x40 DUP1 DUP5 KECCAK256 DUP8 DUP6 MSTORE PUSH1 0x3 DUP2 ADD DUP4 MSTORE SWAP1 DUP5 KECCAK256 PUSH1 0x2 ADD SLOAD SWAP4 DUP6 SWAP1 MSTORE SWAP2 SWAP1 MSTORE SLOAD TIMESTAMP SWAP2 SWAP1 SWAP2 SUB SWAP1 SWAP3 MUL PUSH3 0x15180 MUL SWAP2 DUP3 ADD SWAP1 BALANCE DUP2 GT ISZERO PUSH2 0x2AB JUMPI PUSH1 0x0 DUP1 REVERT JUMPDEST CALLER PUSH1 0x0 SWAP1 DUP2 MSTORE PUSH1 0x1 PUSH1 0x20 MSTORE PUSH1 0x40 DUP2 KECCAK256 SSTORE PUSH2 0x2C4 DUP3 PUSH2 0x444 JUMP JUMPDEST POP POP POP JUMP JUMPDEST CALLER BALANCE DUP2 GT ISZERO PUSH2 0x317 JUMPI PUSH1 0x40 DUP1 MLOAD PUSH3 0x461BCD PUSH1 0xE5 SHL DUP2 MSTORE PUSH1 0x20 PUSH1 0x4 DUP3 ADD MSTORE PUSH1 0x15 PUSH1 0x24 DUP3 ADD MSTORE PUSH21 0x24B739BAB33334B1B4B2B73A103130B630B731B297 PUSH1 0x59 SHL PUSH1 0x44 DUP3 ADD MSTORE SWAP1 MLOAD SWAP1 DUP2 SWAP1 SUB PUSH1 0x64 ADD SWAP1 REVERT JUMPDEST PUSH1 0x3 DUP1 SLOAD PUSH1 0x1 DUP2 ADD SWAP1 SWAP2 SSTORE PUSH32 0xC2575A0E9E593C00F959F8C92F12DB2869C3395A3B0502D05E2516446F71F85B ADD DUP1 SLOAD PUSH1 0x1 PUSH1 0x1 PUSH1 0xA0 SHL SUB NOT AND CALLER SWAP1 DUP2 OR SWAP1 SWAP2 SSTORE PUSH1 0x0 SWAP1 DUP2 MSTORE PUSH1 0x2 PUSH1 0x20 MSTORE PUSH1 0x40 SWAP1 KECCAK256 DUP1 SLOAD SWAP1 SWAP2 ADD SWAP1 SSTORE JUMP JUMPDEST PUSH1 0x1 PUSH1 0x1 PUSH1 0xA0 SHL SUB DUP2 AND PUSH1 0x0 SWAP1 DUP2 MSTORE PUSH1 0x2 PUSH1 0x20 MSTORE PUSH1 0x40 DUP2 KECCAK256 SLOAD DUP2 SWAP1 SELFBALANCE SWAP1 DUP2 PUSH2 0x392 JUMPI INVALID JUMPDEST DIV SWAP4 SWAP3 POP POP POP JUMP JUMPDEST PUSH1 0x0 DUP2 SELFBALANCE LT ISZERO PUSH2 0x3A9 JUMPI PUSH1 0x0 DUP1 REVERT JUMPDEST PUSH2 0x3B1 PUSH2 0x4CE JUMP JUMPDEST POP PUSH1 0x40 DUP1 MLOAD PUSH1 0x60 DUP2 ADD DUP3 MSTORE DUP4 DUP2 MSTORE PUSH1 0x0 PUSH1 0x20 DUP1 DUP4 ADD DUP3 DUP2 MSTORE TIMESTAMP DUP5 DUP7 ADD SWAP1 DUP2 MSTORE CALLER DUP1 DUP6 MSTORE PUSH1 0x1 DUP1 DUP6 MSTORE DUP8 DUP7 KECCAK256 PUSH1 0x2 DUP1 DUP3 ADD SLOAD DUP4 ADD DUP1 DUP10 MSTORE PUSH1 0x3 DUP4 ADD DUP9 MSTORE DUP11 DUP10 KECCAK256 DUP11 MLOAD DUP2 SSTORE SWAP7 MLOAD DUP8 DUP6 ADD SSTORE SWAP5 MLOAD SWAP6 ADD SWAP5 SWAP1 SWAP5 SSTORE DUP2 DUP7 MSTORE SWAP1 SWAP4 MSTORE DUP2 SLOAD DUP9 ADD SWAP1 SWAP2 SSTORE SWAP4 MLOAD SWAP3 SWAP4 SWAP3 SWAP1 SWAP2 DUP7 ISZERO PUSH2 0x8FC MUL SWAP2 DUP8 SWAP2 DUP2 DUP2 DUP2 DUP6 DUP9 DUP9 CALL SWAP4 POP POP POP POP ISZERO DUP1 ISZERO PUSH2 0x43C JUMPI RETURNDATASIZE PUSH1 0x0 DUP1 RETURNDATACOPY RETURNDATASIZE PUSH1 0x0 REVERT JUMPDEST POP SWAP4 SWAP3 POP POP POP JUMP JUMPDEST PUSH1 0x0 JUMPDEST PUSH1 0x3 SLOAD PUSH1 0xFF DUP3 AND GT PUSH2 0x21C JUMPI PUSH1 0x0 PUSH1 0x2 PUSH1 0x0 PUSH1 0x3 DUP5 PUSH1 0xFF AND DUP2 SLOAD DUP2 LT PUSH2 0x469 JUMPI INVALID JUMPDEST PUSH1 0x0 SWAP2 DUP3 MSTORE PUSH1 0x20 DUP1 DUP4 KECCAK256 SWAP1 SWAP2 ADD SLOAD PUSH1 0x1 PUSH1 0x1 PUSH1 0xA0 SHL SUB AND DUP4 MSTORE DUP3 ADD SWAP3 SWAP1 SWAP3 MSTORE PUSH1 0x40 ADD SWAP1 KECCAK256 SLOAD GT ISZERO PUSH2 0x4C6 JUMPI PUSH1 0x0 PUSH1 0x3 DUP3 PUSH1 0xFF AND DUP2 SLOAD DUP2 LT PUSH2 0x4A6 JUMPI INVALID JUMPDEST PUSH1 0x0 SWAP2 DUP3 MSTORE PUSH1 0x20 DUP1 DUP4 KECCAK256 SWAP1 SWAP2 ADD SLOAD PUSH1 0x1 PUSH1 0x1 PUSH1 0xA0 SHL SUB AND SWAP1 SWAP2 MSTORE PUSH1 0x2 SWAP1 MSTORE POP JUMPDEST PUSH1 0x1 ADD PUSH2 0x447 JUMP JUMPDEST PUSH1 0x40 MLOAD DUP1 PUSH1 0x60 ADD PUSH1 0x40 MSTORE DUP1 PUSH1 0x0 DUP2 MSTORE PUSH1 0x20 ADD PUSH1 0x0 DUP2 MSTORE PUSH1 0x20 ADD PUSH1 0x0 DUP2 MSTORE POP SWAP1 JUMP INVALID LOG2 PUSH5 0x6970667358 0x22 SLT KECCAK256 SIGNEXTEND DIFFICULTY EXTCODESIZE 0x49 SWAP2 DIV ISZERO OR MSTORE PUSH24 0xBC8019829408EAF6B8284BCB4F682FF8C23B6EF5DDBE6473 PUSH16 0x6C634300060C00330000000000000000 ",
  "sha1": "8d6ae78dff7431d2d8c90d3f181c9ece6302c1b4",
  "source": "// SPDX-License-Identifier: GPL-3.0\n\npragma solidity ^0.6.6;\n\n/**\n * @title loan\n * @dev borrow and loan money\n */\n\ncontract Bank {\n\n    struct Borrower {\n        uint amount_borrowed;\n        uint weight;\n        uint loan_count;\n        mapping(uint => Loan) loans;\n    }\n\n    struct Lender {\n        uint amount_lent;\n        uint weight;\n    }\n\n    struct Loan {\n        uint amount_deposited;\n        uint amount_lent;\n        uint timestamp;\n    }\n\n\n    address payable owner;\n    mapping(address => Borrower) borrowers;\n    mapping(address => Lender) lenders;\n\n    address[] public lenders_;\n\n    //fee per second\n    uint FEE =  1 gwei;\n\n    constructor() payable public {\n    }\n\n\n    function deposit(uint256 amount) public payable {\n        require(msg.sender.balance >= amount, \"Insufficient balance.\");\n        lenders_.push(msg.sender);\n        lenders[msg.sender].amount_lent += amount;\n     }\n\n\n    function borrow(uint256 amount) public returns (uint256)  {\n        //User storage sender = users[msg.sender];\n        require(address(this).balance >= amount);\n        Loan memory new_loan = Loan(amount,0, block.timestamp);\n        uint idx = borrowers[msg.sender].loan_count + 1;\n        borrowers[msg.sender].loans[idx] = new_loan;\n        borrowers[msg.sender].amount_borrowed += amount;\n        msg.sender.transfer(amount);\n        return idx;\n     }\n\n\n    function withdraw(uint256 amount) public {\n        require(address(this).balance >= amount);\n        require(lenders[msg.sender].amount_lent >= amount);\n        lenders[msg.sender].amount_lent -= amount;\n        msg.sender.transfer(amount);\n     }\n\n    function repay_full_loan(uint loan_idx) public payable {\n        require(borrowers[msg.sender].amount_borrowed > 0);\n        uint total_fee = (block.timestamp - borrowers[msg.sender].loans[loan_idx].timestamp) * 86400 * FEE;\n        uint total_to_repay = borrowers[msg.sender].amount_borrowed + total_fee;\n        require(msg.sender.balance >= total_to_repay);\n        address(this).call{value:total_to_repay};\n        borrowers[msg.sender].amount_borrowed = 0;\n        Bank.distribute_fees(total_fee);\n     }\n\n     function calculate_weight(address _user_address) public view returns (uint256) {\n        uint weight = lenders[_user_address].amount_lent / address(this).balance;\n        return weight;\n     }\n\n    function total_available_to_borrow() public view returns (uint256) {\n        return address(this).balance;\n     }\n\n    function distribute_fees(uint fees_paid) internal {\n        for(uint8 i=0; i<= lenders_.length; i++){\n            if (lenders[lenders_[i]].amount_lent>0) {\n                address addr   = lenders_[i];\n                uint256 weight = lenders[addr].weight;\n                uint256 fee_share = fees_paid * weight;\n                addr.call{value:fee_share};\n            }\n        }\n    }\n\n    receive() external payable { }\n\n}\n",
  "sourcePath": "contracts/Bank.sol",
  "type": "contract"
}