{
  "abi": [
    {
      "inputs": [],
      "stateMutability": "payable",
      "type": "constructor"
    },
    {
      "inputs": [
        {
          "internalType": "address",
          "name": "",
          "type": "address"
        }
      ],
      "name": "accumulated_earnings",
      "outputs": [
        {
          "internalType": "uint256",
          "name": "",
          "type": "uint256"
        }
      ],
      "stateMutability": "view",
      "type": "function"
    },
    {
      "inputs": [
        {
          "internalType": "uint256",
          "name": "amount",
          "type": "uint256"
        }
      ],
      "name": "borrow",
      "outputs": [],
      "stateMutability": "nonpayable",
      "type": "function"
    },
    {
      "inputs": [
        {
          "internalType": "address",
          "name": "",
          "type": "address"
        }
      ],
      "name": "borrowers",
      "outputs": [
        {
          "internalType": "uint256",
          "name": "amount_borrowed",
          "type": "uint256"
        },
        {
          "internalType": "uint256",
          "name": "weight",
          "type": "uint256"
        },
        {
          "internalType": "uint256",
          "name": "loan_count",
          "type": "uint256"
        }
      ],
      "stateMutability": "view",
      "type": "function"
    },
    {
      "inputs": [
        {
          "internalType": "address",
          "name": "_lender_address",
          "type": "address"
        }
      ],
      "name": "calculate_weight",
      "outputs": [
        {
          "internalType": "uint256",
          "name": "",
          "type": "uint256"
        }
      ],
      "stateMutability": "view",
      "type": "function"
    },
    {
      "inputs": [
        {
          "internalType": "address",
          "name": "_lender_address",
          "type": "address"
        }
      ],
      "name": "calculate_weight_a",
      "outputs": [
        {
          "internalType": "uint256",
          "name": "",
          "type": "uint256"
        }
      ],
      "stateMutability": "view",
      "type": "function"
    },
    {
      "inputs": [
        {
          "internalType": "uint256",
          "name": "amount",
          "type": "uint256"
        }
      ],
      "name": "deposit",
      "outputs": [],
      "stateMutability": "payable",
      "type": "function"
    },
    {
      "inputs": [],
      "name": "get_accumulated_earnings",
      "outputs": [
        {
          "internalType": "uint256",
          "name": "",
          "type": "uint256"
        }
      ],
      "stateMutability": "view",
      "type": "function"
    },
    {
      "inputs": [],
      "name": "get_borrowed_amount",
      "outputs": [
        {
          "internalType": "uint256",
          "name": "",
          "type": "uint256"
        }
      ],
      "stateMutability": "view",
      "type": "function"
    },
    {
      "inputs": [
        {
          "internalType": "uint256",
          "name": "loan_id",
          "type": "uint256"
        }
      ],
      "name": "get_fee_accumulated_on_loan",
      "outputs": [
        {
          "internalType": "uint256",
          "name": "",
          "type": "uint256"
        }
      ],
      "stateMutability": "view",
      "type": "function"
    },
    {
      "inputs": [
        {
          "internalType": "uint256",
          "name": "i",
          "type": "uint256"
        }
      ],
      "name": "get_lender_address",
      "outputs": [
        {
          "internalType": "address",
          "name": "",
          "type": "address"
        }
      ],
      "stateMutability": "view",
      "type": "function"
    },
    {
      "inputs": [],
      "name": "get_lender_weight",
      "outputs": [
        {
          "internalType": "uint256",
          "name": "",
          "type": "uint256"
        }
      ],
      "stateMutability": "view",
      "type": "function"
    },
    {
      "inputs": [],
      "name": "get_lent_amount",
      "outputs": [
        {
          "internalType": "uint256",
          "name": "",
          "type": "uint256"
        }
      ],
      "stateMutability": "view",
      "type": "function"
    },
    {
      "inputs": [
        {
          "internalType": "uint256",
          "name": "loan_id",
          "type": "uint256"
        }
      ],
      "name": "get_loan_amount",
      "outputs": [
        {
          "internalType": "uint256",
          "name": "",
          "type": "uint256"
        }
      ],
      "stateMutability": "view",
      "type": "function"
    },
    {
      "inputs": [
        {
          "internalType": "uint256",
          "name": "loan_id",
          "type": "uint256"
        }
      ],
      "name": "get_loan_timestamp",
      "outputs": [
        {
          "internalType": "uint256",
          "name": "",
          "type": "uint256"
        }
      ],
      "stateMutability": "view",
      "type": "function"
    },
    {
      "inputs": [],
      "name": "get_loans_count",
      "outputs": [
        {
          "internalType": "uint256",
          "name": "",
          "type": "uint256"
        }
      ],
      "stateMutability": "view",
      "type": "function"
    },
    {
      "inputs": [],
      "name": "get_number_of_lenders",
      "outputs": [
        {
          "internalType": "uint256",
          "name": "",
          "type": "uint256"
        }
      ],
      "stateMutability": "view",
      "type": "function"
    },
    {
      "inputs": [],
      "name": "get_total_supply",
      "outputs": [
        {
          "internalType": "uint256",
          "name": "",
          "type": "uint256"
        }
      ],
      "stateMutability": "view",
      "type": "function"
    },
    {
      "inputs": [
        {
          "internalType": "address",
          "name": "",
          "type": "address"
        }
      ],
      "name": "lenders",
      "outputs": [
        {
          "internalType": "uint256",
          "name": "amount_lent",
          "type": "uint256"
        },
        {
          "internalType": "uint256",
          "name": "last_weight",
          "type": "uint256"
        }
      ],
      "stateMutability": "view",
      "type": "function"
    },
    {
      "inputs": [
        {
          "internalType": "uint256",
          "name": "",
          "type": "uint256"
        }
      ],
      "name": "lenders_",
      "outputs": [
        {
          "internalType": "address",
          "name": "",
          "type": "address"
        }
      ],
      "stateMutability": "view",
      "type": "function"
    },
    {
      "inputs": [
        {
          "internalType": "uint256",
          "name": "loan_idx",
          "type": "uint256"
        }
      ],
      "name": "repay_full_loan",
      "outputs": [],
      "stateMutability": "payable",
      "type": "function"
    },
    {
      "inputs": [],
      "name": "total_available_to_borrow",
      "outputs": [
        {
          "internalType": "uint256",
          "name": "",
          "type": "uint256"
        }
      ],
      "stateMutability": "view",
      "type": "function"
    },
    {
      "inputs": [],
      "name": "total_supply",
      "outputs": [
        {
          "internalType": "uint256",
          "name": "",
          "type": "uint256"
        }
      ],
      "stateMutability": "view",
      "type": "function"
    },
    {
      "inputs": [
        {
          "internalType": "uint256",
          "name": "amount",
          "type": "uint256"
        }
      ],
      "name": "withdraw",
      "outputs": [],
      "stateMutability": "nonpayable",
      "type": "function"
    },
    {
      "inputs": [],
      "name": "withdraw_fees",
      "outputs": [],
      "stateMutability": "nonpayable",
      "type": "function"
    },
    {
      "stateMutability": "payable",
      "type": "receive"
    }
  ],
  "bytecode": "6080604052633b9aca00600755610b928061001b6000396000f3fe60806040526004361061014f5760003560e01c8063a60f4e3a116100b6578063d274c3f51161006f578063d274c3f514610442578063d59ff82d14610457578063d9d585b214610481578063e37997c714610496578063f8a903c6146104c9578063f923058c146104de57610156565b8063a60f4e3a14610338578063b48cc42214610362578063b6b55f2514610377578063b909e4ee14610394578063bf5d50c4146103c7578063c5ebeaec1461041857610156565b806343e4b3f41161010857806343e4b3f41461026a57806359e1016f1461027f5780636231e72b146102a9578063685e57e0146102be578063689f7c96146102f15780639f8680511461031b57610156565b806305291a011461015b578063060096bf146101a157806312eef87c146101c857806328fd10d7146101dd5780632e1a7d4d146102295780633940e9ee1461025557610156565b3661015657005b600080fd5b34801561016757600080fd5b506101856004803603602081101561017e57600080fd5b50356104f3565b604080516001600160a01b039092168252519081900360200190f35b3480156101ad57600080fd5b506101b661051d565b60408051918252519081900360200190f35b3480156101d457600080fd5b506101b6610521565b3480156101e957600080fd5b506102106004803603602081101561020057600080fd5b50356001600160a01b0316610534565b6040805192835260208301919091528051918290030190f35b34801561023557600080fd5b506102536004803603602081101561024c57600080fd5b503561054d565b005b34801561026157600080fd5b506101b66105c2565b34801561027657600080fd5b506101b66105c8565b34801561028b57600080fd5b506101b6600480360360208110156102a257600080fd5b50356105db565b3480156102b557600080fd5b506101b661060f565b3480156102ca57600080fd5b506101b6600480360360208110156102e157600080fd5b50356001600160a01b0316610626565b3480156102fd57600080fd5b506101856004803603602081101561031457600080fd5b5035610638565b6102536004803603602081101561033157600080fd5b503561065f565b34801561034457600080fd5b506101b66004803603602081101561035b57600080fd5b503561072e565b34801561036e57600080fd5b506101b6610762565b6102536004803603602081101561038d57600080fd5b5035610775565b3480156103a057600080fd5b506101b6600480360360208110156103b757600080fd5b50356001600160a01b03166107fa565b3480156103d357600080fd5b506103fa600480360360208110156103ea57600080fd5b50356001600160a01b031661082c565b60408051938452602084019290925282820152519081900360600190f35b34801561042457600080fd5b506102536004803603602081101561043b57600080fd5b503561084d565b34801561044e57600080fd5b506102536108b7565b34801561046357600080fd5b506101b66004803603602081101561047a57600080fd5b5035610911565b34801561048d57600080fd5b506101b661095f565b3480156104a257600080fd5b506101b6600480360360208110156104b957600080fd5b50356001600160a01b0316610975565b3480156104d557600080fd5b506101b6610990565b3480156104ea57600080fd5b506101b6610996565b60006005828154811061050257fe5b6000918252602090912001546001600160a01b031692915050565b4790565b3360009081526001602052604090205490565b6001602081905260009182526040909120805491015482565b8047101561055a57600080fd5b3360009081526001602052604090205481111561057657600080fd5b33600081815260016020526040808220805485900390556006805485900390555183156108fc0291849190818181858888f193505050501580156105be573d6000803e3d6000fd5b5050565b60065481565b3360009081526020819052604090205490565b3360009081526003602052604081208054839081106105f657fe5b9060005260206000209060030201600001549050919050565b336000908152600160208190526040909120015490565b60026020526000908152604090205481565b6005818154811061064557fe5b6000918252602090912001546001600160a01b0316905081565b3360009081526020819052604090205461067857600080fd5b600061068382610911565b33600090815260036020526040812080549293509091839190859081106106a657fe5b906000526020600020906003020160000154019050803410156106c857600080fd5b8034111561071357336000818152602081905260408082208290555134849003929183156108fc02918491818181858888f19350505050158015610710573d6000803e3d6000fd5b50505b6000821161072057600080fd5b6107298261099c565b505050565b33600090815260036020526040812080548390811061074957fe5b9060005260206000209060030201600201549050919050565b3360009081526002602052604090205490565b33318111156107c3576040805162461bcd60e51b815260206004820152601560248201527424b739bab33334b1b4b2b73a103130b630b731b29760591b604482015290519081900360640190fd5b6107cb610b3b565b506040805160608101825282815260006020820152429181019190915260068054830190556105be3383610a7e565b6006546001600160a01b038216600090815260016020526040812054909182916064028161082457fe5b049392505050565b60006020819052908152604090208054600182015460029092015490919083565b8047101561085a57600080fd5b610862610b3b565b60405180606001604052808381526020016000815260200142815250905061088a8183610adf565b604051339083156108fc029084906000818181858888f19350505050158015610729573d6000803e3d6000fd5b336000908152600260205260409020546108d057600080fd5b33600081815260026020526040808220805490839055905190929183156108fc02918491818181858888f193505050501580156105be573d6000803e3d6000fd5b33600090815260036020526040812080548291908490811061092f57fe5b90600052602060002090600302016002015490506000811161095057600080fd5b60075442919091030292915050565b3360009081526020819052604090206002015490565b6001600160a01b031660009081526001602052604090205490565b60055490565b60065490565b600081116109a957600080fd5b60005b6005548110156105be57600060016000600584815481106109c957fe5b60009182526020808320909101546001600160a01b031683528201929092526040019020541115610a765760006109ff826104f3565b90506000610a0c826107fa565b9050806001600060058681548110610a2057fe5b60009182526020808320909101546001600160a01b0316835282019290925260400181206001019190915560648583026001600160a01b0390941660009081526002602052604090208054919094040190925550505b6001016109ac565b6005805460018181019092557f036b6384b5eca791c62761152d0c79bb0604c104a5fb6f4eb0703f3154bb3db00180546001600160a01b039094166001600160a01b0319909416841790556000928352602052604090912080549091019055565b336000908152602081815260408083206002808201805460019081019091558254909601909155600380845282852080548088018255908652948490208751959091020193845591850151938301939093559290910151910155565b6040518060600160405280600081526020016000815260200160008152509056fea26469706673582212204c3d86ca30a750a9f1b7642ffcd5583a6efe1e1033884cb756c90701bb4ee3df64736f6c634300060c0033",
  "bytecodeSha1": "8c698f1049d7db92d68e610c47e685d9e62b1048",
  "compiler": {
    "evm_version": "istanbul",
    "optimizer": {
      "enabled": true,
      "runs": 200
    },
    "version": "0.6.12+commit.27d51765"
  },
  "contractName": "Bank",
  "language": "Solidity",
  "natspec": {
    "details": "borrow and loan money",
    "kind": "dev",
    "methods": {},
    "title": "loan",
    "version": 1
  },
  "opcodes": "PUSH1 0x80 PUSH1 0x40 MSTORE PUSH1 0x4 CALLDATASIZE LT PUSH2 0x14F JUMPI PUSH1 0x0 CALLDATALOAD PUSH1 0xE0 SHR DUP1 PUSH4 0xA60F4E3A GT PUSH2 0xB6 JUMPI DUP1 PUSH4 0xD274C3F5 GT PUSH2 0x6F JUMPI DUP1 PUSH4 0xD274C3F5 EQ PUSH2 0x442 JUMPI DUP1 PUSH4 0xD59FF82D EQ PUSH2 0x457 JUMPI DUP1 PUSH4 0xD9D585B2 EQ PUSH2 0x481 JUMPI DUP1 PUSH4 0xE37997C7 EQ PUSH2 0x496 JUMPI DUP1 PUSH4 0xF8A903C6 EQ PUSH2 0x4C9 JUMPI DUP1 PUSH4 0xF923058C EQ PUSH2 0x4DE JUMPI PUSH2 0x156 JUMP JUMPDEST DUP1 PUSH4 0xA60F4E3A EQ PUSH2 0x338 JUMPI DUP1 PUSH4 0xB48CC422 EQ PUSH2 0x362 JUMPI DUP1 PUSH4 0xB6B55F25 EQ PUSH2 0x377 JUMPI DUP1 PUSH4 0xB909E4EE EQ PUSH2 0x394 JUMPI DUP1 PUSH4 0xBF5D50C4 EQ PUSH2 0x3C7 JUMPI DUP1 PUSH4 0xC5EBEAEC EQ PUSH2 0x418 JUMPI PUSH2 0x156 JUMP JUMPDEST DUP1 PUSH4 0x43E4B3F4 GT PUSH2 0x108 JUMPI DUP1 PUSH4 0x43E4B3F4 EQ PUSH2 0x26A JUMPI DUP1 PUSH4 0x59E1016F EQ PUSH2 0x27F JUMPI DUP1 PUSH4 0x6231E72B EQ PUSH2 0x2A9 JUMPI DUP1 PUSH4 0x685E57E0 EQ PUSH2 0x2BE JUMPI DUP1 PUSH4 0x689F7C96 EQ PUSH2 0x2F1 JUMPI DUP1 PUSH4 0x9F868051 EQ PUSH2 0x31B JUMPI PUSH2 0x156 JUMP JUMPDEST DUP1 PUSH4 0x5291A01 EQ PUSH2 0x15B JUMPI DUP1 PUSH4 0x60096BF EQ PUSH2 0x1A1 JUMPI DUP1 PUSH4 0x12EEF87C EQ PUSH2 0x1C8 JUMPI DUP1 PUSH4 0x28FD10D7 EQ PUSH2 0x1DD JUMPI DUP1 PUSH4 0x2E1A7D4D EQ PUSH2 0x229 JUMPI DUP1 PUSH4 0x3940E9EE EQ PUSH2 0x255 JUMPI PUSH2 0x156 JUMP JUMPDEST CALLDATASIZE PUSH2 0x156 JUMPI STOP JUMPDEST PUSH1 0x0 DUP1 REVERT JUMPDEST CALLVALUE DUP1 ISZERO PUSH2 0x167 JUMPI PUSH1 0x0 DUP1 REVERT JUMPDEST POP PUSH2 0x185 PUSH1 0x4 DUP1 CALLDATASIZE SUB PUSH1 0x20 DUP2 LT ISZERO PUSH2 0x17E JUMPI PUSH1 0x0 DUP1 REVERT JUMPDEST POP CALLDATALOAD PUSH2 0x4F3 JUMP JUMPDEST PUSH1 0x40 DUP1 MLOAD PUSH1 0x1 PUSH1 0x1 PUSH1 0xA0 SHL SUB SWAP1 SWAP3 AND DUP3 MSTORE MLOAD SWAP1 DUP2 SWAP1 SUB PUSH1 0x20 ADD SWAP1 RETURN JUMPDEST CALLVALUE DUP1 ISZERO PUSH2 0x1AD JUMPI PUSH1 0x0 DUP1 REVERT JUMPDEST POP PUSH2 0x1B6 PUSH2 0x51D JUMP JUMPDEST PUSH1 0x40 DUP1 MLOAD SWAP2 DUP3 MSTORE MLOAD SWAP1 DUP2 SWAP1 SUB PUSH1 0x20 ADD SWAP1 RETURN JUMPDEST CALLVALUE DUP1 ISZERO PUSH2 0x1D4 JUMPI PUSH1 0x0 DUP1 REVERT JUMPDEST POP PUSH2 0x1B6 PUSH2 0x521 JUMP JUMPDEST CALLVALUE DUP1 ISZERO PUSH2 0x1E9 JUMPI PUSH1 0x0 DUP1 REVERT JUMPDEST POP PUSH2 0x210 PUSH1 0x4 DUP1 CALLDATASIZE SUB PUSH1 0x20 DUP2 LT ISZERO PUSH2 0x200 JUMPI PUSH1 0x0 DUP1 REVERT JUMPDEST POP CALLDATALOAD PUSH1 0x1 PUSH1 0x1 PUSH1 0xA0 SHL SUB AND PUSH2 0x534 JUMP JUMPDEST PUSH1 0x40 DUP1 MLOAD SWAP3 DUP4 MSTORE PUSH1 0x20 DUP4 ADD SWAP2 SWAP1 SWAP2 MSTORE DUP1 MLOAD SWAP2 DUP3 SWAP1 SUB ADD SWAP1 RETURN JUMPDEST CALLVALUE DUP1 ISZERO PUSH2 0x235 JUMPI PUSH1 0x0 DUP1 REVERT JUMPDEST POP PUSH2 0x253 PUSH1 0x4 DUP1 CALLDATASIZE SUB PUSH1 0x20 DUP2 LT ISZERO PUSH2 0x24C JUMPI PUSH1 0x0 DUP1 REVERT JUMPDEST POP CALLDATALOAD PUSH2 0x54D JUMP JUMPDEST STOP JUMPDEST CALLVALUE DUP1 ISZERO PUSH2 0x261 JUMPI PUSH1 0x0 DUP1 REVERT JUMPDEST POP PUSH2 0x1B6 PUSH2 0x5C2 JUMP JUMPDEST CALLVALUE DUP1 ISZERO PUSH2 0x276 JUMPI PUSH1 0x0 DUP1 REVERT JUMPDEST POP PUSH2 0x1B6 PUSH2 0x5C8 JUMP JUMPDEST CALLVALUE DUP1 ISZERO PUSH2 0x28B JUMPI PUSH1 0x0 DUP1 REVERT JUMPDEST POP PUSH2 0x1B6 PUSH1 0x4 DUP1 CALLDATASIZE SUB PUSH1 0x20 DUP2 LT ISZERO PUSH2 0x2A2 JUMPI PUSH1 0x0 DUP1 REVERT JUMPDEST POP CALLDATALOAD PUSH2 0x5DB JUMP JUMPDEST CALLVALUE DUP1 ISZERO PUSH2 0x2B5 JUMPI PUSH1 0x0 DUP1 REVERT JUMPDEST POP PUSH2 0x1B6 PUSH2 0x60F JUMP JUMPDEST CALLVALUE DUP1 ISZERO PUSH2 0x2CA JUMPI PUSH1 0x0 DUP1 REVERT JUMPDEST POP PUSH2 0x1B6 PUSH1 0x4 DUP1 CALLDATASIZE SUB PUSH1 0x20 DUP2 LT ISZERO PUSH2 0x2E1 JUMPI PUSH1 0x0 DUP1 REVERT JUMPDEST POP CALLDATALOAD PUSH1 0x1 PUSH1 0x1 PUSH1 0xA0 SHL SUB AND PUSH2 0x626 JUMP JUMPDEST CALLVALUE DUP1 ISZERO PUSH2 0x2FD JUMPI PUSH1 0x0 DUP1 REVERT JUMPDEST POP PUSH2 0x185 PUSH1 0x4 DUP1 CALLDATASIZE SUB PUSH1 0x20 DUP2 LT ISZERO PUSH2 0x314 JUMPI PUSH1 0x0 DUP1 REVERT JUMPDEST POP CALLDATALOAD PUSH2 0x638 JUMP JUMPDEST PUSH2 0x253 PUSH1 0x4 DUP1 CALLDATASIZE SUB PUSH1 0x20 DUP2 LT ISZERO PUSH2 0x331 JUMPI PUSH1 0x0 DUP1 REVERT JUMPDEST POP CALLDATALOAD PUSH2 0x65F JUMP JUMPDEST CALLVALUE DUP1 ISZERO PUSH2 0x344 JUMPI PUSH1 0x0 DUP1 REVERT JUMPDEST POP PUSH2 0x1B6 PUSH1 0x4 DUP1 CALLDATASIZE SUB PUSH1 0x20 DUP2 LT ISZERO PUSH2 0x35B JUMPI PUSH1 0x0 DUP1 REVERT JUMPDEST POP CALLDATALOAD PUSH2 0x72E JUMP JUMPDEST CALLVALUE DUP1 ISZERO PUSH2 0x36E JUMPI PUSH1 0x0 DUP1 REVERT JUMPDEST POP PUSH2 0x1B6 PUSH2 0x762 JUMP JUMPDEST PUSH2 0x253 PUSH1 0x4 DUP1 CALLDATASIZE SUB PUSH1 0x20 DUP2 LT ISZERO PUSH2 0x38D JUMPI PUSH1 0x0 DUP1 REVERT JUMPDEST POP CALLDATALOAD PUSH2 0x775 JUMP JUMPDEST CALLVALUE DUP1 ISZERO PUSH2 0x3A0 JUMPI PUSH1 0x0 DUP1 REVERT JUMPDEST POP PUSH2 0x1B6 PUSH1 0x4 DUP1 CALLDATASIZE SUB PUSH1 0x20 DUP2 LT ISZERO PUSH2 0x3B7 JUMPI PUSH1 0x0 DUP1 REVERT JUMPDEST POP CALLDATALOAD PUSH1 0x1 PUSH1 0x1 PUSH1 0xA0 SHL SUB AND PUSH2 0x7FA JUMP JUMPDEST CALLVALUE DUP1 ISZERO PUSH2 0x3D3 JUMPI PUSH1 0x0 DUP1 REVERT JUMPDEST POP PUSH2 0x3FA PUSH1 0x4 DUP1 CALLDATASIZE SUB PUSH1 0x20 DUP2 LT ISZERO PUSH2 0x3EA JUMPI PUSH1 0x0 DUP1 REVERT JUMPDEST POP CALLDATALOAD PUSH1 0x1 PUSH1 0x1 PUSH1 0xA0 SHL SUB AND PUSH2 0x82C JUMP JUMPDEST PUSH1 0x40 DUP1 MLOAD SWAP4 DUP5 MSTORE PUSH1 0x20 DUP5 ADD SWAP3 SWAP1 SWAP3 MSTORE DUP3 DUP3 ADD MSTORE MLOAD SWAP1 DUP2 SWAP1 SUB PUSH1 0x60 ADD SWAP1 RETURN JUMPDEST CALLVALUE DUP1 ISZERO PUSH2 0x424 JUMPI PUSH1 0x0 DUP1 REVERT JUMPDEST POP PUSH2 0x253 PUSH1 0x4 DUP1 CALLDATASIZE SUB PUSH1 0x20 DUP2 LT ISZERO PUSH2 0x43B JUMPI PUSH1 0x0 DUP1 REVERT JUMPDEST POP CALLDATALOAD PUSH2 0x84D JUMP JUMPDEST CALLVALUE DUP1 ISZERO PUSH2 0x44E JUMPI PUSH1 0x0 DUP1 REVERT JUMPDEST POP PUSH2 0x253 PUSH2 0x8B7 JUMP JUMPDEST CALLVALUE DUP1 ISZERO PUSH2 0x463 JUMPI PUSH1 0x0 DUP1 REVERT JUMPDEST POP PUSH2 0x1B6 PUSH1 0x4 DUP1 CALLDATASIZE SUB PUSH1 0x20 DUP2 LT ISZERO PUSH2 0x47A JUMPI PUSH1 0x0 DUP1 REVERT JUMPDEST POP CALLDATALOAD PUSH2 0x911 JUMP JUMPDEST CALLVALUE DUP1 ISZERO PUSH2 0x48D JUMPI PUSH1 0x0 DUP1 REVERT JUMPDEST POP PUSH2 0x1B6 PUSH2 0x95F JUMP JUMPDEST CALLVALUE DUP1 ISZERO PUSH2 0x4A2 JUMPI PUSH1 0x0 DUP1 REVERT JUMPDEST POP PUSH2 0x1B6 PUSH1 0x4 DUP1 CALLDATASIZE SUB PUSH1 0x20 DUP2 LT ISZERO PUSH2 0x4B9 JUMPI PUSH1 0x0 DUP1 REVERT JUMPDEST POP CALLDATALOAD PUSH1 0x1 PUSH1 0x1 PUSH1 0xA0 SHL SUB AND PUSH2 0x975 JUMP JUMPDEST CALLVALUE DUP1 ISZERO PUSH2 0x4D5 JUMPI PUSH1 0x0 DUP1 REVERT JUMPDEST POP PUSH2 0x1B6 PUSH2 0x990 JUMP JUMPDEST CALLVALUE DUP1 ISZERO PUSH2 0x4EA JUMPI PUSH1 0x0 DUP1 REVERT JUMPDEST POP PUSH2 0x1B6 PUSH2 0x996 JUMP JUMPDEST PUSH1 0x0 PUSH1 0x5 DUP3 DUP2 SLOAD DUP2 LT PUSH2 0x502 JUMPI INVALID JUMPDEST PUSH1 0x0 SWAP2 DUP3 MSTORE PUSH1 0x20 SWAP1 SWAP2 KECCAK256 ADD SLOAD PUSH1 0x1 PUSH1 0x1 PUSH1 0xA0 SHL SUB AND SWAP3 SWAP2 POP POP JUMP JUMPDEST SELFBALANCE SWAP1 JUMP JUMPDEST CALLER PUSH1 0x0 SWAP1 DUP2 MSTORE PUSH1 0x1 PUSH1 0x20 MSTORE PUSH1 0x40 SWAP1 KECCAK256 SLOAD SWAP1 JUMP JUMPDEST PUSH1 0x1 PUSH1 0x20 DUP2 SWAP1 MSTORE PUSH1 0x0 SWAP2 DUP3 MSTORE PUSH1 0x40 SWAP1 SWAP2 KECCAK256 DUP1 SLOAD SWAP2 ADD SLOAD DUP3 JUMP JUMPDEST DUP1 SELFBALANCE LT ISZERO PUSH2 0x55A JUMPI PUSH1 0x0 DUP1 REVERT JUMPDEST CALLER PUSH1 0x0 SWAP1 DUP2 MSTORE PUSH1 0x1 PUSH1 0x20 MSTORE PUSH1 0x40 SWAP1 KECCAK256 SLOAD DUP2 GT ISZERO PUSH2 0x576 JUMPI PUSH1 0x0 DUP1 REVERT JUMPDEST CALLER PUSH1 0x0 DUP2 DUP2 MSTORE PUSH1 0x1 PUSH1 0x20 MSTORE PUSH1 0x40 DUP1 DUP3 KECCAK256 DUP1 SLOAD DUP6 SWAP1 SUB SWAP1 SSTORE PUSH1 0x6 DUP1 SLOAD DUP6 SWAP1 SUB SWAP1 SSTORE MLOAD DUP4 ISZERO PUSH2 0x8FC MUL SWAP2 DUP5 SWAP2 SWAP1 DUP2 DUP2 DUP2 DUP6 DUP9 DUP9 CALL SWAP4 POP POP POP POP ISZERO DUP1 ISZERO PUSH2 0x5BE JUMPI RETURNDATASIZE PUSH1 0x0 DUP1 RETURNDATACOPY RETURNDATASIZE PUSH1 0x0 REVERT JUMPDEST POP POP JUMP JUMPDEST PUSH1 0x6 SLOAD DUP2 JUMP JUMPDEST CALLER PUSH1 0x0 SWAP1 DUP2 MSTORE PUSH1 0x20 DUP2 SWAP1 MSTORE PUSH1 0x40 SWAP1 KECCAK256 SLOAD SWAP1 JUMP JUMPDEST CALLER PUSH1 0x0 SWAP1 DUP2 MSTORE PUSH1 0x3 PUSH1 0x20 MSTORE PUSH1 0x40 DUP2 KECCAK256 DUP1 SLOAD DUP4 SWAP1 DUP2 LT PUSH2 0x5F6 JUMPI INVALID JUMPDEST SWAP1 PUSH1 0x0 MSTORE PUSH1 0x20 PUSH1 0x0 KECCAK256 SWAP1 PUSH1 0x3 MUL ADD PUSH1 0x0 ADD SLOAD SWAP1 POP SWAP2 SWAP1 POP JUMP JUMPDEST CALLER PUSH1 0x0 SWAP1 DUP2 MSTORE PUSH1 0x1 PUSH1 0x20 DUP2 SWAP1 MSTORE PUSH1 0x40 SWAP1 SWAP2 KECCAK256 ADD SLOAD SWAP1 JUMP JUMPDEST PUSH1 0x2 PUSH1 0x20 MSTORE PUSH1 0x0 SWAP1 DUP2 MSTORE PUSH1 0x40 SWAP1 KECCAK256 SLOAD DUP2 JUMP JUMPDEST PUSH1 0x5 DUP2 DUP2 SLOAD DUP2 LT PUSH2 0x645 JUMPI INVALID JUMPDEST PUSH1 0x0 SWAP2 DUP3 MSTORE PUSH1 0x20 SWAP1 SWAP2 KECCAK256 ADD SLOAD PUSH1 0x1 PUSH1 0x1 PUSH1 0xA0 SHL SUB AND SWAP1 POP DUP2 JUMP JUMPDEST CALLER PUSH1 0x0 SWAP1 DUP2 MSTORE PUSH1 0x20 DUP2 SWAP1 MSTORE PUSH1 0x40 SWAP1 KECCAK256 SLOAD PUSH2 0x678 JUMPI PUSH1 0x0 DUP1 REVERT JUMPDEST PUSH1 0x0 PUSH2 0x683 DUP3 PUSH2 0x911 JUMP JUMPDEST CALLER PUSH1 0x0 SWAP1 DUP2 MSTORE PUSH1 0x3 PUSH1 0x20 MSTORE PUSH1 0x40 DUP2 KECCAK256 DUP1 SLOAD SWAP3 SWAP4 POP SWAP1 SWAP2 DUP4 SWAP2 SWAP1 DUP6 SWAP1 DUP2 LT PUSH2 0x6A6 JUMPI INVALID JUMPDEST SWAP1 PUSH1 0x0 MSTORE PUSH1 0x20 PUSH1 0x0 KECCAK256 SWAP1 PUSH1 0x3 MUL ADD PUSH1 0x0 ADD SLOAD ADD SWAP1 POP DUP1 CALLVALUE LT ISZERO PUSH2 0x6C8 JUMPI PUSH1 0x0 DUP1 REVERT JUMPDEST DUP1 CALLVALUE GT ISZERO PUSH2 0x713 JUMPI CALLER PUSH1 0x0 DUP2 DUP2 MSTORE PUSH1 0x20 DUP2 SWAP1 MSTORE PUSH1 0x40 DUP1 DUP3 KECCAK256 DUP3 SWAP1 SSTORE MLOAD CALLVALUE DUP5 SWAP1 SUB SWAP3 SWAP2 DUP4 ISZERO PUSH2 0x8FC MUL SWAP2 DUP5 SWAP2 DUP2 DUP2 DUP2 DUP6 DUP9 DUP9 CALL SWAP4 POP POP POP POP ISZERO DUP1 ISZERO PUSH2 0x710 JUMPI RETURNDATASIZE PUSH1 0x0 DUP1 RETURNDATACOPY RETURNDATASIZE PUSH1 0x0 REVERT JUMPDEST POP POP JUMPDEST PUSH1 0x0 DUP3 GT PUSH2 0x720 JUMPI PUSH1 0x0 DUP1 REVERT JUMPDEST PUSH2 0x729 DUP3 PUSH2 0x99C JUMP JUMPDEST POP POP POP JUMP JUMPDEST CALLER PUSH1 0x0 SWAP1 DUP2 MSTORE PUSH1 0x3 PUSH1 0x20 MSTORE PUSH1 0x40 DUP2 KECCAK256 DUP1 SLOAD DUP4 SWAP1 DUP2 LT PUSH2 0x749 JUMPI INVALID JUMPDEST SWAP1 PUSH1 0x0 MSTORE PUSH1 0x20 PUSH1 0x0 KECCAK256 SWAP1 PUSH1 0x3 MUL ADD PUSH1 0x2 ADD SLOAD SWAP1 POP SWAP2 SWAP1 POP JUMP JUMPDEST CALLER PUSH1 0x0 SWAP1 DUP2 MSTORE PUSH1 0x2 PUSH1 0x20 MSTORE PUSH1 0x40 SWAP1 KECCAK256 SLOAD SWAP1 JUMP JUMPDEST CALLER BALANCE DUP2 GT ISZERO PUSH2 0x7C3 JUMPI PUSH1 0x40 DUP1 MLOAD PUSH3 0x461BCD PUSH1 0xE5 SHL DUP2 MSTORE PUSH1 0x20 PUSH1 0x4 DUP3 ADD MSTORE PUSH1 0x15 PUSH1 0x24 DUP3 ADD MSTORE PUSH21 0x24B739BAB33334B1B4B2B73A103130B630B731B297 PUSH1 0x59 SHL PUSH1 0x44 DUP3 ADD MSTORE SWAP1 MLOAD SWAP1 DUP2 SWAP1 SUB PUSH1 0x64 ADD SWAP1 REVERT JUMPDEST PUSH2 0x7CB PUSH2 0xB3B JUMP JUMPDEST POP PUSH1 0x40 DUP1 MLOAD PUSH1 0x60 DUP2 ADD DUP3 MSTORE DUP3 DUP2 MSTORE PUSH1 0x0 PUSH1 0x20 DUP3 ADD MSTORE TIMESTAMP SWAP2 DUP2 ADD SWAP2 SWAP1 SWAP2 MSTORE PUSH1 0x6 DUP1 SLOAD DUP4 ADD SWAP1 SSTORE PUSH2 0x5BE CALLER DUP4 PUSH2 0xA7E JUMP JUMPDEST PUSH1 0x6 SLOAD PUSH1 0x1 PUSH1 0x1 PUSH1 0xA0 SHL SUB DUP3 AND PUSH1 0x0 SWAP1 DUP2 MSTORE PUSH1 0x1 PUSH1 0x20 MSTORE PUSH1 0x40 DUP2 KECCAK256 SLOAD SWAP1 SWAP2 DUP3 SWAP2 PUSH1 0x64 MUL DUP2 PUSH2 0x824 JUMPI INVALID JUMPDEST DIV SWAP4 SWAP3 POP POP POP JUMP JUMPDEST PUSH1 0x0 PUSH1 0x20 DUP2 SWAP1 MSTORE SWAP1 DUP2 MSTORE PUSH1 0x40 SWAP1 KECCAK256 DUP1 SLOAD PUSH1 0x1 DUP3 ADD SLOAD PUSH1 0x2 SWAP1 SWAP3 ADD SLOAD SWAP1 SWAP2 SWAP1 DUP4 JUMP JUMPDEST DUP1 SELFBALANCE LT ISZERO PUSH2 0x85A JUMPI PUSH1 0x0 DUP1 REVERT JUMPDEST PUSH2 0x862 PUSH2 0xB3B JUMP JUMPDEST PUSH1 0x40 MLOAD DUP1 PUSH1 0x60 ADD PUSH1 0x40 MSTORE DUP1 DUP4 DUP2 MSTORE PUSH1 0x20 ADD PUSH1 0x0 DUP2 MSTORE PUSH1 0x20 ADD TIMESTAMP DUP2 MSTORE POP SWAP1 POP PUSH2 0x88A DUP2 DUP4 PUSH2 0xADF JUMP JUMPDEST PUSH1 0x40 MLOAD CALLER SWAP1 DUP4 ISZERO PUSH2 0x8FC MUL SWAP1 DUP5 SWAP1 PUSH1 0x0 DUP2 DUP2 DUP2 DUP6 DUP9 DUP9 CALL SWAP4 POP POP POP POP ISZERO DUP1 ISZERO PUSH2 0x729 JUMPI RETURNDATASIZE PUSH1 0x0 DUP1 RETURNDATACOPY RETURNDATASIZE PUSH1 0x0 REVERT JUMPDEST CALLER PUSH1 0x0 SWAP1 DUP2 MSTORE PUSH1 0x2 PUSH1 0x20 MSTORE PUSH1 0x40 SWAP1 KECCAK256 SLOAD PUSH2 0x8D0 JUMPI PUSH1 0x0 DUP1 REVERT JUMPDEST CALLER PUSH1 0x0 DUP2 DUP2 MSTORE PUSH1 0x2 PUSH1 0x20 MSTORE PUSH1 0x40 DUP1 DUP3 KECCAK256 DUP1 SLOAD SWAP1 DUP4 SWAP1 SSTORE SWAP1 MLOAD SWAP1 SWAP3 SWAP2 DUP4 ISZERO PUSH2 0x8FC MUL SWAP2 DUP5 SWAP2 DUP2 DUP2 DUP2 DUP6 DUP9 DUP9 CALL SWAP4 POP POP POP POP ISZERO DUP1 ISZERO PUSH2 0x5BE JUMPI RETURNDATASIZE PUSH1 0x0 DUP1 RETURNDATACOPY RETURNDATASIZE PUSH1 0x0 REVERT JUMPDEST CALLER PUSH1 0x0 SWAP1 DUP2 MSTORE PUSH1 0x3 PUSH1 0x20 MSTORE PUSH1 0x40 DUP2 KECCAK256 DUP1 SLOAD DUP3 SWAP2 SWAP1 DUP5 SWAP1 DUP2 LT PUSH2 0x92F JUMPI INVALID JUMPDEST SWAP1 PUSH1 0x0 MSTORE PUSH1 0x20 PUSH1 0x0 KECCAK256 SWAP1 PUSH1 0x3 MUL ADD PUSH1 0x2 ADD SLOAD SWAP1 POP PUSH1 0x0 DUP2 GT PUSH2 0x950 JUMPI PUSH1 0x0 DUP1 REVERT JUMPDEST PUSH1 0x7 SLOAD TIMESTAMP SWAP2 SWAP1 SWAP2 SUB MUL SWAP3 SWAP2 POP POP JUMP JUMPDEST CALLER PUSH1 0x0 SWAP1 DUP2 MSTORE PUSH1 0x20 DUP2 SWAP1 MSTORE PUSH1 0x40 SWAP1 KECCAK256 PUSH1 0x2 ADD SLOAD SWAP1 JUMP JUMPDEST PUSH1 0x1 PUSH1 0x1 PUSH1 0xA0 SHL SUB AND PUSH1 0x0 SWAP1 DUP2 MSTORE PUSH1 0x1 PUSH1 0x20 MSTORE PUSH1 0x40 SWAP1 KECCAK256 SLOAD SWAP1 JUMP JUMPDEST PUSH1 0x5 SLOAD SWAP1 JUMP JUMPDEST PUSH1 0x6 SLOAD SWAP1 JUMP JUMPDEST PUSH1 0x0 DUP2 GT PUSH2 0x9A9 JUMPI PUSH1 0x0 DUP1 REVERT JUMPDEST PUSH1 0x0 JUMPDEST PUSH1 0x5 SLOAD DUP2 LT ISZERO PUSH2 0x5BE JUMPI PUSH1 0x0 PUSH1 0x1 PUSH1 0x0 PUSH1 0x5 DUP5 DUP2 SLOAD DUP2 LT PUSH2 0x9C9 JUMPI INVALID JUMPDEST PUSH1 0x0 SWAP2 DUP3 MSTORE PUSH1 0x20 DUP1 DUP4 KECCAK256 SWAP1 SWAP2 ADD SLOAD PUSH1 0x1 PUSH1 0x1 PUSH1 0xA0 SHL SUB AND DUP4 MSTORE DUP3 ADD SWAP3 SWAP1 SWAP3 MSTORE PUSH1 0x40 ADD SWAP1 KECCAK256 SLOAD GT ISZERO PUSH2 0xA76 JUMPI PUSH1 0x0 PUSH2 0x9FF DUP3 PUSH2 0x4F3 JUMP JUMPDEST SWAP1 POP PUSH1 0x0 PUSH2 0xA0C DUP3 PUSH2 0x7FA JUMP JUMPDEST SWAP1 POP DUP1 PUSH1 0x1 PUSH1 0x0 PUSH1 0x5 DUP7 DUP2 SLOAD DUP2 LT PUSH2 0xA20 JUMPI INVALID JUMPDEST PUSH1 0x0 SWAP2 DUP3 MSTORE PUSH1 0x20 DUP1 DUP4 KECCAK256 SWAP1 SWAP2 ADD SLOAD PUSH1 0x1 PUSH1 0x1 PUSH1 0xA0 SHL SUB AND DUP4 MSTORE DUP3 ADD SWAP3 SWAP1 SWAP3 MSTORE PUSH1 0x40 ADD DUP2 KECCAK256 PUSH1 0x1 ADD SWAP2 SWAP1 SWAP2 SSTORE PUSH1 0x64 DUP6 DUP4 MUL PUSH1 0x1 PUSH1 0x1 PUSH1 0xA0 SHL SUB SWAP1 SWAP5 AND PUSH1 0x0 SWAP1 DUP2 MSTORE PUSH1 0x2 PUSH1 0x20 MSTORE PUSH1 0x40 SWAP1 KECCAK256 DUP1 SLOAD SWAP2 SWAP1 SWAP5 DIV ADD SWAP1 SWAP3 SSTORE POP POP JUMPDEST PUSH1 0x1 ADD PUSH2 0x9AC JUMP JUMPDEST PUSH1 0x5 DUP1 SLOAD PUSH1 0x1 DUP2 DUP2 ADD SWAP1 SWAP3 SSTORE PUSH32 0x36B6384B5ECA791C62761152D0C79BB0604C104A5FB6F4EB0703F3154BB3DB0 ADD DUP1 SLOAD PUSH1 0x1 PUSH1 0x1 PUSH1 0xA0 SHL SUB SWAP1 SWAP5 AND PUSH1 0x1 PUSH1 0x1 PUSH1 0xA0 SHL SUB NOT SWAP1 SWAP5 AND DUP5 OR SWAP1 SSTORE PUSH1 0x0 SWAP3 DUP4 MSTORE PUSH1 0x20 MSTORE PUSH1 0x40 SWAP1 SWAP2 KECCAK256 DUP1 SLOAD SWAP1 SWAP2 ADD SWAP1 SSTORE JUMP JUMPDEST CALLER PUSH1 0x0 SWAP1 DUP2 MSTORE PUSH1 0x20 DUP2 DUP2 MSTORE PUSH1 0x40 DUP1 DUP4 KECCAK256 PUSH1 0x2 DUP1 DUP3 ADD DUP1 SLOAD PUSH1 0x1 SWAP1 DUP2 ADD SWAP1 SWAP2 SSTORE DUP3 SLOAD SWAP1 SWAP7 ADD SWAP1 SWAP2 SSTORE PUSH1 0x3 DUP1 DUP5 MSTORE DUP3 DUP6 KECCAK256 DUP1 SLOAD DUP1 DUP9 ADD DUP3 SSTORE SWAP1 DUP7 MSTORE SWAP5 DUP5 SWAP1 KECCAK256 DUP8 MLOAD SWAP6 SWAP1 SWAP2 MUL ADD SWAP4 DUP5 SSTORE SWAP2 DUP6 ADD MLOAD SWAP4 DUP4 ADD SWAP4 SWAP1 SWAP4 SSTORE SWAP3 SWAP1 SWAP2 ADD MLOAD SWAP2 ADD SSTORE JUMP JUMPDEST PUSH1 0x40 MLOAD DUP1 PUSH1 0x60 ADD PUSH1 0x40 MSTORE DUP1 PUSH1 0x0 DUP2 MSTORE PUSH1 0x20 ADD PUSH1 0x0 DUP2 MSTORE PUSH1 0x20 ADD PUSH1 0x0 DUP2 MSTORE POP SWAP1 JUMP INVALID LOG2 PUSH5 0x6970667358 0x22 SLT KECCAK256 0x4C RETURNDATASIZE DUP7 0xCA ADDRESS 0xA7 POP 0xA9 CALL 0xB7 PUSH5 0x2FFCD5583A PUSH15 0xFE1E1033884CB756C90701BB4EE3DF PUSH5 0x736F6C6343 STOP MOD 0xC STOP CALLER ",
  "sha1": "1ed8c492e1a7edeee08d23d89b0293efae635fe6",
  "source": "// SPDX-License-Identifier: GPL-3.0\n\npragma solidity ^0.6.6;\n\nimport \"./SafeMath.sol\";\nimport \"./ABDKMath64x64.sol\";\n/**\n * @title loan\n * @dev borrow and loan money\n */\n\ncontract Bank {\n\n    using SafeMath for uint256;\n\n    struct Borrower {\n        uint256 amount_borrowed;\n        uint256 weight;\n        uint256 loan_count;\n        //bool isValue;\n    }\n\n    struct Lender {\n        uint256 amount_lent;\n        uint256 last_weight;\n        /* bool isValue; */\n    }\n\n    struct Loan {\n        uint256 amount_borrowed;\n        uint256 amount_lent;\n        uint256 timestamp;\n    }\n\n    mapping(address => Borrower) public borrowers;\n    mapping(address => Lender) public lenders;\n    mapping(address => uint256) public accumulated_earnings;\n    mapping(address => Loan[]) loans;\n    mapping(address => Loan[]) deposits;\n\n    address[] public lenders_;\n    uint256 public total_supply;\n\n    //fee per second\n    uint256 FEE =  1 gwei;\n\n    constructor() payable public {\n    }\n\n\n    function deposit(uint256 amount) public payable {\n        require(msg.sender.balance >= amount, \"Insufficient balance.\");\n        Loan memory new_loan = Loan(amount,0, block.timestamp);\n        total_supply += amount;\n        _update_lenders(msg.sender, amount);\n     }\n\n\n    function borrow(uint256 amount) public {\n        require(address(this).balance >= amount);// dev: Insufficient balance in Contract\n        Loan memory new_loan = Loan(amount,0, block.timestamp);\n        _update_borrowers(new_loan, amount);\n        msg.sender.transfer(amount);\n     }\n\n     function _update_borrowers(Loan memory new_loan, uint256 amount) internal {\n        Borrower storage borrower = borrowers[msg.sender];\n         borrower.loan_count = borrower.loan_count + 1;\n         borrower.amount_borrowed += amount;\n         loans[msg.sender].push(new_loan);\n      }\n\n      function _update_lenders(address _lender_address, uint256 amount) internal {\n        lenders_.push(_lender_address);\n        Lender storage lender = lenders[_lender_address];\n        lender.amount_lent += amount;\n        /* lender.weight = calculate_weight(_lender_address, amount); */\n        /* lender.weight = lenders[_lender_address].amount_lent / (address(this).balance + amount ); */\n\n       }\n\n    function withdraw(uint256 amount) public {\n        require(address(this).balance >= amount);\n        require(lenders[msg.sender].amount_lent >= amount);\n        lenders[msg.sender].amount_lent -= amount;\n        total_supply -= amount;\n        msg.sender.transfer(amount);\n     }\n\n     function withdraw_fees() public {\n         require(accumulated_earnings[msg.sender] > 0);\n         uint256 to_pay = accumulated_earnings[msg.sender];\n         accumulated_earnings[msg.sender] = 0;\n         msg.sender.transfer(to_pay);\n      }\n\n    function repay_full_loan(uint256 loan_idx) public payable {\n        require(borrowers[msg.sender].amount_borrowed > 0);\n        uint256 total_fee = get_fee_accumulated_on_loan(loan_idx);\n        uint256 total_to_repay = loans[msg.sender][loan_idx].amount_borrowed + total_fee;\n        require(msg.value >= total_to_repay);\n        if(msg.value > total_to_repay){\n          uint256 change = msg.value - total_to_repay;\n          borrowers[msg.sender].amount_borrowed = 0;\n          msg.sender.transfer(change);\n        }\n        require(total_fee>0);\n        distribute_fees(total_fee);\n     }\n\n\n    function total_available_to_borrow() public view returns (uint256) {\n        return address(this).balance;\n     }\n\n    function distribute_fees(uint256 fees_received) private {\n        require(fees_received>0);\n        for(uint256 i=0; i< lenders_.length; i++){\n            if (lenders[lenders_[i]].amount_lent>0) {\n                address addr   = get_lender_address(i);\n                uint256 weight = calculate_weight(addr);\n                lenders[lenders_[i]].last_weight = weight;\n                uint256 fee_share = (fees_received * weight)/100;\n                accumulated_earnings[addr] += fee_share;\n            }\n        }\n    }\n\n    function calculate_weight(address _lender_address) public view returns (uint256) {\n       uint256 weight = (100 * lenders[_lender_address].amount_lent) / total_supply;\n       return weight;\n    }\n\n    function calculate_weight_a(address _lender_address) public view returns (uint256) {\n       return lenders[_lender_address].amount_lent;\n    }\n\n    function get_loans_count() public view returns (uint256){\n      return borrowers[msg.sender].loan_count;\n    }\n\n    function get_borrowed_amount() public view returns (uint256){\n      return borrowers[msg.sender].amount_borrowed;\n    }\n\n    function get_loan_amount(uint256 loan_id) public view returns (uint256){\n      return loans[msg.sender][loan_id].amount_borrowed;\n    }\n\n    function get_loan_timestamp(uint256 loan_id) public view returns (uint256){\n      return loans[msg.sender][loan_id].timestamp;\n    }\n\n    function get_fee_accumulated_on_loan(uint256 loan_id) public view returns (uint256){\n      uint256 start_time =  loans[msg.sender][loan_id].timestamp;\n      require(start_time>0);\n      uint256 total_fee = (block.timestamp - start_time) * FEE;\n      //uint256 total_to_repay = loans[msg.sender][loan_id].amount_borrowed + total_fee;\n      return total_fee;\n    }\n\n    function get_number_of_lenders() public view returns (uint256){\n      return lenders_.length;\n    }\n\n    function get_lender_address(uint256 i) public view returns (address){\n      return lenders_[i];\n    }\n\n    function get_lender_weight() public view returns (uint256){\n      return lenders[msg.sender].last_weight;\n    }\n\n    function get_lent_amount() public view returns (uint256){\n      return lenders[msg.sender].amount_lent;\n    }\n\n    function get_accumulated_earnings() public view returns (uint256){\n      return accumulated_earnings[msg.sender];\n    }\n\n    function get_total_supply() public view returns (uint256){\n      return total_supply;\n    }\n    receive() external payable { }\n\n}\n",
  "sourcePath": "contracts/Bank.sol",
  "type": "contract"
}