{
  "abi": [
    {
      "inputs": [],
      "stateMutability": "payable",
      "type": "constructor"
    },
    {
      "inputs": [
        {
          "internalType": "uint256",
          "name": "amount",
          "type": "uint256"
        }
      ],
      "name": "borrow",
      "outputs": [],
      "stateMutability": "nonpayable",
      "type": "function"
    },
    {
      "inputs": [
        {
          "internalType": "address",
          "name": "",
          "type": "address"
        }
      ],
      "name": "borrowers",
      "outputs": [
        {
          "internalType": "uint256",
          "name": "amount_borrowed",
          "type": "uint256"
        },
        {
          "internalType": "uint256",
          "name": "weight",
          "type": "uint256"
        },
        {
          "internalType": "uint256",
          "name": "loan_count",
          "type": "uint256"
        }
      ],
      "stateMutability": "view",
      "type": "function"
    },
    {
      "inputs": [
        {
          "internalType": "address",
          "name": "_user_address",
          "type": "address"
        }
      ],
      "name": "calculate_weight",
      "outputs": [
        {
          "internalType": "uint256",
          "name": "",
          "type": "uint256"
        }
      ],
      "stateMutability": "view",
      "type": "function"
    },
    {
      "inputs": [
        {
          "internalType": "uint256",
          "name": "amount",
          "type": "uint256"
        }
      ],
      "name": "deposit",
      "outputs": [],
      "stateMutability": "payable",
      "type": "function"
    },
    {
      "inputs": [],
      "name": "get_borrowed_amount",
      "outputs": [
        {
          "internalType": "uint256",
          "name": "",
          "type": "uint256"
        }
      ],
      "stateMutability": "view",
      "type": "function"
    },
    {
      "inputs": [
        {
          "internalType": "uint256",
          "name": "loan_id",
          "type": "uint256"
        }
      ],
      "name": "get_fee_accumulated_on_loan",
      "outputs": [
        {
          "internalType": "uint256",
          "name": "",
          "type": "uint256"
        }
      ],
      "stateMutability": "view",
      "type": "function"
    },
    {
      "inputs": [
        {
          "internalType": "uint256",
          "name": "loan_id",
          "type": "uint256"
        }
      ],
      "name": "get_loan_amount",
      "outputs": [
        {
          "internalType": "uint256",
          "name": "",
          "type": "uint256"
        }
      ],
      "stateMutability": "view",
      "type": "function"
    },
    {
      "inputs": [
        {
          "internalType": "uint256",
          "name": "loan_id",
          "type": "uint256"
        }
      ],
      "name": "get_loan_timestamp",
      "outputs": [
        {
          "internalType": "uint256",
          "name": "",
          "type": "uint256"
        }
      ],
      "stateMutability": "view",
      "type": "function"
    },
    {
      "inputs": [],
      "name": "get_loans_count",
      "outputs": [
        {
          "internalType": "uint256",
          "name": "",
          "type": "uint256"
        }
      ],
      "stateMutability": "view",
      "type": "function"
    },
    {
      "inputs": [
        {
          "internalType": "uint256",
          "name": "",
          "type": "uint256"
        }
      ],
      "name": "lenders_",
      "outputs": [
        {
          "internalType": "address",
          "name": "",
          "type": "address"
        }
      ],
      "stateMutability": "view",
      "type": "function"
    },
    {
      "inputs": [
        {
          "internalType": "uint256",
          "name": "loan_idx",
          "type": "uint256"
        }
      ],
      "name": "repay_full_loan",
      "outputs": [],
      "stateMutability": "payable",
      "type": "function"
    },
    {
      "inputs": [],
      "name": "total_available_to_borrow",
      "outputs": [
        {
          "internalType": "uint256",
          "name": "",
          "type": "uint256"
        }
      ],
      "stateMutability": "view",
      "type": "function"
    },
    {
      "inputs": [
        {
          "internalType": "uint256",
          "name": "amount",
          "type": "uint256"
        }
      ],
      "name": "withdraw",
      "outputs": [],
      "stateMutability": "nonpayable",
      "type": "function"
    },
    {
      "stateMutability": "payable",
      "type": "receive"
    }
  ],
  "bytecode": "6080604052633b9aca006004556107e78061001b6000396000f3fe6080604052600436106100c65760003560e01c8063a60f4e3a1161007f578063bf5d50c411610059578063bf5d50c414610241578063c5ebeaec14610292578063d59ff82d146102bc578063d9d585b2146102e6576100cd565b8063a60f4e3a146101c7578063b6b55f25146101f1578063b909e4ee1461020e576100cd565b8063060096bf146100d25780632e1a7d4d146100f957806343e4b3f41461012557806359e1016f1461013a578063689f7c96146101645780639f868051146101aa576100cd565b366100cd57005b600080fd5b3480156100de57600080fd5b506100e76102fb565b60408051918252519081900360200190f35b34801561010557600080fd5b506101236004803603602081101561011c57600080fd5b50356102ff565b005b34801561013157600080fd5b506100e761036b565b34801561014657600080fd5b506100e76004803603602081101561015d57600080fd5b503561037e565b34801561017057600080fd5b5061018e6004803603602081101561018757600080fd5b50356103b2565b604080516001600160a01b039092168252519081900360200190f35b610123600480360360208110156101c057600080fd5b50356103d9565b3480156101d357600080fd5b506100e7600480360360208110156101ea57600080fd5b5035610493565b6101236004803603602081101561020757600080fd5b50356104c7565b34801561021a57600080fd5b506100e76004803603602081101561023157600080fd5b50356001600160a01b031661056c565b34801561024d57600080fd5b506102746004803603602081101561026457600080fd5b50356001600160a01b0316610598565b60408051938452602084019290925282820152519081900360600190f35b34801561029e57600080fd5b50610123600480360360208110156102b557600080fd5b50356105b8565b3480156102c857600080fd5b506100e7600480360360208110156102df57600080fd5b5035610622565b3480156102f257600080fd5b506100e7610698565b4790565b8047101561030c57600080fd5b3360009081526002602052604090205481111561032857600080fd5b33600081815260026020526040808220805485900390555183156108fc0291849190818181858888f19350505050158015610367573d6000803e3d6000fd5b5050565b3360009081526001602052604090205490565b33600090815260208190526040812080548390811061039957fe5b9060005260206000209060030201600001549050919050565b600381815481106103bf57fe5b6000918252602090912001546001600160a01b0316905081565b336000908152600160205260409020546103f257600080fd5b60045433600090815260208190526040812080549192918490811061041357fe5b9060005260206000209060030201600201544203620151800202905060008160016000336001600160a01b03166001600160a01b031681526020019081526020016000206000015401905080336001600160a01b031631101561047557600080fd5b3360009081526001602052604081205561048e826106ae565b505050565b3360009081526020819052604081208054839081106104ae57fe5b9060005260206000209060030201600201549050919050565b3331811115610515576040805162461bcd60e51b815260206004820152601560248201527424b739bab33334b1b4b2b73a103130b630b731b29760591b604482015290519081900360640190fd5b60038054600181019091557fc2575a0e9e593c00f959f8c92f12db2869c3395a3b0502d05e2516446f71f85b0180546001600160a01b03191633908117909155600090815260026020526040902080549091019055565b6001600160a01b038116600090815260026020526040812054819047908161059057fe5b049392505050565b600160208190526000918252604090912080549181015460029091015483565b804710156105c557600080fd5b6105cd610790565b6040518060600160405280838152602001600081526020014281525090506105f58183610738565b604051339083156108fc029084906000818181858888f1935050505015801561048e573d6000803e3d6000fd5b33600090815260208190526040812080548291908490811061064057fe5b90600052602060002090600302016002015490506000811161066157600080fd5b600454336000908152602081905260408120805442859003909302928391908790811061068a57fe5b506000525090949350505050565b3360009081526001602052604090206002015490565b60005b60035460ff8216116103675760006002600060038460ff16815481106106d357fe5b60009182526020808320909101546001600160a01b03168352820192909252604001902054111561073057600060038260ff168154811061071057fe5b60009182526020808320909101546001600160a01b031690915260029052505b6001016106b1565b3360009081526001602081815260408084206002808201805486019055815490960190558382528084208054808501825590855293829020865160039095020193845590850151918301919091559290920151910155565b6040518060600160405280600081526020016000815260200160008152509056fea2646970667358221220706b93b3c29fa9181c5ae608c028d327ddd81aedb7f6191027ddd1a3845ff5f264736f6c634300060c0033",
  "bytecodeSha1": "7eb512e99c49527888ff67bb7f05a1fdfcacae73",
  "compiler": {
    "evm_version": "istanbul",
    "optimizer": {
      "enabled": true,
      "runs": 200
    },
    "version": "0.6.12+commit.27d51765"
  },
  "contractName": "Bank",
  "language": "Solidity",
  "natspec": {
    "details": "borrow and loan money",
    "kind": "dev",
    "methods": {},
    "title": "loan",
    "version": 1
  },
  "opcodes": "PUSH1 0x80 PUSH1 0x40 MSTORE PUSH1 0x4 CALLDATASIZE LT PUSH2 0xC6 JUMPI PUSH1 0x0 CALLDATALOAD PUSH1 0xE0 SHR DUP1 PUSH4 0xA60F4E3A GT PUSH2 0x7F JUMPI DUP1 PUSH4 0xBF5D50C4 GT PUSH2 0x59 JUMPI DUP1 PUSH4 0xBF5D50C4 EQ PUSH2 0x241 JUMPI DUP1 PUSH4 0xC5EBEAEC EQ PUSH2 0x292 JUMPI DUP1 PUSH4 0xD59FF82D EQ PUSH2 0x2BC JUMPI DUP1 PUSH4 0xD9D585B2 EQ PUSH2 0x2E6 JUMPI PUSH2 0xCD JUMP JUMPDEST DUP1 PUSH4 0xA60F4E3A EQ PUSH2 0x1C7 JUMPI DUP1 PUSH4 0xB6B55F25 EQ PUSH2 0x1F1 JUMPI DUP1 PUSH4 0xB909E4EE EQ PUSH2 0x20E JUMPI PUSH2 0xCD JUMP JUMPDEST DUP1 PUSH4 0x60096BF EQ PUSH2 0xD2 JUMPI DUP1 PUSH4 0x2E1A7D4D EQ PUSH2 0xF9 JUMPI DUP1 PUSH4 0x43E4B3F4 EQ PUSH2 0x125 JUMPI DUP1 PUSH4 0x59E1016F EQ PUSH2 0x13A JUMPI DUP1 PUSH4 0x689F7C96 EQ PUSH2 0x164 JUMPI DUP1 PUSH4 0x9F868051 EQ PUSH2 0x1AA JUMPI PUSH2 0xCD JUMP JUMPDEST CALLDATASIZE PUSH2 0xCD JUMPI STOP JUMPDEST PUSH1 0x0 DUP1 REVERT JUMPDEST CALLVALUE DUP1 ISZERO PUSH2 0xDE JUMPI PUSH1 0x0 DUP1 REVERT JUMPDEST POP PUSH2 0xE7 PUSH2 0x2FB JUMP JUMPDEST PUSH1 0x40 DUP1 MLOAD SWAP2 DUP3 MSTORE MLOAD SWAP1 DUP2 SWAP1 SUB PUSH1 0x20 ADD SWAP1 RETURN JUMPDEST CALLVALUE DUP1 ISZERO PUSH2 0x105 JUMPI PUSH1 0x0 DUP1 REVERT JUMPDEST POP PUSH2 0x123 PUSH1 0x4 DUP1 CALLDATASIZE SUB PUSH1 0x20 DUP2 LT ISZERO PUSH2 0x11C JUMPI PUSH1 0x0 DUP1 REVERT JUMPDEST POP CALLDATALOAD PUSH2 0x2FF JUMP JUMPDEST STOP JUMPDEST CALLVALUE DUP1 ISZERO PUSH2 0x131 JUMPI PUSH1 0x0 DUP1 REVERT JUMPDEST POP PUSH2 0xE7 PUSH2 0x36B JUMP JUMPDEST CALLVALUE DUP1 ISZERO PUSH2 0x146 JUMPI PUSH1 0x0 DUP1 REVERT JUMPDEST POP PUSH2 0xE7 PUSH1 0x4 DUP1 CALLDATASIZE SUB PUSH1 0x20 DUP2 LT ISZERO PUSH2 0x15D JUMPI PUSH1 0x0 DUP1 REVERT JUMPDEST POP CALLDATALOAD PUSH2 0x37E JUMP JUMPDEST CALLVALUE DUP1 ISZERO PUSH2 0x170 JUMPI PUSH1 0x0 DUP1 REVERT JUMPDEST POP PUSH2 0x18E PUSH1 0x4 DUP1 CALLDATASIZE SUB PUSH1 0x20 DUP2 LT ISZERO PUSH2 0x187 JUMPI PUSH1 0x0 DUP1 REVERT JUMPDEST POP CALLDATALOAD PUSH2 0x3B2 JUMP JUMPDEST PUSH1 0x40 DUP1 MLOAD PUSH1 0x1 PUSH1 0x1 PUSH1 0xA0 SHL SUB SWAP1 SWAP3 AND DUP3 MSTORE MLOAD SWAP1 DUP2 SWAP1 SUB PUSH1 0x20 ADD SWAP1 RETURN JUMPDEST PUSH2 0x123 PUSH1 0x4 DUP1 CALLDATASIZE SUB PUSH1 0x20 DUP2 LT ISZERO PUSH2 0x1C0 JUMPI PUSH1 0x0 DUP1 REVERT JUMPDEST POP CALLDATALOAD PUSH2 0x3D9 JUMP JUMPDEST CALLVALUE DUP1 ISZERO PUSH2 0x1D3 JUMPI PUSH1 0x0 DUP1 REVERT JUMPDEST POP PUSH2 0xE7 PUSH1 0x4 DUP1 CALLDATASIZE SUB PUSH1 0x20 DUP2 LT ISZERO PUSH2 0x1EA JUMPI PUSH1 0x0 DUP1 REVERT JUMPDEST POP CALLDATALOAD PUSH2 0x493 JUMP JUMPDEST PUSH2 0x123 PUSH1 0x4 DUP1 CALLDATASIZE SUB PUSH1 0x20 DUP2 LT ISZERO PUSH2 0x207 JUMPI PUSH1 0x0 DUP1 REVERT JUMPDEST POP CALLDATALOAD PUSH2 0x4C7 JUMP JUMPDEST CALLVALUE DUP1 ISZERO PUSH2 0x21A JUMPI PUSH1 0x0 DUP1 REVERT JUMPDEST POP PUSH2 0xE7 PUSH1 0x4 DUP1 CALLDATASIZE SUB PUSH1 0x20 DUP2 LT ISZERO PUSH2 0x231 JUMPI PUSH1 0x0 DUP1 REVERT JUMPDEST POP CALLDATALOAD PUSH1 0x1 PUSH1 0x1 PUSH1 0xA0 SHL SUB AND PUSH2 0x56C JUMP JUMPDEST CALLVALUE DUP1 ISZERO PUSH2 0x24D JUMPI PUSH1 0x0 DUP1 REVERT JUMPDEST POP PUSH2 0x274 PUSH1 0x4 DUP1 CALLDATASIZE SUB PUSH1 0x20 DUP2 LT ISZERO PUSH2 0x264 JUMPI PUSH1 0x0 DUP1 REVERT JUMPDEST POP CALLDATALOAD PUSH1 0x1 PUSH1 0x1 PUSH1 0xA0 SHL SUB AND PUSH2 0x598 JUMP JUMPDEST PUSH1 0x40 DUP1 MLOAD SWAP4 DUP5 MSTORE PUSH1 0x20 DUP5 ADD SWAP3 SWAP1 SWAP3 MSTORE DUP3 DUP3 ADD MSTORE MLOAD SWAP1 DUP2 SWAP1 SUB PUSH1 0x60 ADD SWAP1 RETURN JUMPDEST CALLVALUE DUP1 ISZERO PUSH2 0x29E JUMPI PUSH1 0x0 DUP1 REVERT JUMPDEST POP PUSH2 0x123 PUSH1 0x4 DUP1 CALLDATASIZE SUB PUSH1 0x20 DUP2 LT ISZERO PUSH2 0x2B5 JUMPI PUSH1 0x0 DUP1 REVERT JUMPDEST POP CALLDATALOAD PUSH2 0x5B8 JUMP JUMPDEST CALLVALUE DUP1 ISZERO PUSH2 0x2C8 JUMPI PUSH1 0x0 DUP1 REVERT JUMPDEST POP PUSH2 0xE7 PUSH1 0x4 DUP1 CALLDATASIZE SUB PUSH1 0x20 DUP2 LT ISZERO PUSH2 0x2DF JUMPI PUSH1 0x0 DUP1 REVERT JUMPDEST POP CALLDATALOAD PUSH2 0x622 JUMP JUMPDEST CALLVALUE DUP1 ISZERO PUSH2 0x2F2 JUMPI PUSH1 0x0 DUP1 REVERT JUMPDEST POP PUSH2 0xE7 PUSH2 0x698 JUMP JUMPDEST SELFBALANCE SWAP1 JUMP JUMPDEST DUP1 SELFBALANCE LT ISZERO PUSH2 0x30C JUMPI PUSH1 0x0 DUP1 REVERT JUMPDEST CALLER PUSH1 0x0 SWAP1 DUP2 MSTORE PUSH1 0x2 PUSH1 0x20 MSTORE PUSH1 0x40 SWAP1 KECCAK256 SLOAD DUP2 GT ISZERO PUSH2 0x328 JUMPI PUSH1 0x0 DUP1 REVERT JUMPDEST CALLER PUSH1 0x0 DUP2 DUP2 MSTORE PUSH1 0x2 PUSH1 0x20 MSTORE PUSH1 0x40 DUP1 DUP3 KECCAK256 DUP1 SLOAD DUP6 SWAP1 SUB SWAP1 SSTORE MLOAD DUP4 ISZERO PUSH2 0x8FC MUL SWAP2 DUP5 SWAP2 SWAP1 DUP2 DUP2 DUP2 DUP6 DUP9 DUP9 CALL SWAP4 POP POP POP POP ISZERO DUP1 ISZERO PUSH2 0x367 JUMPI RETURNDATASIZE PUSH1 0x0 DUP1 RETURNDATACOPY RETURNDATASIZE PUSH1 0x0 REVERT JUMPDEST POP POP JUMP JUMPDEST CALLER PUSH1 0x0 SWAP1 DUP2 MSTORE PUSH1 0x1 PUSH1 0x20 MSTORE PUSH1 0x40 SWAP1 KECCAK256 SLOAD SWAP1 JUMP JUMPDEST CALLER PUSH1 0x0 SWAP1 DUP2 MSTORE PUSH1 0x20 DUP2 SWAP1 MSTORE PUSH1 0x40 DUP2 KECCAK256 DUP1 SLOAD DUP4 SWAP1 DUP2 LT PUSH2 0x399 JUMPI INVALID JUMPDEST SWAP1 PUSH1 0x0 MSTORE PUSH1 0x20 PUSH1 0x0 KECCAK256 SWAP1 PUSH1 0x3 MUL ADD PUSH1 0x0 ADD SLOAD SWAP1 POP SWAP2 SWAP1 POP JUMP JUMPDEST PUSH1 0x3 DUP2 DUP2 SLOAD DUP2 LT PUSH2 0x3BF JUMPI INVALID JUMPDEST PUSH1 0x0 SWAP2 DUP3 MSTORE PUSH1 0x20 SWAP1 SWAP2 KECCAK256 ADD SLOAD PUSH1 0x1 PUSH1 0x1 PUSH1 0xA0 SHL SUB AND SWAP1 POP DUP2 JUMP JUMPDEST CALLER PUSH1 0x0 SWAP1 DUP2 MSTORE PUSH1 0x1 PUSH1 0x20 MSTORE PUSH1 0x40 SWAP1 KECCAK256 SLOAD PUSH2 0x3F2 JUMPI PUSH1 0x0 DUP1 REVERT JUMPDEST PUSH1 0x4 SLOAD CALLER PUSH1 0x0 SWAP1 DUP2 MSTORE PUSH1 0x20 DUP2 SWAP1 MSTORE PUSH1 0x40 DUP2 KECCAK256 DUP1 SLOAD SWAP2 SWAP3 SWAP2 DUP5 SWAP1 DUP2 LT PUSH2 0x413 JUMPI INVALID JUMPDEST SWAP1 PUSH1 0x0 MSTORE PUSH1 0x20 PUSH1 0x0 KECCAK256 SWAP1 PUSH1 0x3 MUL ADD PUSH1 0x2 ADD SLOAD TIMESTAMP SUB PUSH3 0x15180 MUL MUL SWAP1 POP PUSH1 0x0 DUP2 PUSH1 0x1 PUSH1 0x0 CALLER PUSH1 0x1 PUSH1 0x1 PUSH1 0xA0 SHL SUB AND PUSH1 0x1 PUSH1 0x1 PUSH1 0xA0 SHL SUB AND DUP2 MSTORE PUSH1 0x20 ADD SWAP1 DUP2 MSTORE PUSH1 0x20 ADD PUSH1 0x0 KECCAK256 PUSH1 0x0 ADD SLOAD ADD SWAP1 POP DUP1 CALLER PUSH1 0x1 PUSH1 0x1 PUSH1 0xA0 SHL SUB AND BALANCE LT ISZERO PUSH2 0x475 JUMPI PUSH1 0x0 DUP1 REVERT JUMPDEST CALLER PUSH1 0x0 SWAP1 DUP2 MSTORE PUSH1 0x1 PUSH1 0x20 MSTORE PUSH1 0x40 DUP2 KECCAK256 SSTORE PUSH2 0x48E DUP3 PUSH2 0x6AE JUMP JUMPDEST POP POP POP JUMP JUMPDEST CALLER PUSH1 0x0 SWAP1 DUP2 MSTORE PUSH1 0x20 DUP2 SWAP1 MSTORE PUSH1 0x40 DUP2 KECCAK256 DUP1 SLOAD DUP4 SWAP1 DUP2 LT PUSH2 0x4AE JUMPI INVALID JUMPDEST SWAP1 PUSH1 0x0 MSTORE PUSH1 0x20 PUSH1 0x0 KECCAK256 SWAP1 PUSH1 0x3 MUL ADD PUSH1 0x2 ADD SLOAD SWAP1 POP SWAP2 SWAP1 POP JUMP JUMPDEST CALLER BALANCE DUP2 GT ISZERO PUSH2 0x515 JUMPI PUSH1 0x40 DUP1 MLOAD PUSH3 0x461BCD PUSH1 0xE5 SHL DUP2 MSTORE PUSH1 0x20 PUSH1 0x4 DUP3 ADD MSTORE PUSH1 0x15 PUSH1 0x24 DUP3 ADD MSTORE PUSH21 0x24B739BAB33334B1B4B2B73A103130B630B731B297 PUSH1 0x59 SHL PUSH1 0x44 DUP3 ADD MSTORE SWAP1 MLOAD SWAP1 DUP2 SWAP1 SUB PUSH1 0x64 ADD SWAP1 REVERT JUMPDEST PUSH1 0x3 DUP1 SLOAD PUSH1 0x1 DUP2 ADD SWAP1 SWAP2 SSTORE PUSH32 0xC2575A0E9E593C00F959F8C92F12DB2869C3395A3B0502D05E2516446F71F85B ADD DUP1 SLOAD PUSH1 0x1 PUSH1 0x1 PUSH1 0xA0 SHL SUB NOT AND CALLER SWAP1 DUP2 OR SWAP1 SWAP2 SSTORE PUSH1 0x0 SWAP1 DUP2 MSTORE PUSH1 0x2 PUSH1 0x20 MSTORE PUSH1 0x40 SWAP1 KECCAK256 DUP1 SLOAD SWAP1 SWAP2 ADD SWAP1 SSTORE JUMP JUMPDEST PUSH1 0x1 PUSH1 0x1 PUSH1 0xA0 SHL SUB DUP2 AND PUSH1 0x0 SWAP1 DUP2 MSTORE PUSH1 0x2 PUSH1 0x20 MSTORE PUSH1 0x40 DUP2 KECCAK256 SLOAD DUP2 SWAP1 SELFBALANCE SWAP1 DUP2 PUSH2 0x590 JUMPI INVALID JUMPDEST DIV SWAP4 SWAP3 POP POP POP JUMP JUMPDEST PUSH1 0x1 PUSH1 0x20 DUP2 SWAP1 MSTORE PUSH1 0x0 SWAP2 DUP3 MSTORE PUSH1 0x40 SWAP1 SWAP2 KECCAK256 DUP1 SLOAD SWAP2 DUP2 ADD SLOAD PUSH1 0x2 SWAP1 SWAP2 ADD SLOAD DUP4 JUMP JUMPDEST DUP1 SELFBALANCE LT ISZERO PUSH2 0x5C5 JUMPI PUSH1 0x0 DUP1 REVERT JUMPDEST PUSH2 0x5CD PUSH2 0x790 JUMP JUMPDEST PUSH1 0x40 MLOAD DUP1 PUSH1 0x60 ADD PUSH1 0x40 MSTORE DUP1 DUP4 DUP2 MSTORE PUSH1 0x20 ADD PUSH1 0x0 DUP2 MSTORE PUSH1 0x20 ADD TIMESTAMP DUP2 MSTORE POP SWAP1 POP PUSH2 0x5F5 DUP2 DUP4 PUSH2 0x738 JUMP JUMPDEST PUSH1 0x40 MLOAD CALLER SWAP1 DUP4 ISZERO PUSH2 0x8FC MUL SWAP1 DUP5 SWAP1 PUSH1 0x0 DUP2 DUP2 DUP2 DUP6 DUP9 DUP9 CALL SWAP4 POP POP POP POP ISZERO DUP1 ISZERO PUSH2 0x48E JUMPI RETURNDATASIZE PUSH1 0x0 DUP1 RETURNDATACOPY RETURNDATASIZE PUSH1 0x0 REVERT JUMPDEST CALLER PUSH1 0x0 SWAP1 DUP2 MSTORE PUSH1 0x20 DUP2 SWAP1 MSTORE PUSH1 0x40 DUP2 KECCAK256 DUP1 SLOAD DUP3 SWAP2 SWAP1 DUP5 SWAP1 DUP2 LT PUSH2 0x640 JUMPI INVALID JUMPDEST SWAP1 PUSH1 0x0 MSTORE PUSH1 0x20 PUSH1 0x0 KECCAK256 SWAP1 PUSH1 0x3 MUL ADD PUSH1 0x2 ADD SLOAD SWAP1 POP PUSH1 0x0 DUP2 GT PUSH2 0x661 JUMPI PUSH1 0x0 DUP1 REVERT JUMPDEST PUSH1 0x4 SLOAD CALLER PUSH1 0x0 SWAP1 DUP2 MSTORE PUSH1 0x20 DUP2 SWAP1 MSTORE PUSH1 0x40 DUP2 KECCAK256 DUP1 SLOAD TIMESTAMP DUP6 SWAP1 SUB SWAP1 SWAP4 MUL SWAP3 DUP4 SWAP2 SWAP1 DUP8 SWAP1 DUP2 LT PUSH2 0x68A JUMPI INVALID JUMPDEST POP PUSH1 0x0 MSTORE POP SWAP1 SWAP5 SWAP4 POP POP POP POP JUMP JUMPDEST CALLER PUSH1 0x0 SWAP1 DUP2 MSTORE PUSH1 0x1 PUSH1 0x20 MSTORE PUSH1 0x40 SWAP1 KECCAK256 PUSH1 0x2 ADD SLOAD SWAP1 JUMP JUMPDEST PUSH1 0x0 JUMPDEST PUSH1 0x3 SLOAD PUSH1 0xFF DUP3 AND GT PUSH2 0x367 JUMPI PUSH1 0x0 PUSH1 0x2 PUSH1 0x0 PUSH1 0x3 DUP5 PUSH1 0xFF AND DUP2 SLOAD DUP2 LT PUSH2 0x6D3 JUMPI INVALID JUMPDEST PUSH1 0x0 SWAP2 DUP3 MSTORE PUSH1 0x20 DUP1 DUP4 KECCAK256 SWAP1 SWAP2 ADD SLOAD PUSH1 0x1 PUSH1 0x1 PUSH1 0xA0 SHL SUB AND DUP4 MSTORE DUP3 ADD SWAP3 SWAP1 SWAP3 MSTORE PUSH1 0x40 ADD SWAP1 KECCAK256 SLOAD GT ISZERO PUSH2 0x730 JUMPI PUSH1 0x0 PUSH1 0x3 DUP3 PUSH1 0xFF AND DUP2 SLOAD DUP2 LT PUSH2 0x710 JUMPI INVALID JUMPDEST PUSH1 0x0 SWAP2 DUP3 MSTORE PUSH1 0x20 DUP1 DUP4 KECCAK256 SWAP1 SWAP2 ADD SLOAD PUSH1 0x1 PUSH1 0x1 PUSH1 0xA0 SHL SUB AND SWAP1 SWAP2 MSTORE PUSH1 0x2 SWAP1 MSTORE POP JUMPDEST PUSH1 0x1 ADD PUSH2 0x6B1 JUMP JUMPDEST CALLER PUSH1 0x0 SWAP1 DUP2 MSTORE PUSH1 0x1 PUSH1 0x20 DUP2 DUP2 MSTORE PUSH1 0x40 DUP1 DUP5 KECCAK256 PUSH1 0x2 DUP1 DUP3 ADD DUP1 SLOAD DUP7 ADD SWAP1 SSTORE DUP2 SLOAD SWAP1 SWAP7 ADD SWAP1 SSTORE DUP4 DUP3 MSTORE DUP1 DUP5 KECCAK256 DUP1 SLOAD DUP1 DUP6 ADD DUP3 SSTORE SWAP1 DUP6 MSTORE SWAP4 DUP3 SWAP1 KECCAK256 DUP7 MLOAD PUSH1 0x3 SWAP1 SWAP6 MUL ADD SWAP4 DUP5 SSTORE SWAP1 DUP6 ADD MLOAD SWAP2 DUP4 ADD SWAP2 SWAP1 SWAP2 SSTORE SWAP3 SWAP1 SWAP3 ADD MLOAD SWAP2 ADD SSTORE JUMP JUMPDEST PUSH1 0x40 MLOAD DUP1 PUSH1 0x60 ADD PUSH1 0x40 MSTORE DUP1 PUSH1 0x0 DUP2 MSTORE PUSH1 0x20 ADD PUSH1 0x0 DUP2 MSTORE PUSH1 0x20 ADD PUSH1 0x0 DUP2 MSTORE POP SWAP1 JUMP INVALID LOG2 PUSH5 0x6970667358 0x22 SLT KECCAK256 PUSH17 0x6B93B3C29FA9181C5AE608C028D327DDD8 BYTE 0xED 0xB7 0xF6 NOT LT 0x27 0xDD 0xD1 LOG3 DUP5 0x5F CREATE2 CALLCODE PUSH5 0x736F6C6343 STOP MOD 0xC STOP CALLER ",
  "sha1": "676ff2798f34f8f97cec98ad8d0d59e52eef67cb",
  "source": "// SPDX-License-Identifier: GPL-3.0\n\npragma solidity ^0.6.6;\n\n/**\n * @title loan\n * @dev borrow and loan money\n */\n\ncontract Bank {\n\n    struct Borrower {\n        uint amount_borrowed;\n        uint weight;\n        uint loan_count;\n        //bool isValue;\n    }\n\n    struct Lender {\n        uint amount_lent;\n        uint weight;\n        bool isValue;\n    }\n\n    struct Loan {\n        uint amount_borrowed;\n        uint amount_lent;\n        uint timestamp;\n    }\n\n    mapping(address => Loan[]) loans;\n    mapping(address => Borrower) public borrowers;\n    mapping(address => Lender) lenders;\n\n    address[] public lenders_;\n\n    //fee per second\n    uint FEE =  1 gwei;\n\n    constructor() payable public {\n    }\n\n\n    function deposit(uint256 amount) public payable {\n        require(msg.sender.balance >= amount, \"Insufficient balance.\");\n        lenders_.push(msg.sender);\n        lenders[msg.sender].amount_lent += amount;\n     }\n\n\n    function borrow(uint256 amount) public {\n        require(address(this).balance >= amount);\n        Loan memory new_loan = Loan(amount,0, block.timestamp);\n        _update_borrowers(new_loan, amount);\n        msg.sender.transfer(amount);\n     }\n\n     function _update_borrowers(Loan memory new_loan, uint256 amount) internal {\n        Borrower storage borrower = borrowers[msg.sender];\n         borrower.loan_count = borrower.loan_count + 1;\n         borrower.amount_borrowed += amount;\n         loans[msg.sender].push(new_loan);\n         /* loans[msg.sender][borrower.loan_count].amount_borrowed = new_loan.amount_borrowed;\n         loans[msg.sender][borrower.loan_count].timestamp = new_loan.timestamp; */\n         }\n\n\n    function withdraw(uint256 amount) public {\n        require(address(this).balance >= amount);\n        require(lenders[msg.sender].amount_lent >= amount);\n        lenders[msg.sender].amount_lent -= amount;\n        msg.sender.transfer(amount);\n     }\n\n    function repay_full_loan(uint loan_idx) public payable {\n        require(borrowers[msg.sender].amount_borrowed > 0);\n        uint total_fee = (block.timestamp - loans[msg.sender][loan_idx].timestamp) * 86400 * FEE;\n        uint total_to_repay = borrowers[msg.sender].amount_borrowed + total_fee;\n        require(msg.sender.balance >= total_to_repay);\n        address(this).call{value:total_to_repay};\n        borrowers[msg.sender].amount_borrowed = 0;\n        Bank.distribute_fees(total_fee);\n     }\n\n     function calculate_weight(address _user_address) public view returns (uint256) {\n        uint weight = lenders[_user_address].amount_lent / address(this).balance;\n        return weight;\n     }\n\n    function total_available_to_borrow() public view returns (uint256) {\n        return address(this).balance;\n     }\n\n    function distribute_fees(uint fees_paid) internal {\n        for(uint8 i=0; i<= lenders_.length; i++){\n            if (lenders[lenders_[i]].amount_lent>0) {\n                address addr   = lenders_[i];\n                uint256 weight = lenders[addr].weight;\n                uint256 fee_share = fees_paid * weight;\n                addr.call{value:fee_share};\n            }\n        }\n    }\n\n    function get_loans_count() public view returns (uint256){\n      return borrowers[msg.sender].loan_count;\n    }\n\n    function get_borrowed_amount() public view returns (uint256){\n      return borrowers[msg.sender].amount_borrowed;\n    }\n\n    function get_loan_amount(uint loan_id) public view returns (uint){\n      return loans[msg.sender][loan_id].amount_borrowed;\n    }\n\n    function get_loan_timestamp(uint loan_id) public view returns (uint){\n      return loans[msg.sender][loan_id].timestamp;\n    }\n\n    function get_fee_accumulated_on_loan(uint loan_id) public view returns (uint){\n      uint start_time =  loans[msg.sender][loan_id].timestamp;\n      require(start_time>0);\n      uint total_fee = (block.timestamp - start_time) * FEE;\n      uint total_to_repay = loans[msg.sender][loan_id].amount_borrowed + total_fee;\n      return total_fee;\n    }\n\n    receive() external payable { }\n\n}\n",
  "sourcePath": "contracts/Bank.sol",
  "type": "contract"
}